{"abi":[{"type":"constructor","inputs":[],"stateMutability":"nonpayable"},{"type":"receive","stateMutability":"payable"},{"type":"function","name":"admin","inputs":[],"outputs":[{"name":"","type":"address","internalType":"address"}],"stateMutability":"view"},{"type":"function","name":"allExpenses","inputs":[{"name":"","type":"uint256","internalType":"uint256"}],"outputs":[{"name":"id","type":"uint256","internalType":"uint256"},{"name":"departmentId","type":"uint256","internalType":"uint256"},{"name":"amount","type":"uint256","internalType":"uint256"},{"name":"description","type":"string","internalType":"string"},{"name":"spentBy","type":"address","internalType":"address"},{"name":"timestamp","type":"uint256","internalType":"uint256"}],"stateMutability":"view"},{"type":"function","name":"allocateFunds","inputs":[{"name":"_departmentId","type":"uint256","internalType":"uint256"},{"name":"_amount","type":"uint256","internalType":"uint256"}],"outputs":[],"stateMutability":"nonpayable"},{"type":"function","name":"approveFundRequest","inputs":[{"name":"_requestId","type":"uint256","internalType":"uint256"}],"outputs":[],"stateMutability":"nonpayable"},{"type":"function","name":"assignEmployeeToDepartment","inputs":[{"name":"_employee","type":"address","internalType":"address"},{"name":"_departmentId","type":"uint256","internalType":"uint256"}],"outputs":[],"stateMutability":"nonpayable"},{"type":"function","name":"checkBudgetAvailable","inputs":[{"name":"_departmentId","type":"uint256","internalType":"uint256"},{"name":"_amount","type":"uint256","internalType":"uint256"}],"outputs":[{"name":"","type":"bool","internalType":"bool"}],"stateMutability":"view"},{"type":"function","name":"createDepartment","inputs":[{"name":"_name","type":"string","internalType":"string"},{"name":"_budget","type":"uint256","internalType":"uint256"},{"name":"_manager","type":"address","internalType":"address"}],"outputs":[{"name":"","type":"uint256","internalType":"uint256"}],"stateMutability":"nonpayable"},{"type":"function","name":"deactivateDepartment","inputs":[{"name":"_departmentId","type":"uint256","internalType":"uint256"}],"outputs":[],"stateMutability":"nonpayable"},{"type":"function","name":"departmentCount","inputs":[],"outputs":[{"name":"","type":"uint256","internalType":"uint256"}],"stateMutability":"view"},{"type":"function","name":"departmentExpenses","inputs":[{"name":"","type":"uint256","internalType":"uint256"},{"name":"","type":"uint256","internalType":"uint256"}],"outputs":[{"name":"id","type":"uint256","internalType":"uint256"},{"name":"departmentId","type":"uint256","internalType":"uint256"},{"name":"amount","type":"uint256","internalType":"uint256"},{"name":"description","type":"string","internalType":"string"},{"name":"spentBy","type":"address","internalType":"address"},{"name":"timestamp","type":"uint256","internalType":"uint256"}],"stateMutability":"view"},{"type":"function","name":"departments","inputs":[{"name":"","type":"uint256","internalType":"uint256"}],"outputs":[{"name":"id","type":"uint256","internalType":"uint256"},{"name":"name","type":"string","internalType":"string"},{"name":"totalBudget","type":"uint256","internalType":"uint256"},{"name":"spentAmount","type":"uint256","internalType":"uint256"},{"name":"availableBalance","type":"uint256","internalType":"uint256"},{"name":"manager","type":"address","internalType":"address"},{"name":"active","type":"bool","internalType":"bool"},{"name":"createdAt","type":"uint256","internalType":"uint256"}],"stateMutability":"view"},{"type":"function","name":"employeeToDepartment","inputs":[{"name":"","type":"address","internalType":"address"}],"outputs":[{"name":"","type":"uint256","internalType":"uint256"}],"stateMutability":"view"},{"type":"function","name":"fundRequests","inputs":[{"name":"","type":"uint256","internalType":"uint256"}],"outputs":[{"name":"id","type":"uint256","internalType":"uint256"},{"name":"departmentId","type":"uint256","internalType":"uint256"},{"name":"requester","type":"address","internalType":"address"},{"name":"amount","type":"uint256","internalType":"uint256"},{"name":"reason","type":"string","internalType":"string"},{"name":"approved","type":"bool","internalType":"bool"},{"name":"rejected","type":"bool","internalType":"bool"},{"name":"executed","type":"bool","internalType":"bool"},{"name":"requestedAt","type":"uint256","internalType":"uint256"},{"name":"approvedBy","type":"address","internalType":"address"}],"stateMutability":"view"},{"type":"function","name":"getBalance","inputs":[],"outputs":[{"name":"","type":"uint256","internalType":"uint256"}],"stateMutability":"view"},{"type":"function","name":"getDepartmentBalance","inputs":[{"name":"_departmentId","type":"uint256","internalType":"uint256"}],"outputs":[{"name":"","type":"uint256","internalType":"uint256"}],"stateMutability":"view"},{"type":"function","name":"getDepartmentDetails","inputs":[{"name":"_departmentId","type":"uint256","internalType":"uint256"}],"outputs":[{"name":"name","type":"string","internalType":"string"},{"name":"totalBudget","type":"uint256","internalType":"uint256"},{"name":"spentAmount","type":"uint256","internalType":"uint256"},{"name":"availableBalance","type":"uint256","internalType":"uint256"},{"name":"manager","type":"address","internalType":"address"},{"name":"active","type":"bool","internalType":"bool"}],"stateMutability":"view"},{"type":"function","name":"getDepartmentExpenses","inputs":[{"name":"_departmentId","type":"uint256","internalType":"uint256"}],"outputs":[{"name":"","type":"tuple[]","internalType":"struct BudgetAllocator.Expense[]","components":[{"name":"id","type":"uint256","internalType":"uint256"},{"name":"departmentId","type":"uint256","internalType":"uint256"},{"name":"amount","type":"uint256","internalType":"uint256"},{"name":"description","type":"string","internalType":"string"},{"name":"spentBy","type":"address","internalType":"address"},{"name":"timestamp","type":"uint256","internalType":"uint256"}]}],"stateMutability":"view"},{"type":"function","name":"getDepartmentForEmployee","inputs":[{"name":"_employee","type":"address","internalType":"address"}],"outputs":[{"name":"","type":"uint256","internalType":"uint256"}],"stateMutability":"view"},{"type":"function","name":"getPendingRequests","inputs":[],"outputs":[{"name":"","type":"uint256[]","internalType":"uint256[]"}],"stateMutability":"view"},{"type":"function","name":"getTotalBudget","inputs":[],"outputs":[{"name":"","type":"uint256","internalType":"uint256"}],"stateMutability":"view"},{"type":"function","name":"getTotalSpent","inputs":[],"outputs":[{"name":"","type":"uint256","internalType":"uint256"}],"stateMutability":"view"},{"type":"function","name":"isEmployeeAssigned","inputs":[{"name":"","type":"address","internalType":"address"}],"outputs":[{"name":"","type":"bool","internalType":"bool"}],"stateMutability":"view"},{"type":"function","name":"payrollManager","inputs":[],"outputs":[{"name":"","type":"address","internalType":"address"}],"stateMutability":"view"},{"type":"function","name":"recordExpense","inputs":[{"name":"_departmentId","type":"uint256","internalType":"uint256"},{"name":"_amount","type":"uint256","internalType":"uint256"},{"name":"_description","type":"string","internalType":"string"}],"outputs":[],"stateMutability":"nonpayable"},{"type":"function","name":"rejectFundRequest","inputs":[{"name":"_requestId","type":"uint256","internalType":"uint256"}],"outputs":[],"stateMutability":"nonpayable"},{"type":"function","name":"requestCount","inputs":[],"outputs":[{"name":"","type":"uint256","internalType":"uint256"}],"stateMutability":"view"},{"type":"function","name":"requestFunds","inputs":[{"name":"_departmentId","type":"uint256","internalType":"uint256"},{"name":"_amount","type":"uint256","internalType":"uint256"},{"name":"_reason","type":"string","internalType":"string"}],"outputs":[{"name":"","type":"uint256","internalType":"uint256"}],"stateMutability":"nonpayable"},{"type":"function","name":"setPayrollManager","inputs":[{"name":"_payrollManager","type":"address","internalType":"address"}],"outputs":[],"stateMutability":"nonpayable"},{"type":"function","name":"setTreasury","inputs":[{"name":"_treasury","type":"address","internalType":"address"}],"outputs":[],"stateMutability":"nonpayable"},{"type":"function","name":"setUsdc","inputs":[{"name":"_usdc","type":"address","internalType":"address"}],"outputs":[],"stateMutability":"nonpayable"},{"type":"function","name":"transferFunds","inputs":[{"name":"_departmentId","type":"uint256","internalType":"uint256"},{"name":"_recipient","type":"address","internalType":"address"},{"name":"_amount","type":"uint256","internalType":"uint256"}],"outputs":[],"stateMutability":"nonpayable"},{"type":"function","name":"treasury","inputs":[],"outputs":[{"name":"","type":"address","internalType":"address"}],"stateMutability":"view"},{"type":"function","name":"updateDepartmentManager","inputs":[{"name":"_departmentId","type":"uint256","internalType":"uint256"},{"name":"_newManager","type":"address","internalType":"address"}],"outputs":[],"stateMutability":"nonpayable"},{"type":"function","name":"usdc","inputs":[],"outputs":[{"name":"","type":"address","internalType":"contract IERC20"}],"stateMutability":"view"},{"type":"event","name":"BudgetAllocated","inputs":[{"name":"departmentId","type":"uint256","indexed":true,"internalType":"uint256"},{"name":"amount","type":"uint256","indexed":false,"internalType":"uint256"}],"anonymous":false},{"type":"event","name":"BudgetUpdated","inputs":[{"name":"departmentId","type":"uint256","indexed":true,"internalType":"uint256"},{"name":"newBudget","type":"uint256","indexed":false,"internalType":"uint256"}],"anonymous":false},{"type":"event","name":"DepartmentCreated","inputs":[{"name":"departmentId","type":"uint256","indexed":true,"internalType":"uint256"},{"name":"name","type":"string","indexed":false,"internalType":"string"},{"name":"budget","type":"uint256","indexed":false,"internalType":"uint256"},{"name":"manager","type":"address","indexed":false,"internalType":"address"}],"anonymous":false},{"type":"event","name":"DepartmentDeactivated","inputs":[{"name":"departmentId","type":"uint256","indexed":true,"internalType":"uint256"}],"anonymous":false},{"type":"event","name":"EmployeeAssigned","inputs":[{"name":"employee","type":"address","indexed":true,"internalType":"address"},{"name":"departmentId","type":"uint256","indexed":true,"internalType":"uint256"}],"anonymous":false},{"type":"event","name":"ExpenseRecorded","inputs":[{"name":"departmentId","type":"uint256","indexed":true,"internalType":"uint256"},{"name":"amount","type":"uint256","indexed":false,"internalType":"uint256"},{"name":"description","type":"string","indexed":false,"internalType":"string"}],"anonymous":false},{"type":"event","name":"FundRequested","inputs":[{"name":"requestId","type":"uint256","indexed":true,"internalType":"uint256"},{"name":"departmentId","type":"uint256","indexed":true,"internalType":"uint256"},{"name":"amount","type":"uint256","indexed":false,"internalType":"uint256"},{"name":"reason","type":"string","indexed":false,"internalType":"string"}],"anonymous":false},{"type":"event","name":"FundsTransferred","inputs":[{"name":"departmentId","type":"uint256","indexed":true,"internalType":"uint256"},{"name":"recipient","type":"address","indexed":true,"internalType":"address"},{"name":"amount","type":"uint256","indexed":false,"internalType":"uint256"}],"anonymous":false},{"type":"event","name":"RequestApproved","inputs":[{"name":"requestId","type":"uint256","indexed":true,"internalType":"uint256"},{"name":"approver","type":"address","indexed":true,"internalType":"address"}],"anonymous":false},{"type":"event","name":"RequestRejected","inputs":[{"name":"requestId","type":"uint256","indexed":true,"internalType":"uint256"},{"name":"rejector","type":"address","indexed":true,"internalType":"address"}],"anonymous":false}],"bytecode":{"object":"0x60808060405234602757600180546001600160a01b03191633179055612377908161002c8239f35b5f80fdfe608080604052600436101561001c575b50361561001a575f80fd5b005b5f3560e01c90816312065fe014611d075750806314c4b01514611c3f57806316e26dfb14611ae35780631d23e74b1461193957806321464bfe146117bf578063328fb5101461173a578063396151ec146116d45780633e413bee146116ac578063405affcb1461165a578063477886ac14611622578063513cac801461122057806358e9f12e146111905780635badbe4c1461117357806361d027b31461114c5780636e3fee3f146110db5780637575e0e81461103d5780637abf235014610ec95780637dfc64ca14610e5857806380a1f71214610cf757806380ee37fa14610c35578063965501c714610c0d57806398de8b8714610bd7578063a47051ca14610b9a578063aaa3cd4714610b7d578063b4c6e76514610af1578063c3077a7d14610a80578063cb146879146109fd578063e8a4aa1414610997578063e8a568fa1461067d578063eaeb60e3146105e1578063f0f4426014610564578063f25b3740146104f6578063f851a440146104ce5763fe58ae121461019e575f61000f565b346104ca5760603660031901126104ca5760043567ffffffffffffffff81116104ca576101cf903690600401611e72565b604435906001600160a01b03821682036104ca576101eb6122f2565b805115610495576102066001600160a01b03831615156121a4565b6005546040519161021683611dfb565b818352602083019381855260408401946024358652606085015f8152602435608087015260a086019560018060a01b038416875260c08101906001825260e0810192428452875f52600460205260405f20948251865551998a5167ffffffffffffffff81116104815761028c6001880154611eee565b9b601f8d11610439575b60209c508c90601f831160011461039c579461036f9997948c9d94847f8f16a01810b9a64dfbff7363c06187959c425466ec4450aa78aff0b7020038869d9b999560809560069a5f92610391575b50508160011b915f199060031b1c19161760018a01555b5160028901555160038801550151600486015590516005808601805493516001600160a81b03199094166001600160a01b03939093169290921792151560a01b60ff60a01b16929092179055905191909201555461035890612196565b600555604051928392606084526060840190611d95565b602435838901526001600160a01b0390911660408301520390a2604051908152f35b015190505f806102e4565b90600189015f52805f20915f5b601f19851681106104225750948c9d946001856080957f8f16a01810b9a64dfbff7363c06187959c425466ec4450aa78aff0b7020038869f9d9b979561036f9f9d9a60069c97601f1981161061040a575b505050811b0160018a01556102fb565b01515f1960f88460031b161c191690555f80806103fa565b91928f6001819286850151815501940192016103a9565b600188015f5260205f20601f830160051c81019d60208410610477575b601f0160051c019c5b8d811061046c5750610296565b5f815560010161045f565b909d508d90610456565b634e487b7160e01b5f52604160045260245ffd5b60405162461bcd60e51b815260206004820152600d60248201526c13985b59481c995c5d5a5c9959609a1b6044820152606490fd5b5f80fd5b346104ca575f3660031901126104ca576001546040516001600160a01b039091168152602090f35b346104ca5761050436611de5565b905f52600860205260405f209081548110156104ca5761052391611fc6565b50805461056060018301549260028101549061054160038201611f26565b600560018060a01b036004840154169201549260405196879687611fdf565b0390f35b346104ca5760203660031901126104ca5761057d611dcf565b6105856122f2565b6001600160a01b031680156105a9576001600160601b0360a01b5f5416175f555f80f35b60405162461bcd60e51b815260206004820152601060248201526f496e76616c696420747265617375727960801b6044820152606490fd5b346104ca5760203660031901126104ca576004355f52600460205260405f20805461060e60018301611f26565b9160028101549060ff6003820154916004810154600660058301549201549361064b604051988998895261010060208a0152610100890190611d95565b9560408801526060870152608086015260018060a01b03811660a086015260a01c16151560c084015260e08301520390f35b346104ca5761068b36611eb8565b91610695816121e2565b6106a0821515612032565b825115610960576007549160405190610140820182811067ffffffffffffffff8211176104815760405283825260208201838152604083013381526060840190838252608085018881525f60a087015260c08601925f845260e08701925f8452426101008901525f610120890152895f52600660205260405f20958851875551600187015560018060a01b03905116600286019060018060a01b03166001600160601b0360a01b8254161790555160038501555180519067ffffffffffffffff8211610481576107736004860154611eee565b601f8111610918575b50918895939160209a95938b90601f831160011461087f5791807f05f8e8cd994c08aadd8c8a7a08a75cf502fc801344f767642ec83d721d4d1bd2999a9492600796945f92610874575b50508160011b915f199060031b1c19161760048601555b60a08301516005860180549351925162ff000090151560101b1661ff0093151560081b9390931691151560ff1662ffffff19909416939093171717905561010081015160068401556101200151910180546001600160a01b039092166001600160a01b031990921691909117905560075461085790612196565b6007556108696040519283928361217f565b0390a3604051908152f35b015190508e806107c6565b6004869a959493929a015f52895f20905f5b601f19841681106108fe5750916001917f05f8e8cd994c08aadd8c8a7a08a75cf502fc801344f767642ec83d721d4d1bd29a9b60079796959483601f198116106108e6575b505050811b0160048601556107dd565b01515f1960f88460031b161c191690558e80806108d6565b818c015183559a8e019a8d9a506001909201918e01610891565b600486015f5260205f20601f840160051c81019160208510610956575b601f0160051c01905b81811061094b575061077c565b5f815560010161093e565b9091508190610935565b60405162461bcd60e51b815260206004820152600f60248201526e1499585cdbdb881c995c5d5a5c9959608a1b6044820152606490fd5b346104ca5760203660031901126104ca576004356009548110156104ca576009548110156109e95760095f52600660205f20910201805461056060018301549260028101549061054160038201611f26565b634e487b7160e01b5f52603260045260245ffd5b346104ca5760203660031901126104ca57610a16611dcf565b610a1e6122f2565b6001600160a01b03168015610a44576001600160601b0360a01b60035416176003555f80f35b60405162461bcd60e51b8152602060048201526014602482015273496e76616c69642055534443206164647265737360601b6044820152606490fd5b346104ca5760403660031901126104ca57600435610a9c611db9565b90610aa56122f2565b610aae816121e2565b610ac26001600160a01b03831615156121a4565b5f90815260046020526040902060050180546001600160a01b0319166001600160a01b03909216919091179055005b346104ca5760203660031901126104ca57610b0a611dcf565b610b126122f2565b6001600160a01b03168015610b38576001600160601b0360a01b60025416176002555f80f35b60405162461bcd60e51b815260206004820152601760248201527f496e76616c696420706179726f6c6c206d616e616765720000000000000000006044820152606490fd5b346104ca575f3660031901126104ca576020600554604051908152f35b346104ca5760203660031901126104ca576001600160a01b03610bbb611dcf565b165f52600b602052602060ff60405f2054166040519015158152f35b346104ca5760203660031901126104ca57600435610bf4816121e2565b5f5260046020526020600460405f200154604051908152f35b346104ca575f3660031901126104ca576002546040516001600160a01b039091168152602090f35b346104ca5760203660031901126104ca576004355f52600660205260405f20805460018201549160018060a01b0360028201541660038201549160ff610cc4610c8060048401611f26565b600584015495600685015494600760018060a01b039101541695604051998a998a5260208a0152604089015260608801526101406080880152610140870190611d95565b93818116151560a0870152818160081c16151560c087015260101c16151560e08501526101008401526101208301520390f35b346104ca575f3660031901126104ca575f5f600754905b818110610e005750610d38610d228361201a565b92610d306040519485611e34565b80845261201a565b602083019190601f19013683375f905f5b818110610d94578385604051918291602083019060208452518091526040830191905f5b818110610d7b575050500390f35b8251845285945060209384019390920191600101610d6d565b805f52600660205260ff600560405f200154161580610de3575b610dbb575b600101610d49565b9184518110156109e957610ddb8184602060019460051b89010152612196565b929050610db3565b50805f52600660205260ff600560405f20015460081c1615610dae565b805f52600660205260ff600560405f200154161580610e3b575b610e27575b600101610d0e565b91610e33600191612196565b929050610e1f565b50805f52600660205260ff600560405f20015460081c1615610e1a565b346104ca575f3660031901126104ca575f5f600554905b818110610e8157602083604051908152f35b805f52600460205260ff600560405f20015460a01c16610ea4575b600101610e6f565b91610ec1600191845f526004602052600260405f200154906120c0565b929050610e9c565b346104ca5760403660031901126104ca57610ee2611dcf565b60243590610eef826121e2565b6001546001600160a01b031633148015611029575b15610ff3576001600160a01b03168015610fbb57815f52600460205260ff600560405f20015460a01c1615610f7e57805f52600a6020528160405f2055805f52600b60205260405f20600160ff198254161790557f54c77d240aeb64b731379d146f3ad1e85499a0ae0a151b11c49bc7bec58db5de5f80a3005b60405162461bcd60e51b81526020600482015260156024820152744465706172746d656e74206e6f742061637469766560581b6044820152606490fd5b60405162461bcd60e51b815260206004820152601060248201526f496e76616c696420656d706c6f79656560801b6044820152606490fd5b60405162461bcd60e51b815260206004820152600e60248201526d139bdd08185d5d1a1bdc9a5e995960921b6044820152606490fd5b506002546001600160a01b03163314610f04565b346104ca5760203660031901126104ca576001600160a01b0361105e611dcf565b16805f52600b60205260ff60405f2054161561108a575f52600a602052602060405f2054604051908152f35b60405162461bcd60e51b815260206004820152602360248201527f456d706c6f796565206e6f742061737369676e656420746f206465706172746d604482015262195b9d60ea1b6064820152608490fd5b346104ca575f3660031901126104ca575f5f600554905b81811061110457602083604051908152f35b805f52600460205260ff600560405f20015460a01c16611127575b6001016110f2565b91611144600191845f526004602052600360405f200154906120c0565b92905061111f565b346104ca575f3660031901126104ca575f546040516001600160a01b039091168152602090f35b346104ca575f3660031901126104ca576020600754604051908152f35b346104ca5760203660031901126104ca576004356111ac6122f2565b6111b960075482106120ee565b805f526006602052600560405f2001610100815460ff81161580611211575b6111e190612133565b61ff00191617905533907f490ad67e4c8b3b9c1d11dfcd7f02e155190b8f6feff3a9d9e9df3721f0f74e575f80a3005b50600881901c60ff16156111d8565b346104ca5761122e36611eb8565b6112398392936121e2565b6112428261228b565b61124d831515612032565b815f52600460205260405f2061128684600483019260038454916112738484101561207e565b0161127f8382546120c0565b90556120e1565b9055600954926040519361129985611e18565b8452602084019383855260408101948286526060820195848752608083019033825260a0840192428452875f52600860205260405f208054600160401b811015610481576112ec91600182018155611fc6565b61155157855181558151600182015582516002820155600381018a5180519067ffffffffffffffff82116104815781906113268454611eee565b601f81116115d2575b50602090601f831160011461156f575f92611564575b50508160011b915f199060031b1c19161790555b83516004820180546001600160a01b0319166001600160a01b03929092169190911790558451600590910155600954600160401b811015610481578060016113a692016009556009611fc6565b9590956115515751855551600185015551600284015560038301965196875167ffffffffffffffff8111610481576113de8254611eee565b601f811161150c575b506020601f82116001146114835790806005959493927f960cee7418379cb6f7889f9d98a98ebca71a5547cbe3da02e3c412f1c67fba639a9b5f92611478575b50508160011b915f199060031b1c19161790555b516004840180546001600160a01b0319166001600160a01b03929092169190911790555191015560405191829161147391908361217f565b0390a2005b015190508b80611427565b601f19821699835f52815f209a5f5b8181106114f457509a60019284926005989796957f960cee7418379cb6f7889f9d98a98ebca71a5547cbe3da02e3c412f1c67fba639d9e106114dc575b505050811b01905561143b565b01515f1960f88460031b161c191690558b80806114cf565b838301518d556001909c019b60209384019301611492565b825f5260205f20601f830160051c81019160208410611547575b601f0160051c01905b81811061153c57506113e7565b5f815560010161152f565b9091508190611526565b634e487b7160e01b5f525f60045260245ffd5b015190508d80611345565b5f8581528281209350601f198516905b8181106115ba57509084600195949392106115a2575b505050811b019055611359565b01515f1960f88460031b161c191690558d8080611595565b9293602060018192878601518155019501930161157f565b909150835f5260205f20601f840160051c81019160208510611618575b90601f859493920160051c01905b81811061160a575061132f565b5f81558493506001016115fd565b90915081906115ef565b346104ca5760203660031901126104ca576001600160a01b03611643611dcf565b165f52600a602052602060405f2054604051908152f35b346104ca57602061166a36611de5565b90611674816121e2565b5f526004825260405f209060ff600583015460a01c16918261169d575b50506040519015158152f35b60040154101590508280611691565b346104ca575f3660031901126104ca576003546040516001600160a01b039091168152602090f35b346104ca5760203660031901126104ca576004356116f06122f2565b6116f9816121e2565b5f818152600460205260408120600501805460ff60a01b191690557f6fb7612a293f02b652e051a94032c093dcb3edf44b3aaa8e5398647d2a0f6e6c9080a2005b346104ca5760207f871ed588425afa8e2438e966d1c8b18455f4ac5a6e6c72d7ed8b6ea6ebb0e82961176b36611de5565b6117769391936122f2565b61177f846121e2565b61178a811515612032565b835f5260048252600460405f20600281016117a68482546120c0565b9055016117b48282546120c0565b9055604051908152a2005b346104ca5760203660031901126104ca576004356117db6122f2565b6117e860075482106120ee565b805f52600660205260405f2090600582019081549060ff8216158061192a575b61181190612133565b60ff8260101c166118e5577f871ed588425afa8e2438e966d1c8b18455f4ac5a6e6c72d7ed8b6ea6ebb0e82992600160209360ff19161781556007850160018060a01b0333166001600160601b0360a01b825416179055600185019081545f5260048452600360405f20960195865461188f600283019182546120c0565b90556118a26004885492019182546120c0565b9055805462ff00001916620100001790556040519133907ff3dc904660a0ea05aba8dfa1e21fbc4fb2914be2a3029da7b0fdd3e5eee20ddb5f80a35493548152a2005b60405162461bcd60e51b815260206004820152601860248201527f5265717565737420616c726561647920657865637574656400000000000000006044820152606490fd5b50600882901c60ff1615611808565b346104ca5760603660031901126104ca57600435611955611db9565b90604435611962826121e2565b61196b8261228b565b6001600160a01b038316928315611aaa57611987821515612032565b825f52600460205260405f20906004820180546119a68582101561207e565b844710611a6557845f94938594936119cb83879695600388970161127f8382546120c0565b90555af13d15611a60573d6119df81611e56565b906119ed6040519283611e34565b81525f60203d92013e5b15611a295760207fe90ae330e5aefc2a73ddff0dd88bcaf8f4a0629d6553a2a85b22cac3d5f4a19e91604051908152a3005b60405162461bcd60e51b815260206004820152600f60248201526e151c985b9cd9995c8819985a5b1959608a1b6044820152606490fd5b6119f7565b60405162461bcd60e51b815260206004820152601d60248201527f496e73756666696369656e7420636f6e74726163742062616c616e63650000006044820152606490fd5b60405162461bcd60e51b8152602060048201526011602482015270125b9d985b1a59081c9958da5c1a595b9d607a1b6044820152606490fd5b346104ca5760203660031901126104ca576004355f52600860205260405f20805490611b0e8261201a565b91611b1c6040519384611e34565b8083526020830180925f5260205f205f915b838310611bdc57848660405191829160208301906020845251809152604083019060408160051b85010192915f905b828210611b6c57505050500390f35b919360019193955060208091603f198982030185528751908151815282820151838201526040820151604082015260a080611bb6606085015160c0606086015260c0850190611d95565b938780831b03608082015116608085015201519101529601920192018594939192611b5d565b60066020600192604051611bef81611e18565b85548152848601548382015260028601546040820152611c1160038701611f26565b6060820152848060a01b036004870154166080820152600586015460a0820152815201920192019190611b2e565b346104ca5760203660031901126104ca576004355f526004602052611ce960405f20604051611c6d81611dfb565b81548152611c7d60018301611f26565b91826020830152600281015491826040820152600382015480606083015260048301549081608084015260058401549260e0600660ff60018060a01b038716968760a086015260a01c161515968760c0850152015491015260405196879660c0885260c0880190611d95565b94602087015260408601526060850152608084015260a08301520390f35b346104ca575f3660031901126104ca576003546370a0823160e01b8252306004830152602090829060249082906001600160a01b03165afa8015611d8a575f90611d57575b602090604051908152f35b506020813d602011611d82575b81611d7160209383611e34565b810103126104ca5760209051611d4c565b3d9150611d64565b6040513d5f823e3d90fd5b805180835260209291819084018484015e5f828201840152601f01601f1916010190565b602435906001600160a01b03821682036104ca57565b600435906001600160a01b03821682036104ca57565b60409060031901126104ca576004359060243590565b610100810190811067ffffffffffffffff82111761048157604052565b60c0810190811067ffffffffffffffff82111761048157604052565b90601f8019910116810190811067ffffffffffffffff82111761048157604052565b67ffffffffffffffff811161048157601f01601f191660200190565b81601f820112156104ca57803590611e8982611e56565b92611e976040519485611e34565b828452602083830101116104ca57815f926020809301838601378301015290565b60606003198201126104ca5760043591602435916044359067ffffffffffffffff82116104ca57611eeb91600401611e72565b90565b90600182811c92168015611f1c575b6020831014611f0857565b634e487b7160e01b5f52602260045260245ffd5b91607f1691611efd565b9060405191825f825492611f3984611eee565b8084529360018116908115611fa45750600114611f60575b50611f5e92500383611e34565b565b90505f9291925260205f20905f915b818310611f88575050906020611f5e928201015f611f51565b6020919350806001915483858901015201910190918492611f6f565b905060209250611f5e94915060ff191682840152151560051b8201015f611f51565b80548210156109e9575f52600660205f20910201905f90565b926120099260a095929897969885526020850152604084015260c0606084015260c0830190611d95565b94600180841b031660808201520152565b67ffffffffffffffff81116104815760051b60200190565b1561203957565b60405162461bcd60e51b815260206004820152601d60248201527f416d6f756e74206d7573742062652067726561746572207468616e20300000006044820152606490fd5b1561208557565b60405162461bcd60e51b8152602060048201526013602482015272125b9cdd59999a58da595b9d08189d5919d95d606a1b6044820152606490fd5b919082018092116120cd57565b634e487b7160e01b5f52601160045260245ffd5b919082039182116120cd57565b156120f557565b60405162461bcd60e51b815260206004820152601660248201527514995c5d595cdd08191bd95cc81b9bdd08195e1a5cdd60521b6044820152606490fd5b1561213a57565b60405162461bcd60e51b815260206004820152601960248201527f5265717565737420616c72656164792070726f636573736564000000000000006044820152606490fd5b604090611eeb939281528160208201520190611d95565b5f1981146120cd5760010190565b156121ab57565b60405162461bcd60e51b815260206004820152600f60248201526e24b73b30b634b21036b0b730b3b2b960891b6044820152606490fd5b600554811015612246575f52600460205260ff600560405f20015460a01c161561220857565b60405162461bcd60e51b81526020600482015260166024820152754465706172746d656e7420697320696e61637469766560501b6044820152606490fd5b60405162461bcd60e51b815260206004820152601960248201527f4465706172746d656e7420646f6573206e6f74206578697374000000000000006044820152606490fd5b5f908152600460205260409020600501546001600160a01b031633036122ad57565b60405162461bcd60e51b815260206004820152601760248201527f4f6e6c79206465706172746d656e74206d616e616765720000000000000000006044820152606490fd5b6001546001600160a01b0316330361230657565b60405162461bcd60e51b815260206004820152601360248201527213db9b1e4818591b5a5b8818d85b8818d85b1b606a1b6044820152606490fdfea264697066735822122027475a35bb3694fc45a5ff3699eb423a43905aa57da8b2a1d9ead85a3db3062d64736f6c634300081e0033","linkReferences":{}},"methodIdentifiers":{"admin()":"f851a440","allExpenses(uint256)":"e8a4aa14","allocateFunds(uint256,uint256)":"328fb510","approveFundRequest(uint256)":"21464bfe","assignEmployeeToDepartment(address,uint256)":"7abf2350","checkBudgetAvailable(uint256,uint256)":"405affcb","createDepartment(string,uint256,address)":"fe58ae12","deactivateDepartment(uint256)":"396151ec","departmentCount()":"aaa3cd47","departmentExpenses(uint256,uint256)":"f25b3740","departments(uint256)":"eaeb60e3","employeeToDepartment(address)":"477886ac","fundRequests(uint256)":"80ee37fa","getBalance()":"12065fe0","getDepartmentBalance(uint256)":"98de8b87","getDepartmentDetails(uint256)":"14c4b015","getDepartmentExpenses(uint256)":"16e26dfb","getDepartmentForEmployee(address)":"7575e0e8","getPendingRequests()":"80a1f712","getTotalBudget()":"7dfc64ca","getTotalSpent()":"6e3fee3f","isEmployeeAssigned(address)":"a47051ca","payrollManager()":"965501c7","recordExpense(uint256,uint256,string)":"513cac80","rejectFundRequest(uint256)":"58e9f12e","requestCount()":"5badbe4c","requestFunds(uint256,uint256,string)":"e8a568fa","setPayrollManager(address)":"b4c6e765","setTreasury(address)":"f0f44260","setUsdc(address)":"cb146879","transferFunds(uint256,address,uint256)":"1d23e74b","treasury()":"61d027b3","updateDepartmentManager(uint256,address)":"c3077a7d","usdc()":"3e413bee"},"id":0}