{"abi":[{"type":"constructor","inputs":[],"stateMutability":"nonpayable"},{"type":"function","name":"ADMIN_ROLE","inputs":[],"outputs":[{"name":"","type":"bytes32","internalType":"bytes32"}],"stateMutability":"view"},{"type":"function","name":"COMPLIANCE_OFFICER_ROLE","inputs":[],"outputs":[{"name":"","type":"bytes32","internalType":"bytes32"}],"stateMutability":"view"},{"type":"function","name":"DEFAULT_ADMIN_ROLE","inputs":[],"outputs":[{"name":"","type":"bytes32","internalType":"bytes32"}],"stateMutability":"view"},{"type":"function","name":"blacklistAddress","inputs":[{"name":"account","type":"address","internalType":"address"},{"name":"reason","type":"string","internalType":"string"}],"outputs":[],"stateMutability":"nonpayable"},{"type":"function","name":"blacklistedAddresses","inputs":[{"name":"","type":"address","internalType":"address"}],"outputs":[{"name":"","type":"bool","internalType":"bool"}],"stateMutability":"view"},{"type":"function","name":"entries","inputs":[{"name":"","type":"uint256","internalType":"uint256"}],"outputs":[{"name":"id","type":"uint256","internalType":"uint256"},{"name":"transactionHash","type":"bytes32","internalType":"bytes32"},{"name":"contractAddress","type":"address","internalType":"address"},{"name":"from","type":"address","internalType":"address"},{"name":"to","type":"address","internalType":"address"},{"name":"amount","type":"uint256","internalType":"uint256"},{"name":"category","type":"uint8","internalType":"enum ComplianceTracker.TransactionCategory"},{"name":"riskLevel","type":"uint8","internalType":"enum ComplianceTracker.RiskLevel"},{"name":"description","type":"string","internalType":"string"},{"name":"purpose","type":"string","internalType":"string"},{"name":"jurisdiction","type":"string","internalType":"string"},{"name":"timestamp","type":"uint256","internalType":"uint256"},{"name":"recordedBy","type":"address","internalType":"address"},{"name":"flagged","type":"bool","internalType":"bool"},{"name":"flagReason","type":"string","internalType":"string"},{"name":"reviewed","type":"bool","internalType":"bool"},{"name":"reviewedBy","type":"address","internalType":"address"},{"name":"reviewedAt","type":"uint256","internalType":"uint256"},{"name":"reviewNotes","type":"string","internalType":"string"}],"stateMutability":"view"},{"type":"function","name":"entriesByCategory","inputs":[{"name":"","type":"uint8","internalType":"enum ComplianceTracker.TransactionCategory"},{"name":"","type":"uint256","internalType":"uint256"}],"outputs":[{"name":"","type":"uint256","internalType":"uint256"}],"stateMutability":"view"},{"type":"function","name":"entriesByContract","inputs":[{"name":"","type":"address","internalType":"address"},{"name":"","type":"uint256","internalType":"uint256"}],"outputs":[{"name":"","type":"uint256","internalType":"uint256"}],"stateMutability":"view"},{"type":"function","name":"entryCount","inputs":[],"outputs":[{"name":"","type":"uint256","internalType":"uint256"}],"stateMutability":"view"},{"type":"function","name":"flagEntry","inputs":[{"name":"entryId","type":"uint256","internalType":"uint256"},{"name":"reason","type":"string","internalType":"string"}],"outputs":[],"stateMutability":"nonpayable"},{"type":"function","name":"getComplianceReport","inputs":[{"name":"startTime","type":"uint256","internalType":"uint256"},{"name":"endTime","type":"uint256","internalType":"uint256"}],"outputs":[{"name":"totalTransactions","type":"uint256","internalType":"uint256"},{"name":"totalAmount","type":"uint256","internalType":"uint256"},{"name":"flaggedCount","type":"uint256","internalType":"uint256"},{"name":"highRiskCount","type":"uint256","internalType":"uint256"},{"name":"categoryBreakdown","type":"uint256[10]","internalType":"uint256[10]"}],"stateMutability":"view"},{"type":"function","name":"getEntriesByAmountRange","inputs":[{"name":"minAmount","type":"uint256","internalType":"uint256"},{"name":"maxAmount","type":"uint256","internalType":"uint256"}],"outputs":[{"name":"","type":"uint256[]","internalType":"uint256[]"}],"stateMutability":"view"},{"type":"function","name":"getEntriesByCategory","inputs":[{"name":"category","type":"uint8","internalType":"enum ComplianceTracker.TransactionCategory"}],"outputs":[{"name":"","type":"uint256[]","internalType":"uint256[]"}],"stateMutability":"view"},{"type":"function","name":"getEntriesByContract","inputs":[{"name":"contractAddress","type":"address","internalType":"address"}],"outputs":[{"name":"","type":"uint256[]","internalType":"uint256[]"}],"stateMutability":"view"},{"type":"function","name":"getEntriesByDateRange","inputs":[{"name":"startTime","type":"uint256","internalType":"uint256"},{"name":"endTime","type":"uint256","internalType":"uint256"}],"outputs":[{"name":"","type":"uint256[]","internalType":"uint256[]"}],"stateMutability":"view"},{"type":"function","name":"getEntry","inputs":[{"name":"entryId","type":"uint256","internalType":"uint256"}],"outputs":[{"name":"transactionHash","type":"bytes32","internalType":"bytes32"},{"name":"contractAddress","type":"address","internalType":"address"},{"name":"from","type":"address","internalType":"address"},{"name":"to","type":"address","internalType":"address"},{"name":"amount","type":"uint256","internalType":"uint256"},{"name":"category","type":"uint8","internalType":"enum ComplianceTracker.TransactionCategory"},{"name":"riskLevel","type":"uint8","internalType":"enum ComplianceTracker.RiskLevel"},{"name":"description","type":"string","internalType":"string"},{"name":"flagged","type":"bool","internalType":"bool"},{"name":"reviewed","type":"bool","internalType":"bool"}],"stateMutability":"view"},{"type":"function","name":"getFlaggedEntries","inputs":[],"outputs":[{"name":"","type":"uint256[]","internalType":"uint256[]"}],"stateMutability":"view"},{"type":"function","name":"getRoleAdmin","inputs":[{"name":"role","type":"bytes32","internalType":"bytes32"}],"outputs":[{"name":"","type":"bytes32","internalType":"bytes32"}],"stateMutability":"view"},{"type":"function","name":"grantRole","inputs":[{"name":"role","type":"bytes32","internalType":"bytes32"},{"name":"account","type":"address","internalType":"address"}],"outputs":[],"stateMutability":"nonpayable"},{"type":"function","name":"hasRole","inputs":[{"name":"role","type":"bytes32","internalType":"bytes32"},{"name":"account","type":"address","internalType":"address"}],"outputs":[{"name":"","type":"bool","internalType":"bool"}],"stateMutability":"view"},{"type":"function","name":"highRiskThreshold","inputs":[],"outputs":[{"name":"","type":"uint256","internalType":"uint256"}],"stateMutability":"view"},{"type":"function","name":"pause","inputs":[],"outputs":[],"stateMutability":"nonpayable"},{"type":"function","name":"paused","inputs":[],"outputs":[{"name":"","type":"bool","internalType":"bool"}],"stateMutability":"view"},{"type":"function","name":"recordEntry","inputs":[{"name":"transactionHash","type":"bytes32","internalType":"bytes32"},{"name":"contractAddress","type":"address","internalType":"address"},{"name":"from","type":"address","internalType":"address"},{"name":"to","type":"address","internalType":"address"},{"name":"amount","type":"uint256","internalType":"uint256"},{"name":"category","type":"uint8","internalType":"enum ComplianceTracker.TransactionCategory"},{"name":"description","type":"string","internalType":"string"},{"name":"purpose","type":"string","internalType":"string"},{"name":"jurisdiction","type":"string","internalType":"string"}],"outputs":[{"name":"","type":"uint256","internalType":"uint256"}],"stateMutability":"nonpayable"},{"type":"function","name":"renounceRole","inputs":[{"name":"role","type":"bytes32","internalType":"bytes32"},{"name":"callerConfirmation","type":"address","internalType":"address"}],"outputs":[],"stateMutability":"nonpayable"},{"type":"function","name":"restrictJurisdiction","inputs":[{"name":"jurisdiction","type":"string","internalType":"string"}],"outputs":[],"stateMutability":"nonpayable"},{"type":"function","name":"restrictedJurisdictions","inputs":[{"name":"","type":"string","internalType":"string"}],"outputs":[{"name":"","type":"bool","internalType":"bool"}],"stateMutability":"view"},{"type":"function","name":"reviewEntry","inputs":[{"name":"entryId","type":"uint256","internalType":"uint256"},{"name":"approved","type":"bool","internalType":"bool"},{"name":"notes","type":"string","internalType":"string"}],"outputs":[],"stateMutability":"nonpayable"},{"type":"function","name":"revokeRole","inputs":[{"name":"role","type":"bytes32","internalType":"bytes32"},{"name":"account","type":"address","internalType":"address"}],"outputs":[],"stateMutability":"nonpayable"},{"type":"function","name":"setHighRiskThreshold","inputs":[{"name":"newThreshold","type":"uint256","internalType":"uint256"}],"outputs":[],"stateMutability":"nonpayable"},{"type":"function","name":"supportsInterface","inputs":[{"name":"interfaceId","type":"bytes4","internalType":"bytes4"}],"outputs":[{"name":"","type":"bool","internalType":"bool"}],"stateMutability":"view"},{"type":"function","name":"transactionHashToEntry","inputs":[{"name":"","type":"bytes32","internalType":"bytes32"}],"outputs":[{"name":"","type":"uint256","internalType":"uint256"}],"stateMutability":"view"},{"type":"function","name":"unpause","inputs":[],"outputs":[],"stateMutability":"nonpayable"},{"type":"function","name":"unrestrictJurisdiction","inputs":[{"name":"jurisdiction","type":"string","internalType":"string"}],"outputs":[],"stateMutability":"nonpayable"},{"type":"function","name":"updateEntry","inputs":[{"name":"entryId","type":"uint256","internalType":"uint256"},{"name":"description","type":"string","internalType":"string"},{"name":"purpose","type":"string","internalType":"string"},{"name":"tags","type":"bytes32[]","internalType":"bytes32[]"},{"name":"attachments","type":"string[]","internalType":"string[]"}],"outputs":[],"stateMutability":"nonpayable"},{"type":"function","name":"whitelistAddress","inputs":[{"name":"account","type":"address","internalType":"address"}],"outputs":[],"stateMutability":"nonpayable"},{"type":"event","name":"AddressBlacklisted","inputs":[{"name":"account","type":"address","indexed":true,"internalType":"address"},{"name":"reason","type":"string","indexed":false,"internalType":"string"}],"anonymous":false},{"type":"event","name":"AddressWhitelisted","inputs":[{"name":"account","type":"address","indexed":true,"internalType":"address"}],"anonymous":false},{"type":"event","name":"EntryFlagged","inputs":[{"name":"entryId","type":"uint256","indexed":true,"internalType":"uint256"},{"name":"reason","type":"string","indexed":false,"internalType":"string"},{"name":"flaggedBy","type":"address","indexed":false,"internalType":"address"}],"anonymous":false},{"type":"event","name":"EntryRecorded","inputs":[{"name":"entryId","type":"uint256","indexed":true,"internalType":"uint256"},{"name":"transactionHash","type":"bytes32","indexed":true,"internalType":"bytes32"},{"name":"contractAddress","type":"address","indexed":true,"internalType":"address"},{"name":"category","type":"uint8","indexed":false,"internalType":"enum ComplianceTracker.TransactionCategory"},{"name":"amount","type":"uint256","indexed":false,"internalType":"uint256"}],"anonymous":false},{"type":"event","name":"EntryReviewed","inputs":[{"name":"entryId","type":"uint256","indexed":true,"internalType":"uint256"},{"name":"reviewer","type":"address","indexed":true,"internalType":"address"},{"name":"approved","type":"bool","indexed":false,"internalType":"bool"}],"anonymous":false},{"type":"event","name":"EntryUpdated","inputs":[{"name":"entryId","type":"uint256","indexed":true,"internalType":"uint256"}],"anonymous":false},{"type":"event","name":"Paused","inputs":[{"name":"account","type":"address","indexed":false,"internalType":"address"}],"anonymous":false},{"type":"event","name":"PolicyUpdated","inputs":[{"name":"policyType","type":"string","indexed":false,"internalType":"string"},{"name":"details","type":"string","indexed":false,"internalType":"string"}],"anonymous":false},{"type":"event","name":"RoleAdminChanged","inputs":[{"name":"role","type":"bytes32","indexed":true,"internalType":"bytes32"},{"name":"previousAdminRole","type":"bytes32","indexed":true,"internalType":"bytes32"},{"name":"newAdminRole","type":"bytes32","indexed":true,"internalType":"bytes32"}],"anonymous":false},{"type":"event","name":"RoleGranted","inputs":[{"name":"role","type":"bytes32","indexed":true,"internalType":"bytes32"},{"name":"account","type":"address","indexed":true,"internalType":"address"},{"name":"sender","type":"address","indexed":true,"internalType":"address"}],"anonymous":false},{"type":"event","name":"RoleRevoked","inputs":[{"name":"role","type":"bytes32","indexed":true,"internalType":"bytes32"},{"name":"account","type":"address","indexed":true,"internalType":"address"},{"name":"sender","type":"address","indexed":true,"internalType":"address"}],"anonymous":false},{"type":"event","name":"Unpaused","inputs":[{"name":"account","type":"address","indexed":false,"internalType":"address"}],"anonymous":false},{"type":"error","name":"AccessControlBadConfirmation","inputs":[]},{"type":"error","name":"AccessControlUnauthorizedAccount","inputs":[{"name":"account","type":"address","internalType":"address"},{"name":"neededRole","type":"bytes32","internalType":"bytes32"}]},{"type":"error","name":"EnforcedPause","inputs":[]},{"type":"error","name":"ExpectedPause","inputs":[]}],"bytecode":{"object":"0x60806040523461003f57640ba43b740060075561001b33610043565b50610025336100b9565b5061002f3361014c565b506040516128aa90816101e08239f35b5f80fd5b6001600160a01b0381165f9081525f516020612aea5f395f51905f52602052604090205460ff166100b4576001600160a01b03165f8181525f516020612aea5f395f51905f5260205260408120805460ff191660011790553391905f516020612a8a5f395f51905f528180a4600190565b505f90565b6001600160a01b0381165f9081525f516020612aaa5f395f51905f52602052604090205460ff166100b4576001600160a01b03165f8181525f516020612aaa5f395f51905f5260205260408120805460ff191660011790553391907fa49807205ce4d355092ef5a8a18f56e8913cf4a201fbe287825b095693c21775905f516020612a8a5f395f51905f529080a4600190565b6001600160a01b0381165f9081525f516020612aca5f395f51905f52602052604090205460ff166100b4576001600160a01b03165f8181525f516020612aca5f395f51905f5260205260408120805460ff191660011790553391907fb6f0283bd1ed00c6aa7e988a7516070240f3610a34d167391359b648eb37cefc905f516020612a8a5f395f51905f529080a460019056fe60a06040526004361015610011575f80fd5b5f3560e01c8063019be6fe146120b257806301ffc9a71461205c57806303d3918814611f645780630cbb0f8314611f47578063198596b514611f0d578063248a9ca314611edb5780632d6df74414611e145780632da3426714611da95780632f2ff15d14611d6c57806336568abe14611d285780633979186114611b8d5780633f4ba83a14611b2757806340bd47a21461198b57806341566585146119265780634824bd5a146111dc57806351f4f9fa146111b2578063551bece6146111585780635c975abb1461113657806371f8fa041461109857806375b238fc1461105e5780637a02c8fe14610fc757806381e1b65814610e965780638456cb5914610e2d57806391d1485414610de55780639f6d4f5214610d1c578063a1c5777814610cff578063a217fddf14610ce5578063a695442114610c9c578063ac0b866914610ba2578063b30906d414610966578063b635457d146103f9578063bae78d7b146102f9578063d0972c7f146102ac578063d547741f14610268578063d5749d421461022b5763fd922235146101a5575f80fd5b34610227576020366003190112610227576001600160a01b036101c6612303565b165f52600560205260405f206040519081602082549182815201915f5260205f20905f5b8181106102115761020d8561020181870382612277565b6040519182918261223e565b0390f35b82548452602090930192600192830192016101ea565b5f80fd5b34610227576020366003190112610227576001600160a01b0361024c612303565b165f526008602052602060ff60405f2054166040519015158152f35b34610227576040366003190112610227576102aa6004356102876122ed565b906102a56102a0825f525f602052600160405f20015490565b6126bd565b61277d565b005b3461022757604036600319011261022757600435600a811015610227576102d560243591612450565b8054821015610227576020916102ea91612319565b90549060031b1c604051908152f35b346102275760203660031901126102275760043561031a600254821061250d565b5f52600360205260405f20600181015460018060a01b036002830154169160018060a01b03600382015416906103e460076103d160018060a01b03600485015416600585015460068601549160ff600d88015460a01c169761039560ff600f8a0154169861038e604051809981930161237a565b0387612277565b6040519a8b9a8b5260208b015260408a0152606089015260808801526103c160a0880160ff83166123fb565b60ff60c088019160081c16612408565b61014060e0860152610140850190612415565b91151561010084015215156101208301520390f35b346102275760a0366003190112610227576004356024356001600160401b0381116102275761042c903690600401612298565b6044356001600160401b0381116102275761044b903690600401612298565b906064356001600160401b038111610227573660238201121561022757806004013561047681612439565b916104846040519384612277565b818352602083016024819360051b8301019136831161022757602401905b82821061095657505050608435916001600160401b0383116102275736602384011215610227578260040135946104d886612439565b936104e66040519586612277565b86855260208501906024829860051b820101903682116102275760248101925b828410610927575050505061051961264e565b610526600254881061250d565b865f52600360205260405f209480518061086b575b505080518061079e575b5050519081610721575b5050519081610580575b837f15b7683d0af4101e250a26b1abd5efcbdd1b3ece5753a2b6827aad88666003335f80a2005b600b0191600160401b82116106965782548284558083106106aa575b50915f5260205f20915f905b8282106105b55750610559565b80518051906001600160401b038211610696576105dc826105d68854612342565b88612566565b602090601f831160011461062d5792610613836001959460209487965f92610622575b50508160011b915f199060031b1c19161790565b87555b019401910190926105a8565b015190508b806105ff565b90601f19831691875f52815f20925f5b81811061067e5750936020936001969387969383889510610666575b505050811b018755610616565b01515f1960f88460031b161c191690558a8080610659565b9293602060018192878601518155019501930161063d565b634e487b7160e01b5f52604160045260245ffd5b835f528260205f2091820191015b8181106106c5575061059c565b806106d260019254612342565b806106df575b50016106b8565b601f811183146106f457505f81555b876106d8565b61071090825f5283601f60205f20920160051c82019101612550565b805f525f60208120818355556106ee565b600a8401906001600160401b03831161069657600160401b8311610696578154838355808410610778575b50905f5260205f205f5b83811061076457505061054f565b600190602084519401938184015501610756565b825f528360205f2091820191015b818110610793575061074c565b5f8155600101610786565b60088601916001600160401b038211610696576107c5826107bf8554612342565b85612566565b602090601f8311600114610808576107f392915f91836107fd5750508160011b915f199060031b1c19161790565b90555b8680610545565b015190508a806105ff565b90601f19831691845f52815f20925f5b818110610853575090846001959493921061083b575b505050811b0190556107f6565b01515f1960f88460031b161c1916905589808061082e565b92936020600181928786015181550195019301610818565b60078701916001600160401b0382116106965761088c826107bf8554612342565b602090601f83116001146108c4576108ba92915f91836106225750508160011b915f199060031b1c19161790565b90555b878061053b565b90601f19831691845f52815f20925f5b81811061090f57509084600195949392106108f7575b505050811b0190556108bd565b01515f1960f88460031b161c191690558a80806108ea565b929360206001819287860151815501950193016108d4565b83356001600160401b0381116102275760209161094b839260243691870101612298565b815201930192610506565b81358152602091820191016104a2565b34610227576020366003190112610227576004355f52600360205260405f208080546001820154600160a01b60019003600284015416600160a01b6001900360038501541690600160a01b600190036004860154166005860154600687015460405190818060078b01906109d99161237a565b036109e49083612277565b60405192836109f68160088d0161237a565b03610a019085612277565b6040519485610a138160098e0161237a565b03610a1e9087612277565b600c8b015497600d8c0154976040519a8d8c8080600e840190610a409161237a565b03610a4a91612277565b600f01549e601001549c6040519e8f80601181930190610a699161237a565b03610a7391612277565b604051608052608051526080516020015260805160400152608051606001526080516080015260805160a0015260805160c00160ff821690610ab4916123fb565b60805160e0019060081c60ff1690610acb91612408565b60805161010001610260905260805161026001610ae791612415565b60805181036080516101200152610afd91612415565b60805181036080516101400152610b1391612415565b916080516101600152600160a01b600190038116608051610180015260a01c60ff1615156080516101a0015260805181036080516101c00152610b5591612415565b9260ff811615156080516101e00152600160a01b600190039060081c16608051610200015260805161022001526080518203608051610240015260805191610b9c91612415565b03608051f35b34610227575f366003190112610227576002545f805b828110610c455750610bc9906124c7565b905f5f5b828110610be2576040518061020d868261223e565b805f52600360205260ff600d60405f20015460a01c1680610c2b575b610c0b575b600101610bcd565b90610c238183610c1d600194886124f9565b526124a8565b919050610c03565b50805f52600360205260ff600f60405f2001541615610bfe565b805f52600360205260ff600d60405f20015460a01c1680610c82575b610c6e575b600101610bb8565b90610c7a6001916124a8565b919050610c66565b50805f52600360205260ff600f60405f2001541615610c61565b3461022757604036600319011261022757610cb5612303565b6001600160a01b03165f90815260056020526040902080546024359190821015610227576020916102ea91612319565b34610227575f3660031901126102275760206040515f8152f35b34610227575f366003190112610227576020600754604051908152f35b34610227576020366003190112610227576004356001600160401b03811161022757610de0610d707fa8c34721529318bd3455ddf106c90d19c41219628422a7b44a24e4e258606d37923690600401612298565b610d786125df565b604051602081835180838601835e8101600981520301902060ff19815416905560405191829160408352601960408401527f4a5552495344494354494f4e5f554e52455354524943544544000000000000006060840152608060208401526080830190612415565b0390a1005b3461022757604036600319011261022757610dfe6122ed565b6004355f525f60205260405f209060018060a01b03165f52602052602060ff60405f2054166040519015158152f35b34610227575f36600319011261022757610e456125df565b60015460ff8116610e875760019060ff1916176001557f62e78cea01bee320cd4e420270b5ea74000d11b0c9f74754ebdbfc544b05a2586020604051338152a1005b63d93c066560e01b5f5260045ffd5b3461022757610ea436612228565b9081811015610f8b57600254905f805b838110610f385750610ec5906124c7565b925f915f5b848110610edf576040518061020d888261223e565b805f52600360205281600560405f200154101580610f1f575b610f05575b600101610eca565b92610f178185610c1d6001948a6124f9565b939050610efd565b50805f52600360205282600560405f2001541115610ef8565b805f52600360205282600560405f200154101580610f72575b610f5e575b600101610eb4565b90610f6a6001916124a8565b919050610f56565b50805f52600360205284600560405f2001541115610f51565b60405162461bcd60e51b8152602060048201526014602482015273496e76616c696420616d6f756e742072616e676560601b6044820152606490fd5b3461022757602036600319011261022757610fe06125df565b6004356007557fa8c34721529318bd3455ddf106c90d19c41219628422a7b44a24e4e258606d3760c0604051604081526013604082015272121251d217d49254d2d7d512149154d213d311606a1b6060820152608060208201526011608082015270151a1c995cda1bdb19081d5c19185d1959607a1b60a0820152a1005b34610227575f3660031901126102275760206040517fa49807205ce4d355092ef5a8a18f56e8913cf4a201fbe287825b095693c217758152f35b34610227576040366003190112610227576110b1612303565b6024356001600160401b038111610227576111316110f47fddbfcbca8a6ec25cc3e99e3a7ddc04420eaa6749c91bffcd405e0c3ecc42d9f4923690600401612298565b926110fd6125df565b60018060a01b031692835f52600860205260405f20600160ff19825416179055604051918291602083526020830190612415565b0390a2005b34610227575f36600319011261022757602060ff600154166040519015158152f35b34610227576020366003190112610227576004356001600160401b0381116102275760ff60208061118e81943690600401612298565b604051928184925191829101835e8101600981520301902054166040519015158152f35b34610227576020366003190112610227576004355f526004602052602060405f2054604051908152f35b3461022757610120366003190112610227576004356111f96122ed565b60443591906001600160a01b038316830361022757606435926001600160a01b038416928385036102275760a43594608435600a8710156102275760c4356001600160401b03811161022757611253903690600401612298565b60e4356001600160401b03811161022757611272903690600401612298565b96610104356001600160401b03811161022757611293903690600401612298565b9161129c61264e565b85156118e157855f52600460205260405f20546118a557600254986112c08a6124a8565b600255895f52600360205260405f20978a89558760018a01556002890160018060a01b038b166001600160601b0360a01b825416179055600389019060018060a01b03166001600160601b0360a01b82541617905560048801836001600160601b0360a01b825416179055846005890155600688019160ff1983541660ff8d1617835560078901908051906001600160401b03821161069657611367826107bf8554612342565b602090601f83116001146118425761139592915f91836118375750508160011b915f199060031b1c19161790565b90555b805160088901916001600160401b038211610696576113bb826107bf8554612342565b602090601f83116001146117d4576113e992915f91836117c95750508160011b915f199060031b1c19161790565b90555b6009870183516001600160401b038111610696576114148161140e8454612342565b84612566565b6020601f8211600114611769579080611441925f9161175e575b508160011b915f199060031b1c19161790565b90555b42600c880155600d870180546001600160a01b031916331781559461146b908490866127fd565b90600482101561174a57805461ff001916600892831b61ff00161790819055901c60ff16600481101561174a5760ff9260209282600285941490811561173f575b506116b9575b5f52600882528360405f20541661164a575b604051928184925191829101835e8101600981520301902054166115d8575b60018601928387116115c457867fe3ed80775f2c14ebd7e35d175603577fbeadc9e5a48000db93b7bb079eb63a4b604060209a839960ff98865f5260048e52835f205560018060a01b031695865f5260058d5261154285845f206125ab565b6115548561154f84612450565b6125ab565b611560835180936123fb565b8c820152a45460a01c16611579575b5050604051908152f35b6115b57fcaab41a3fa9a3ee587407244b11ec9a3770f8ecb39faa336c76bfc04f33f3ac49160405191829160408352600e60408401910161237a565b33878301520390a2808361156f565b634e487b7160e01b5f52601160045260245ffd5b815460ff60a01b1916600160a01b178255600e840180546115f890612342565b601f811161162a575b507f52657374726963746564206a7572697364696374696f6e00000000000000002e90556114e3565b61164490825f52601f60205f20910160051c810190612550565b88611601565b600160a01b8460a01b19875416178655600e88016116688154612342565b601f811161169a575b507f526563697069656e7420697320626c61636b6c6973746564000000000000003090556114c4565b6116b390825f52601f855f20910160051c810190612550565b8c611671565b600160a01b8560a01b19885416178755600e89016116d78154612342565b601f811161171d575b50604781555f526234b7b760e91b6001845f207f4175746f2d666c61676765643a2048696768207269736b207472616e73616374815501556114b2565b61173990825f526002601f875f20920160051c82019101612550565b8d6116e0565b60039150148d6114ac565b634e487b7160e01b5f52602160045260245ffd5b90508601518e61142e565b601f19821690835f52805f20915f5b8181106117b157509083600194939210611799575b5050811b019055611444565b8701515f1960f88460031b161c191690558d8061178d565b9192602060018192868c015181550194019201611778565b015190508e806105ff565b90601f19831691845f52815f20925f5b81811061181f5750908460019594939210611807575b505050811b0190556113ec565b01515f1960f88460031b161c191690558d80806117fa565b929360206001819287860151815501950193016117e4565b015190508f806105ff565b90601f19831691845f52815f20925f5b81811061188d5750908460019594939210611875575b505050811b019055611398565b01515f1960f88460031b161c191690558e8080611868565b92936020600181928786015181550195019301611852565b60405162461bcd60e51b8152602060048201526014602482015273456e74727920616c72656164792065786973747360601b6044820152606490fd5b60405162461bcd60e51b815260206004820152601860248201527f496e76616c6964207472616e73616374696f6e206861736800000000000000006044820152606490fd5b346102275760203660031901126102275761193f612303565b6119476125df565b6001600160a01b03165f818152600860205260408120805460ff191690557f4f783c179409b4127238bc9c990bc99b9a651666a0d20b51d6c42849eb88466d9080a2005b34610227576060366003190112610227576004356024359081151591828103610227576044356001600160401b038111610227576119cd903690600401612298565b906119d661264e565b6119e3600254841061250d565b5f838152600360205260409020600f810180546001600160a81b0319163360081b610100600160a81b0316176001179055426010820155825190926011840191906001600160401b03821161069657611a40826107bf8554612342565b602090601f8311600114611ac457611a6e92915f9183611ab95750508160011b915f199060031b1c19161790565b90555b611aa5575b506040519182527f1495b235d7bee3135787a66edf25badbb0b0a4c5656b061dad1c8dd397d94a5a60203393a3005b600d01805460ff60a01b1916905582611a76565b0151905088806105ff565b90601f19831691845f52815f20925f5b818110611b0f5750908460019594939210611af7575b505050811b019055611a71565b01515f1960f88460031b161c19169055878080611aea565b92936020600181928786015181550195019301611ad4565b34610227575f36600319011261022757611b3f6125df565b60015460ff811615611b7e5760ff19166001557f5db9ee0a495bf2e6ff9c91a7834c1ba4fdd244a5e8aa4e537bd38aeae4b073aa6020604051338152a1005b638dfc202b60e01b5f5260045ffd5b34610227576040366003190112610227576004356024356001600160401b03811161022757611bc0903690600401612298565b90611bc961264e565b611bd6600254821061250d565b5f818152600360205260409020600d8101805460ff60a01b1916600160a01b17905582519290600e016001600160401b03841161069657611c2184611c1b8354612342565b83612566565b602093601f8111600114611ca25790611c7582611c8c94937fcaab41a3fa9a3ee587407244b11ec9a3770f8ecb39faa336c76bfc04f33f3ac496975f91611c9757508160011b915f199060031b1c19161790565b90555b604051918291604083526040830190612415565b3360208301520390a2005b90508401518861142e565b601f198116825f52855f20905f5b818110611d105750916001917fcaab41a3fa9a3ee587407244b11ec9a3770f8ecb39faa336c76bfc04f33f3ac4969782611c8c97969510611cf8575b5050811b019055611c78565b8501515f1960f88460031b161c191690558780611cec565b85880151835560209788019760019093019201611cb0565b3461022757604036600319011261022757611d416122ed565b336001600160a01b03821603611d5d576102aa9060043561277d565b63334bd91960e11b5f5260045ffd5b34610227576040366003190112610227576102aa600435611d8b6122ed565b90611da46102a0825f525f602052600160405f20015490565b6126f5565b3461022757602036600319011261022757600435600a81101561022757611dcf90612450565b6040519081602082549182815201915f5260205f20905f5b818110611dfe5761020d8561020181870382612277565b8254845260209093019260019283019201611de7565b34610227576020366003190112610227576004356001600160401b03811161022757610de0611e687fa8c34721529318bd3455ddf106c90d19c41219628422a7b44a24e4e258606d37923690600401612298565b611e706125df565b604051602081835180838601835e81016009815203019020600160ff1982541617905560405191829160408352601760408401527f4a5552495344494354494f4e5f524553545249435445440000000000000000006060840152608060208401526080830190612415565b34610227576020366003190112610227576020611f056004355f525f602052600160405f20015490565b604051908152f35b34610227575f3660031901126102275760206040517fb6f0283bd1ed00c6aa7e988a7516070240f3610a34d167391359b648eb37cefc8152f35b34610227575f366003190112610227576020600254604051908152f35b3461022757611f7236612228565b90611f7e828210612467565b600254905f805b8381106120095750611f96906124c7565b925f915f5b848110611fb0576040518061020d888261223e565b805f52600360205281600c60405f200154101580611ff0575b611fd6575b600101611f9b565b92611fe88185610c1d6001948a6124f9565b939050611fce565b50805f52600360205282600c60405f2001541115611fc9565b805f52600360205282600c60405f200154101580612043575b61202f575b600101611f85565b9061203b6001916124a8565b919050612027565b50805f52600360205284600c60405f2001541115612022565b346102275760203660031901126102275760043563ffffffff60e01b811680910361022757602090637965db0b60e01b81149081156120a1575b506040519015158152f35b6301ffc9a760e01b14905082612096565b34610227576120c036612228565b5f915f5f905f9261014094604051956120d98188612277565b3687376120e7818310612467565b600254915f5b8381106121385750505050604051948552602085015260408401526060830152608082015f905b600a8210612122576101c084f35b6020806001928551815201930191019091612114565b805f52600360205260405f20600c8101548484821015918261221d575b5050612165575b506001016120ed565b9498612170906124a8565b98600586015481018091116115c4579460ff600d82015460a01c16612209575b6006015460ff8160081c16600481101561174a57600281149081156121fe575b506121ea575b60ff1690600a82101561174a57816121e36121dc6121d66001958d6124b6565b516124a8565b918b6124b6565b529061215c565b966121f660ff916124a8565b9790506121b6565b60039150148b6121b0565b956122156006916124a8565b969050612190565b11159050848c612155565b6040906003190112610227576004359060243590565b60206040818301928281528451809452019201905f5b8181106122615750505090565b8251845260209384019390920191600101612254565b90601f801991011681019081106001600160401b0382111761069657604052565b81601f82011215610227578035906001600160401b03821161069657604051926122cc601f8401601f191660200185612277565b8284526020838301011161022757815f926020809301838601378301015290565b602435906001600160a01b038216820361022757565b600435906001600160a01b038216820361022757565b805482101561232e575f5260205f2001905f90565b634e487b7160e01b5f52603260045260245ffd5b90600182811c92168015612370575b602083101461235c57565b634e487b7160e01b5f52602260045260245ffd5b91607f1691612351565b5f929181549161238983612342565b80835292600181169081156123de57506001146123a557505050565b5f9081526020812093945091925b8383106123c4575060209250010190565b6001816020929493945483858701015201910191906123b3565b915050602093945060ff929192191683830152151560051b010190565b90600a82101561174a5752565b90600482101561174a5752565b805180835260209291819084018484015e5f828201840152601f01601f1916010190565b6001600160401b0381116106965760051b60200190565b600a81101561174a575f52600660205260405f2090565b1561246e57565b60405162461bcd60e51b8152602060048201526012602482015271496e76616c696420646174652072616e676560701b6044820152606490fd5b5f1981146115c45760010190565b90600a81101561232e5760051b0190565b906124d182612439565b6124de6040519182612277565b82815280926124ef601f1991612439565b0190602036910137565b805182101561232e5760209160051b010190565b1561251457565b60405162461bcd60e51b8152602060048201526014602482015273115b9d1c9e48191bd95cc81b9bdd08195e1a5cdd60621b6044820152606490fd5b81811061255b575050565b5f8155600101612550565b9190601f811161257557505050565b61259f925f5260205f20906020601f840160051c830193106125a1575b601f0160051c0190612550565b565b9091508190612592565b8054600160401b811015610696576125c891600182018155612319565b819291549060031b91821b915f19901b1916179055565b335f9081527f7d7ffb7a348e1c6a02869081a26547b49160dd3df72d1d75a570eb9b698292ec602052604090205460ff161561261757565b63e2517d3f60e01b5f52336004527fa49807205ce4d355092ef5a8a18f56e8913cf4a201fbe287825b095693c2177560245260445ffd5b335f9081527f3a23f3a59d99cc05771291f7d14db8dc89910c5edd6302658701a433d05c7fc0602052604090205460ff161561268657565b63e2517d3f60e01b5f52336004527fb6f0283bd1ed00c6aa7e988a7516070240f3610a34d167391359b648eb37cefc60245260445ffd5b5f8181526020818152604080832033845290915290205460ff16156126df5750565b63e2517d3f60e01b5f523360045260245260445ffd5b5f818152602081815260408083206001600160a01b038616845290915290205460ff16612777575f818152602081815260408083206001600160a01b0395909516808452949091528120805460ff19166001179055339291907f2f8788117e7eff1d82e926ec794901d17c78024a50270940304540a733656f0d9080a4600190565b50505f90565b5f818152602081815260408083206001600160a01b038616845290915290205460ff1615612777575f818152602081815260408083206001600160a01b0395909516808452949091528120805460ff19169055339291907ff6391f5c32d9c69d2a47ea670b442974b53935d1edc7fd64eb21e047a839171b9080a4600190565b919060075483101561286c576001600160a01b03165f9081526008602052604090205460ff1661286557604051815160ff92602091839181908401835e81016009815203019020541661285f576402540be400111561285a575f90565b600190565b50600290565b5050600390565b50505060029056fea2646970667358221220c75600c9570b1e558cb58be43c1e03293b338c02991c7cb514253981204e014c64736f6c634300081e00332f8788117e7eff1d82e926ec794901d17c78024a50270940304540a733656f0d7d7ffb7a348e1c6a02869081a26547b49160dd3df72d1d75a570eb9b698292ec3a23f3a59d99cc05771291f7d14db8dc89910c5edd6302658701a433d05c7fc0ad3228b676f7d3cd4284a5443f17f1962b36e491b30a40b2405849e597ba5fb5","linkReferences":{}},"methodIdentifiers":{"ADMIN_ROLE()":"75b238fc","COMPLIANCE_OFFICER_ROLE()":"198596b5","DEFAULT_ADMIN_ROLE()":"a217fddf","blacklistAddress(address,string)":"71f8fa04","blacklistedAddresses(address)":"d5749d42","entries(uint256)":"b30906d4","entriesByCategory(uint8,uint256)":"d0972c7f","entriesByContract(address,uint256)":"a6954421","entryCount()":"0cbb0f83","flagEntry(uint256,string)":"39791861","getComplianceReport(uint256,uint256)":"019be6fe","getEntriesByAmountRange(uint256,uint256)":"81e1b658","getEntriesByCategory(uint8)":"2da34267","getEntriesByContract(address)":"fd922235","getEntriesByDateRange(uint256,uint256)":"03d39188","getEntry(uint256)":"bae78d7b","getFlaggedEntries()":"ac0b8669","getRoleAdmin(bytes32)":"248a9ca3","grantRole(bytes32,address)":"2f2ff15d","hasRole(bytes32,address)":"91d14854","highRiskThreshold()":"a1c57778","pause()":"8456cb59","paused()":"5c975abb","recordEntry(bytes32,address,address,address,uint256,uint8,string,string,string)":"4824bd5a","renounceRole(bytes32,address)":"36568abe","restrictJurisdiction(string)":"2d6df744","restrictedJurisdictions(string)":"551bece6","reviewEntry(uint256,bool,string)":"40bd47a2","revokeRole(bytes32,address)":"d547741f","setHighRiskThreshold(uint256)":"7a02c8fe","supportsInterface(bytes4)":"01ffc9a7","transactionHashToEntry(bytes32)":"51f4f9fa","unpause()":"3f4ba83a","unrestrictJurisdiction(string)":"9f6d4f52","updateEntry(uint256,string,string,bytes32[],string[])":"b635457d","whitelistAddress(address)":"41566585"},"id":1}