{"abi":[{"type":"constructor","inputs":[],"stateMutability":"nonpayable"},{"type":"receive","stateMutability":"payable"},{"type":"function","name":"activeEmployees","inputs":[],"outputs":[{"name":"","type":"uint256","internalType":"uint256"}],"stateMutability":"view"},{"type":"function","name":"addEmployee","inputs":[{"name":"_employee","type":"address","internalType":"address"},{"name":"_name","type":"string","internalType":"string"},{"name":"_salary","type":"uint256","internalType":"uint256"},{"name":"_frequency","type":"uint8","internalType":"enum PayrollManager.PaymentFrequency"},{"name":"_departmentId","type":"uint256","internalType":"uint256"}],"outputs":[],"stateMutability":"nonpayable"},{"type":"function","name":"admin","inputs":[],"outputs":[{"name":"","type":"address","internalType":"address"}],"stateMutability":"view"},{"type":"function","name":"budgetAllocator","inputs":[],"outputs":[{"name":"","type":"address","internalType":"address"}],"stateMutability":"view"},{"type":"function","name":"calculatePaymentAmount","inputs":[{"name":"_employee","type":"address","internalType":"address"}],"outputs":[{"name":"","type":"uint256","internalType":"uint256"}],"stateMutability":"view"},{"type":"function","name":"changeAdmin","inputs":[{"name":"_newAdmin","type":"address","internalType":"address"}],"outputs":[],"stateMutability":"nonpayable"},{"type":"function","name":"employeeList","inputs":[{"name":"","type":"uint256","internalType":"uint256"}],"outputs":[{"name":"","type":"address","internalType":"address"}],"stateMutability":"view"},{"type":"function","name":"employees","inputs":[{"name":"","type":"address","internalType":"address"}],"outputs":[{"name":"wallet","type":"address","internalType":"address"},{"name":"salary","type":"uint256","internalType":"uint256"},{"name":"frequency","type":"uint8","internalType":"enum PayrollManager.PaymentFrequency"},{"name":"lastPaymentTime","type":"uint256","internalType":"uint256"},{"name":"totalPaid","type":"uint256","internalType":"uint256"},{"name":"active","type":"bool","internalType":"bool"},{"name":"name","type":"string","internalType":"string"},{"name":"addedAt","type":"uint256","internalType":"uint256"},{"name":"departmentId","type":"uint256","internalType":"uint256"}],"stateMutability":"view"},{"type":"function","name":"getActiveEmployees","inputs":[],"outputs":[{"name":"","type":"address[]","internalType":"address[]"}],"stateMutability":"view"},{"type":"function","name":"getBalance","inputs":[],"outputs":[{"name":"","type":"uint256","internalType":"uint256"}],"stateMutability":"view"},{"type":"function","name":"getEmployeeDetails","inputs":[{"name":"_employee","type":"address","internalType":"address"}],"outputs":[{"name":"name","type":"string","internalType":"string"},{"name":"salary","type":"uint256","internalType":"uint256"},{"name":"frequency","type":"uint8","internalType":"enum PayrollManager.PaymentFrequency"},{"name":"lastPaymentTime","type":"uint256","internalType":"uint256"},{"name":"totalPaid","type":"uint256","internalType":"uint256"},{"name":"active","type":"bool","internalType":"bool"}],"stateMutability":"view"},{"type":"function","name":"getNextPaymentTime","inputs":[{"name":"employeeIndex","type":"uint256","internalType":"uint256"}],"outputs":[{"name":"","type":"uint256","internalType":"uint256"}],"stateMutability":"view"},{"type":"function","name":"getPaymentHistoryCount","inputs":[],"outputs":[{"name":"","type":"uint256","internalType":"uint256"}],"stateMutability":"view"},{"type":"function","name":"getPaymentInterval","inputs":[{"name":"_frequency","type":"uint8","internalType":"enum PayrollManager.PaymentFrequency"}],"outputs":[{"name":"","type":"uint256","internalType":"uint256"}],"stateMutability":"pure"},{"type":"function","name":"getTotalActivePayrollCost","inputs":[],"outputs":[{"name":"","type":"uint256","internalType":"uint256"}],"stateMutability":"view"},{"type":"function","name":"isPaymentDue","inputs":[{"name":"_employee","type":"address","internalType":"address"}],"outputs":[{"name":"","type":"bool","internalType":"bool"}],"stateMutability":"view"},{"type":"function","name":"paymentHistory","inputs":[{"name":"","type":"uint256","internalType":"uint256"}],"outputs":[{"name":"employee","type":"address","internalType":"address"},{"name":"amount","type":"uint256","internalType":"uint256"},{"name":"timestamp","type":"uint256","internalType":"uint256"},{"name":"paymentId","type":"uint256","internalType":"uint256"}],"stateMutability":"view"},{"type":"function","name":"processEmployeePayment","inputs":[{"name":"_employee","type":"address","internalType":"address"}],"outputs":[{"name":"","type":"bool","internalType":"bool"}],"stateMutability":"nonpayable"},{"type":"function","name":"processPayroll","inputs":[],"outputs":[{"name":"employeesPaid","type":"uint256","internalType":"uint256"},{"name":"totalPaid","type":"uint256","internalType":"uint256"}],"stateMutability":"nonpayable"},{"type":"function","name":"removeEmployee","inputs":[{"name":"_employee","type":"address","internalType":"address"}],"outputs":[],"stateMutability":"nonpayable"},{"type":"function","name":"setBudgetAllocator","inputs":[{"name":"_budgetAllocator","type":"address","internalType":"address"}],"outputs":[],"stateMutability":"nonpayable"},{"type":"function","name":"setTreasury","inputs":[{"name":"_treasury","type":"address","internalType":"address"}],"outputs":[],"stateMutability":"nonpayable"},{"type":"function","name":"setUsdc","inputs":[{"name":"_usdc","type":"address","internalType":"address"}],"outputs":[],"stateMutability":"nonpayable"},{"type":"function","name":"totalEmployees","inputs":[],"outputs":[{"name":"","type":"uint256","internalType":"uint256"}],"stateMutability":"view"},{"type":"function","name":"totalPaymentsMade","inputs":[],"outputs":[{"name":"","type":"uint256","internalType":"uint256"}],"stateMutability":"view"},{"type":"function","name":"totalPayrollCost","inputs":[],"outputs":[{"name":"","type":"uint256","internalType":"uint256"}],"stateMutability":"view"},{"type":"function","name":"treasury","inputs":[],"outputs":[{"name":"","type":"address","internalType":"address"}],"stateMutability":"view"},{"type":"function","name":"updateSalary","inputs":[{"name":"_employee","type":"address","internalType":"address"},{"name":"_newSalary","type":"uint256","internalType":"uint256"}],"outputs":[],"stateMutability":"nonpayable"},{"type":"function","name":"usdc","inputs":[],"outputs":[{"name":"","type":"address","internalType":"contract IERC20"}],"stateMutability":"view"},{"type":"event","name":"AdminChanged","inputs":[{"name":"oldAdmin","type":"address","indexed":true,"internalType":"address"},{"name":"newAdmin","type":"address","indexed":true,"internalType":"address"}],"anonymous":false},{"type":"event","name":"EmployeeAdded","inputs":[{"name":"employee","type":"address","indexed":true,"internalType":"address"},{"name":"name","type":"string","indexed":false,"internalType":"string"},{"name":"salary","type":"uint256","indexed":false,"internalType":"uint256"},{"name":"frequency","type":"uint8","indexed":false,"internalType":"enum PayrollManager.PaymentFrequency"}],"anonymous":false},{"type":"event","name":"EmployeeRemoved","inputs":[{"name":"employee","type":"address","indexed":true,"internalType":"address"}],"anonymous":false},{"type":"event","name":"PaymentProcessed","inputs":[{"name":"employee","type":"address","indexed":true,"internalType":"address"},{"name":"amount","type":"uint256","indexed":false,"internalType":"uint256"},{"name":"timestamp","type":"uint256","indexed":false,"internalType":"uint256"}],"anonymous":false},{"type":"event","name":"PayrollExecuted","inputs":[{"name":"employeesPaid","type":"uint256","indexed":false,"internalType":"uint256"},{"name":"totalAmount","type":"uint256","indexed":false,"internalType":"uint256"},{"name":"timestamp","type":"uint256","indexed":false,"internalType":"uint256"}],"anonymous":false},{"type":"event","name":"SalaryUpdated","inputs":[{"name":"employee","type":"address","indexed":true,"internalType":"address"},{"name":"oldSalary","type":"uint256","indexed":false,"internalType":"uint256"},{"name":"newSalary","type":"uint256","indexed":false,"internalType":"uint256"}],"anonymous":false}],"bytecode":{"object":"0x60808060405234602757600180546001600160a01b03191633179055611ccc908161002c8239f35b5f80fdfe608080604052600436101561001c575b50361561001a575f80fd5b005b5f3560e01c90816312065fe0146111c8575080631b756247146111ab5780631caafcf11461109a57806322003f101461100d5780633bd3961014610fe55780633e413bee14610fbd57806347e23df914610e9257806352b9b97314610e7557806361d027b314610e4e5780636a2baf4a14610dc55780636ace148814610d9d5780637234a1f91461029c578063774b253514610d7a57806386f195b814610d545780638bf32e8214610cba5780638f28397014610c1257806392b5883f14610bf557806397ad7e0214610bc85780639bd1798c14610620578063a4c1fd0814610530578063a5e047b8146104d3578063c3b2d07a14610491578063cb1468791461040e578063d06789471461034d578063d108177a146102b9578063d59c27331461029c578063ed23e09e14610210578063f0f44260146101935763f851a44014610167575f61000f565b3461018f575f36600319011261018f576001546040516001600160a01b039091168152602090f35b5f80fd5b3461018f57602036600319011261018f576101ac611256565b6101b4611809565b6001600160a01b031680156101d8576001600160601b0360a01b5f5416175f555f80f35b60405162461bcd60e51b815260206004820152601060248201526f496e76616c696420747265617375727960801b6044820152606490fd5b3461018f57602036600319011261018f57610229611256565b610231611809565b6001600160a01b03168015610257576001600160601b0360a01b60025416176002555f80f35b60405162461bcd60e51b815260206004820152601860248201527f496e76616c69642062756467657420616c6c6f6361746f7200000000000000006044820152606490fd5b3461018f575f36600319011261018f576020600954604051908152f35b3461018f57602036600319011261018f576102d2611256565b6102da611809565b6102e381611858565b6001600160a01b03165f818152600460205260409020600501805460ff191690556008548015610339575f19016008557fabae6e64cb4315875c29d42347a312f5e9fce4ab564e9722b43dd78d0751135a5f80a2005b634e487b7160e01b5f52601160045260245ffd5b3461018f57602036600319011261018f576001600160a01b0361036e611256565b165f52600460205260405f2060018060a01b0381541660018201549160ff6002820154166103fe6003830154600484015460ff600586015416906103b460068701611364565b926103da60086007890154980154966040519a8b9a8b5260208b015260408a0190611290565b60608801526080870152151560a086015261012060c086015261012085019061126c565b9160e08401526101008301520390f35b3461018f57602036600319011261018f57610427611256565b61042f611809565b6001600160a01b03168015610455576001600160601b0360a01b60035416176003555f80f35b60405162461bcd60e51b8152602060048201526014602482015273496e76616c69642055534443206164647265737360601b6044820152606490fd5b3461018f57602036600319011261018f5760043560055481101561018f576104ba602091611314565b905460405160039290921b1c6001600160a01b03168152f35b3461018f57602036600319011261018f5760043560065481101561018f576104fc6080916112f8565b5060018060a01b03815416906001810154906003600282015491015491604051938452602084015260408301526060820152f35b3461018f575f36600319011261018f575f80805b6005548110156105d15761055781611314565b905460039190911b1c6001600160a01b03165f8181526004602052604090206005015460ff16806105c2575b610591575b50600101610544565b806105b560019395946105b06105a96105bb956114bd565b80946118c1565b6114af565b936115a8565b9290610588565b506105cc8161169e565b610583565b50604091816105e7575b82519182526020820152f35b7f9234700c4ee633a8b3712373ae90e66a131269de823aa11e607eada5c2e76cdc606084518481528360208201524286820152a16105db565b3461018f5760a036600319011261018f57610639611256565b60243567ffffffffffffffff811161018f573660238201121561018f578060040135610664816112dc565b9161067260405193846112ba565b818352366024838301011161018f57815f9260246020930183860137830101526044359060643590600482101561018f57608435936106af611809565b6001600160a01b0316938415610b8357845f52600460205260ff600560405f20015416610b3e576106e1841515611410565b815115610b09576002545f9081906001600160a01b0316610703811515611776565b60405182602082019163405affcb60e01b8352866024820152896044820152604481526107316064826112ba565b51925af161073d6117c2565b81610aef575b5015610aaa576040516107558161129d565b858152602081018581526040820161076d8682611404565b606083015f8152608084015f815260a08501906001825260c086019288845260e08701944286526101008801968988528d5f52600460205260405f209860018060a01b039060018060a01b03905116166001600160601b0360a01b8a54161789555160018901556002880190516004811015610a965760ff80198354169116179055516003870155516004860155600585019051151560ff8019835416911617905560068401905180519067ffffffffffffffff821161097057610831835461132c565b601f8111610a51575b50602090601f83116001146109e45792825f989693899896936008968a926109d9575b50508160011b9189199060031b1c19161790555b5160078401555191015560018060a01b0360025416908260405160208101926307abf23560e41b84528a60248301526044820152604481526108b46064826112ba565b51925af16108c06117c2565b50156109845760055492600160401b8410156109705761096b61095b9361090e8660017f3e78ec9cd96253020392a0cd4ec1237434bc8f97ca62c9f874d4fcdde0bdc6749801600555611314565b81546001600160a01b0360039290921b91821b19169089901b179055600754610936906114af565b6007556109446008546114af565b60085560405194859460608652606086019061126c565b9260208501526040840190611290565b0390a2005b634e487b7160e01b5f52604160045260245ffd5b60405162461bcd60e51b815260206004820152602760248201527f4661696c656420746f2061737369676e20656d706c6f79656520746f20646570604482015266185c9d1b595b9d60ca1b6064820152608490fd5b015190508e8061085d565b90601f19831691845f52815f20925f5b818110610a395750935f9997949360089693600193838d9c9a9710610a21575b505050811b019055610871565b01518a1960f88460031b161c191690558e8080610a14565b929360206001819287860151815501950193016109f4565b835f5260205f20601f840160051c81019160208510610a8c575b601f0160051c01905b818110610a81575061083a565b5f8155600101610a74565b9091508190610a6b565b634e487b7160e01b5f52602160045260245ffd5b60405162461bcd60e51b815260206004820152601e60248201527f496e73756666696369656e74206465706172746d656e742062756467657400006044820152606490fd5b610b039150602080825183010191016117f1565b86610743565b60405162461bcd60e51b815260206004820152600d60248201526c13985b59481c995c5d5a5c9959609a1b6044820152606490fd5b60405162461bcd60e51b815260206004820152601760248201527f456d706c6f79656520616c7265616479206578697374730000000000000000006044820152606490fd5b60405162461bcd60e51b815260206004820152601860248201527f496e76616c696420656d706c6f796565206164647265737300000000000000006044820152606490fd5b3461018f57602036600319011261018f576020610beb610be6611256565b61169e565b6040519015158152f35b3461018f575f36600319011261018f576020600654604051908152f35b3461018f57602036600319011261018f57610c2b611256565b610c33611809565b6001600160a01b03168015610c8557600180546001600160a01b0319811683179091556001600160a01b03167f7e644d79422f17c01e4894b5f4f588d331ebfa28653d42ae832dc59e38c9798f5f80a3005b60405162461bcd60e51b815260206004820152600d60248201526c24b73b30b634b21030b236b4b760991b6044820152606490fd5b3461018f575f36600319011261018f575f5f600554905b818110610ce357602083604051908152f35b610cec81611314565b60018060a01b0391549060031b1c165f52600460205260ff600560405f20015416610d1a575b600101610cd1565b91610d4c600191610d2a85611314565b848060a01b0391549060031b1c165f5260046020528260405f200154906115a8565b929050610d12565b3461018f57602036600319011261018f576020610d726004356115b5565b604051908152f35b3461018f57602036600319011261018f576020610d72610d98611256565b6114bd565b3461018f575f36600319011261018f576002546040516001600160a01b039091168152602090f35b3461018f57602036600319011261018f57610dde611256565b610de781611858565b610df08161169e565b15610e135780610e02610e08926114bd565b906118c1565b602060405160018152f35b60405162461bcd60e51b815260206004820152601360248201527214185e5b595b9d081b9bdd08191d59481e595d606a1b6044820152606490fd5b3461018f575f36600319011261018f575f546040516001600160a01b039091168152602090f35b3461018f575f36600319011261018f576020600754604051908152f35b3461018f575f36600319011261018f57600854610ec7610eb182611497565b91610ebf60405193846112ba565b808352611497565b6020820190601f19013682375f5f600554905b818110610f2e578385604051918291602083019060208452518091526040830191905f5b818110610f0c575050500390f35b82516001600160a01b0316845285945060209384019390920191600101610efe565b610f3781611314565b60018060a01b0391549060031b1c165f52600460205260ff600560405f20015416610f65575b600101610eda565b91610f6f83611314565b9054865160039290921b1c6001600160a01b031690821015610fa95781610fa191602060019460051b890101526114af565b929050610f5d565b634e487b7160e01b5f52603260045260245ffd5b3461018f575f36600319011261018f576003546040516001600160a01b039091168152602090f35b3461018f57602036600319011261018f57600435600481101561018f57610d7260209161145c565b3461018f57604036600319011261018f57611026611256565b7fe2afa2becb25a6b6b20ab1801bff38cd94018485e35ef475d844c8c3c6054144604060243592611055611809565b61105e81611858565b611069841515611410565b6001600160a01b03165f818152600460209081529083902060010180549086905583519081529081019490945292a2005b3461018f57602036600319011261018f576001600160a01b036110bb611256565b165f52600460205260405f20604051906110d48261129d565b80546001600160a01b0316825260018101546020830190815260028201546040840191906111059060ff1683611404565b600383015493606081019485526004840154916080820192835260ff6005860154169160a081019215158352610100600861114260068901611364565b978860c0850152600781015460e08501520154910152519251916004831015610a965761119861118896519151925115159360405197889760c0895260c089019061126c565b9560208801526040870190611290565b6060850152608084015260a08301520390f35b3461018f575f36600319011261018f576020600854604051908152f35b3461018f575f36600319011261018f576003546370a0823160e01b8252306004830152602090829060249082906001600160a01b03165afa801561124b575f90611218575b602090604051908152f35b506020813d602011611243575b81611232602093836112ba565b8101031261018f576020905161120d565b3d9150611225565b6040513d5f823e3d90fd5b600435906001600160a01b038216820361018f57565b805180835260209291819084018484015e5f828201840152601f01601f1916010190565b906004821015610a965752565b610120810190811067ffffffffffffffff82111761097057604052565b90601f8019910116810190811067ffffffffffffffff82111761097057604052565b67ffffffffffffffff811161097057601f01601f191660200190565b600654811015610fa95760065f5260205f209060021b01905f90565b600554811015610fa95760055f5260205f2001905f90565b90600182811c9216801561135a575b602083101461134657565b634e487b7160e01b5f52602260045260245ffd5b91607f169161133b565b9060405191825f8254926113778461132c565b80845293600181169081156113e2575060011461139e575b5061139c925003836112ba565b565b90505f9291925260205f20905f915b8183106113c657505090602061139c928201015f61138f565b60209193508060019154838589010152019101909184926113ad565b90506020925061139c94915060ff191682840152151560051b8201015f61138f565b6004821015610a965752565b1561141757565b60405162461bcd60e51b815260206004820152601d60248201527f53616c617279206d7573742062652067726561746572207468616e20300000006044820152606490fd5b6004811015610a965780611472575062093a8090565b6001810361148257506212750090565b6002036114905762278d0090565b6276a70090565b67ffffffffffffffff81116109705760051b60200190565b5f1981146103395760010190565b60018060a01b03165f52600460205260405f20604051906114dd8261129d565b60018060a01b03815416825260018101549160208101928352610100600860ff60028501541693611512604085019586611404565b600381015460608501526004810154608085015260ff600582015416151560a085015261154160068201611364565b60c0850152600781015460e0850152015491015280516004811015610a965761156d5750603490510490565b80516004811015610a96576001036115885750601a90510490565b516004811015610a96576002036115a157600c90510490565b5160021c90565b9190820180921161033957565b600554811015611669576115c890611314565b60018060a01b0391549060031b1c165f52600460205260405f2060ff60058201541615801561165d575b6116585760ff600282015416906004821015610a965761162191806116245750600362093a80915b01546115a8565b90565b6001810361163957506003621275009161161a565b60020361164c57600362278d009161161a565b60036276a7009161161a565b504290565b506003810154156115f2565b60405162461bcd60e51b815260206004820152600d60248201526c092dcecc2d8d2c840d2dcc8caf609b1b6044820152606490fd5b60018060a01b03165f52600460205260405f206040516116bd8161129d565b81546001600160a01b031681526001820154602082015260028201546040820192906116ec9060ff1684611404565b6003810154916060810192835260048201546080820152610100600860ff6005850154169360a08401941515855261172660068201611364565b60c0850152600781015460e085015201549101525115611770575180156117695742039042821161033957516004811015610a96576117649061145c565b111590565b5050600190565b50505f90565b1561177d57565b60405162461bcd60e51b815260206004820152601860248201527f42756467657420616c6c6f6361746f72206e6f742073657400000000000000006044820152606490fd5b3d156117ec573d906117d3826112dc565b916117e160405193846112ba565b82523d5f602084013e565b606090565b9081602091031261018f5751801515810361018f5790565b6001546001600160a01b0316330361181d57565b60405162461bcd60e51b815260206004820152601360248201527213db9b1e4818591b5a5b8818d85b8818d85b1b606a1b6044820152606490fd5b6001600160a01b03165f9081526004602052604090206005015460ff161561187c57565b60405162461bcd60e51b815260206004820152601760248201527f456d706c6f79656520646f6573206e6f742065786973740000000000000000006044820152606490fd5b6001600160a01b039081165f818152600460205260408120905491939290911615611c5e576002546001600160a01b03166118fd811515611776565b5f8060088401549260405182602082019163405affcb60e01b8352866024820152886044820152604481526119336064826112ba565b51925af161193f6117c2565b81611c44575b5015611bff575f8060018060a01b038154166040518260208201916331909d1d60e21b8352896024820152886044820152606060648201528160848201526084815261199260a4826112ba565b51925af161199e6117c2565b5015611bba576002546040516802830bcb937b6361d160bd1b60208201526006840180546001600160a01b0390931693925f916119da8261132c565b9160018116908115611b955750600114611b5d575b5050925f9283611a43611a5185611a13849760049b9a03601f1981018352826112ba565b604051928391602083019662a2795960e71b885260248401528c604484015260606064840152608483019061126c565b03601f1981018352826112ba565b51925af150611a5e6117c2565b5042600382015501611a718282546115a8565b9055611a7f816009546115a8565b600955600654604051916080830183811067ffffffffffffffff82111761097057604052838352602083019181835260408401934285526060810191808352600160401b81101561097057806001611ada92016006556112f8565b929092611b4a57905182546001600160a01b0319166001600160a01b03919091161782559251600182015592516002840155905160039290920191909155604080519182524260208301527f7bd379b31566817ff79103ff210fc7d86fa755c249a8dc25f96618362789e19191a2565b634e487b7160e01b5f525f60045260245ffd5b9091505f5260205f205f905b828210611b7e5750508101602901825f6119ef565b600181602092546029858801015201910190611b69565b60ff1916602980870191909152831515909302850190920192508491505f90506119ef565b60405162461bcd60e51b815260206004820152601c60248201527f4661696c656420746f207375626d697420746f207472656173757279000000006044820152606490fd5b60405162461bcd60e51b815260206004820152601a60248201527f4465706172746d656e74206275646765742065786365656465640000000000006044820152606490fd5b611c589150602080825183010191016117f1565b5f611945565b60405162461bcd60e51b815260206004820152601060248201526f151c99585cdd5c9e481b9bdd081cd95d60821b6044820152606490fdfea2646970667358221220e5b54488882bb34cfcb0f47cba8f85b9af3b9a3f9dc523c9768b68f46b0deccf64736f6c634300081e0033","linkReferences":{}},"methodIdentifiers":{"activeEmployees()":"1b756247","addEmployee(address,string,uint256,uint8,uint256)":"9bd1798c","admin()":"f851a440","budgetAllocator()":"6ace1488","calculatePaymentAmount(address)":"774b2535","changeAdmin(address)":"8f283970","employeeList(uint256)":"c3b2d07a","employees(address)":"d0678947","getActiveEmployees()":"47e23df9","getBalance()":"12065fe0","getEmployeeDetails(address)":"1caafcf1","getNextPaymentTime(uint256)":"86f195b8","getPaymentHistoryCount()":"92b5883f","getPaymentInterval(uint8)":"3bd39610","getTotalActivePayrollCost()":"8bf32e82","isPaymentDue(address)":"97ad7e02","paymentHistory(uint256)":"a5e047b8","processEmployeePayment(address)":"6a2baf4a","processPayroll()":"a4c1fd08","removeEmployee(address)":"d108177a","setBudgetAllocator(address)":"ed23e09e","setTreasury(address)":"f0f44260","setUsdc(address)":"cb146879","totalEmployees()":"52b9b973","totalPaymentsMade()":"d59c2733","totalPayrollCost()":"7234a1f9","treasury()":"61d027b3","updateSalary(address,uint256)":"22003f10","usdc()":"3e413bee"},"id":2}