{"abi":[{"type":"constructor","inputs":[],"stateMutability":"nonpayable"},{"type":"function","name":"ADMIN_ROLE","inputs":[],"outputs":[{"name":"","type":"bytes32","internalType":"bytes32"}],"stateMutability":"view"},{"type":"function","name":"DEFAULT_ADMIN_ROLE","inputs":[],"outputs":[{"name":"","type":"bytes32","internalType":"bytes32"}],"stateMutability":"view"},{"type":"function","name":"OPERATOR_ROLE","inputs":[],"outputs":[{"name":"","type":"bytes32","internalType":"bytes32"}],"stateMutability":"view"},{"type":"function","name":"createRule","inputs":[{"name":"name","type":"string","internalType":"string"},{"name":"description","type":"string","internalType":"string"},{"name":"ruleType","type":"uint8","internalType":"enum RuleEngine.RuleType"},{"name":"triggerAmount","type":"uint256","internalType":"uint256"},{"name":"checkInterval","type":"uint256","internalType":"uint256"},{"name":"minExecutionGap","type":"uint256","internalType":"uint256"},{"name":"recipients","type":"address[]","internalType":"address[]"},{"name":"values","type":"uint256[]","internalType":"uint256[]"},{"name":"usePercentages","type":"bool","internalType":"bool"},{"name":"maxPerExecution","type":"uint256","internalType":"uint256"}],"outputs":[{"name":"","type":"uint256","internalType":"uint256"}],"stateMutability":"nonpayable"},{"type":"function","name":"deleteRule","inputs":[{"name":"ruleId","type":"uint256","internalType":"uint256"}],"outputs":[],"stateMutability":"nonpayable"},{"type":"function","name":"evaluateRule","inputs":[{"name":"ruleId","type":"uint256","internalType":"uint256"}],"outputs":[{"name":"shouldExecute","type":"bool","internalType":"bool"},{"name":"reason","type":"string","internalType":"string"}],"stateMutability":"view"},{"type":"function","name":"executeRule","inputs":[{"name":"ruleId","type":"uint256","internalType":"uint256"}],"outputs":[],"stateMutability":"nonpayable"},{"type":"function","name":"getActiveRules","inputs":[],"outputs":[{"name":"","type":"uint256[]","internalType":"uint256[]"}],"stateMutability":"view"},{"type":"function","name":"getRoleAdmin","inputs":[{"name":"role","type":"bytes32","internalType":"bytes32"}],"outputs":[{"name":"","type":"bytes32","internalType":"bytes32"}],"stateMutability":"view"},{"type":"function","name":"getRule","inputs":[{"name":"ruleId","type":"uint256","internalType":"uint256"}],"outputs":[{"name":"name","type":"string","internalType":"string"},{"name":"description","type":"string","internalType":"string"},{"name":"ruleType","type":"uint8","internalType":"enum RuleEngine.RuleType"},{"name":"status","type":"uint8","internalType":"enum RuleEngine.RuleStatus"},{"name":"triggerAmount","type":"uint256","internalType":"uint256"},{"name":"timesExecuted","type":"uint256","internalType":"uint256"},{"name":"totalDistributed","type":"uint256","internalType":"uint256"},{"name":"lastExecuted","type":"uint256","internalType":"uint256"}],"stateMutability":"view"},{"type":"function","name":"getRuleDistribution","inputs":[{"name":"ruleId","type":"uint256","internalType":"uint256"}],"outputs":[{"name":"recipients","type":"address[]","internalType":"address[]"},{"name":"values","type":"uint256[]","internalType":"uint256[]"},{"name":"usePercentages","type":"bool","internalType":"bool"}],"stateMutability":"view"},{"type":"function","name":"grantRole","inputs":[{"name":"role","type":"bytes32","internalType":"bytes32"},{"name":"account","type":"address","internalType":"address"}],"outputs":[],"stateMutability":"nonpayable"},{"type":"function","name":"hasRole","inputs":[{"name":"role","type":"bytes32","internalType":"bytes32"},{"name":"account","type":"address","internalType":"address"}],"outputs":[{"name":"","type":"bool","internalType":"bool"}],"stateMutability":"view"},{"type":"function","name":"pause","inputs":[],"outputs":[],"stateMutability":"nonpayable"},{"type":"function","name":"paused","inputs":[],"outputs":[{"name":"","type":"bool","internalType":"bool"}],"stateMutability":"view"},{"type":"function","name":"renounceRole","inputs":[{"name":"role","type":"bytes32","internalType":"bytes32"},{"name":"callerConfirmation","type":"address","internalType":"address"}],"outputs":[],"stateMutability":"nonpayable"},{"type":"function","name":"revokeRole","inputs":[{"name":"role","type":"bytes32","internalType":"bytes32"},{"name":"account","type":"address","internalType":"address"}],"outputs":[],"stateMutability":"nonpayable"},{"type":"function","name":"ruleCount","inputs":[],"outputs":[{"name":"","type":"uint256","internalType":"uint256"}],"stateMutability":"view"},{"type":"function","name":"ruleExists","inputs":[{"name":"","type":"uint256","internalType":"uint256"}],"outputs":[{"name":"","type":"bool","internalType":"bool"}],"stateMutability":"view"},{"type":"function","name":"rules","inputs":[{"name":"","type":"uint256","internalType":"uint256"}],"outputs":[{"name":"id","type":"uint256","internalType":"uint256"},{"name":"name","type":"string","internalType":"string"},{"name":"description","type":"string","internalType":"string"},{"name":"ruleType","type":"uint8","internalType":"enum RuleEngine.RuleType"},{"name":"status","type":"uint8","internalType":"enum RuleEngine.RuleStatus"},{"name":"triggerAmount","type":"uint256","internalType":"uint256"},{"name":"checkInterval","type":"uint256","internalType":"uint256"},{"name":"minExecutionGap","type":"uint256","internalType":"uint256"},{"name":"usePercentages","type":"bool","internalType":"bool"},{"name":"maxPerExecution","type":"uint256","internalType":"uint256"},{"name":"createdAt","type":"uint256","internalType":"uint256"},{"name":"lastExecuted","type":"uint256","internalType":"uint256"},{"name":"timesExecuted","type":"uint256","internalType":"uint256"},{"name":"totalDistributed","type":"uint256","internalType":"uint256"},{"name":"creator","type":"address","internalType":"address"}],"stateMutability":"view"},{"type":"function","name":"setTreasury","inputs":[{"name":"_treasury","type":"address","internalType":"address"}],"outputs":[],"stateMutability":"nonpayable"},{"type":"function","name":"setUsdc","inputs":[{"name":"_usdc","type":"address","internalType":"address"}],"outputs":[],"stateMutability":"nonpayable"},{"type":"function","name":"supportsInterface","inputs":[{"name":"interfaceId","type":"bytes4","internalType":"bytes4"}],"outputs":[{"name":"","type":"bool","internalType":"bool"}],"stateMutability":"view"},{"type":"function","name":"treasury","inputs":[],"outputs":[{"name":"","type":"address","internalType":"contract TreasuryCore"}],"stateMutability":"view"},{"type":"function","name":"unpause","inputs":[],"outputs":[],"stateMutability":"nonpayable"},{"type":"function","name":"updateRuleStatus","inputs":[{"name":"ruleId","type":"uint256","internalType":"uint256"},{"name":"newStatus","type":"uint8","internalType":"enum RuleEngine.RuleStatus"}],"outputs":[],"stateMutability":"nonpayable"},{"type":"function","name":"usdc","inputs":[],"outputs":[{"name":"","type":"address","internalType":"contract IERC20"}],"stateMutability":"view"},{"type":"event","name":"DistributionFailed","inputs":[{"name":"ruleId","type":"uint256","indexed":true,"internalType":"uint256"},{"name":"recipient","type":"address","indexed":true,"internalType":"address"},{"name":"amount","type":"uint256","indexed":false,"internalType":"uint256"},{"name":"reason","type":"string","indexed":false,"internalType":"string"}],"anonymous":false},{"type":"event","name":"Paused","inputs":[{"name":"account","type":"address","indexed":false,"internalType":"address"}],"anonymous":false},{"type":"event","name":"RoleAdminChanged","inputs":[{"name":"role","type":"bytes32","indexed":true,"internalType":"bytes32"},{"name":"previousAdminRole","type":"bytes32","indexed":true,"internalType":"bytes32"},{"name":"newAdminRole","type":"bytes32","indexed":true,"internalType":"bytes32"}],"anonymous":false},{"type":"event","name":"RoleGranted","inputs":[{"name":"role","type":"bytes32","indexed":true,"internalType":"bytes32"},{"name":"account","type":"address","indexed":true,"internalType":"address"},{"name":"sender","type":"address","indexed":true,"internalType":"address"}],"anonymous":false},{"type":"event","name":"RoleRevoked","inputs":[{"name":"role","type":"bytes32","indexed":true,"internalType":"bytes32"},{"name":"account","type":"address","indexed":true,"internalType":"address"},{"name":"sender","type":"address","indexed":true,"internalType":"address"}],"anonymous":false},{"type":"event","name":"RuleCreated","inputs":[{"name":"ruleId","type":"uint256","indexed":true,"internalType":"uint256"},{"name":"name","type":"string","indexed":false,"internalType":"string"},{"name":"ruleType","type":"uint8","indexed":false,"internalType":"enum RuleEngine.RuleType"},{"name":"creator","type":"address","indexed":true,"internalType":"address"}],"anonymous":false},{"type":"event","name":"RuleDeleted","inputs":[{"name":"ruleId","type":"uint256","indexed":true,"internalType":"uint256"}],"anonymous":false},{"type":"event","name":"RuleExecuted","inputs":[{"name":"ruleId","type":"uint256","indexed":true,"internalType":"uint256"},{"name":"totalAmount","type":"uint256","indexed":false,"internalType":"uint256"},{"name":"recipientCount","type":"uint256","indexed":false,"internalType":"uint256"},{"name":"timestamp","type":"uint256","indexed":false,"internalType":"uint256"}],"anonymous":false},{"type":"event","name":"RuleStatusChanged","inputs":[{"name":"ruleId","type":"uint256","indexed":true,"internalType":"uint256"},{"name":"oldStatus","type":"uint8","indexed":false,"internalType":"enum RuleEngine.RuleStatus"},{"name":"newStatus","type":"uint8","indexed":false,"internalType":"enum RuleEngine.RuleStatus"}],"anonymous":false},{"type":"event","name":"RuleUpdated","inputs":[{"name":"ruleId","type":"uint256","indexed":true,"internalType":"uint256"}],"anonymous":false},{"type":"event","name":"Unpaused","inputs":[{"name":"account","type":"address","indexed":false,"internalType":"address"}],"anonymous":false},{"type":"error","name":"AccessControlBadConfirmation","inputs":[]},{"type":"error","name":"AccessControlUnauthorizedAccount","inputs":[{"name":"account","type":"address","internalType":"address"},{"name":"neededRole","type":"bytes32","internalType":"bytes32"}]},{"type":"error","name":"EnforcedPause","inputs":[]},{"type":"error","name":"ExpectedPause","inputs":[]},{"type":"error","name":"ReentrancyGuardReentrantCall","inputs":[]}],"bytecode":{"object":"0x60806040523461005a5760017f9b779b17422d0df92223018b32b4d1fa46e071723d6817e2486d003becc55f00556100363361005e565b50610040336100d4565b5061004a33610167565b5060405161205190816101fb8239f35b5f80fd5b6001600160a01b0381165f9081525f5160206122ac5f395f51905f52602052604090205460ff166100cf576001600160a01b03165f8181525f5160206122ac5f395f51905f5260205260408120805460ff191660011790553391905f51602061224c5f395f51905f528180a4600190565b505f90565b6001600160a01b0381165f9081525f51602061226c5f395f51905f52602052604090205460ff166100cf576001600160a01b03165f8181525f51602061226c5f395f51905f5260205260408120805460ff191660011790553391907fa49807205ce4d355092ef5a8a18f56e8913cf4a201fbe287825b095693c21775905f51602061224c5f395f51905f529080a4600190565b6001600160a01b0381165f9081525f51602061228c5f395f51905f52602052604090205460ff166100cf576001600160a01b03165f8181525f51602061228c5f395f51905f5260205260408120805460ff191660011790553391907f97667070c54ef182b0f5858b034beac1b6f3089aa2d3188bb1e8929f4fa9b929905f51602061224c5f395f51905f529080a460019056fe6080806040526004361015610012575f80fd5b5f3560e01c90816301ffc9a7146118005750806304d6ded4146116e55780631057ca2914611000578063248a9ca314610fce5780632f2ff15d14610f9157806330626b5c14610e9757806336568abe14610e535780633e413bee14610e2b5780633f4ba83a14610dc5578063427d98ef14610ca35780634846203714610bd35780635c975abb14610bb157806361d027b314610b8557806375b238fc14610b4b5780637ba4b01d146109f85780638456cb59146109a05780638dc7175a1461096157806391d1485414610919578063a217fddf146108ff578063ade466c1146108d0578063ba09466314610826578063c8c4c03414610308578063cb14687914610280578063d547741f1461023c578063f0f44260146101a0578063f5b541a6146101665763f6bcf63314610145575f80fd5b34610162575f366003190112610162576020600354604051908152f35b5f80fd5b34610162575f3660031901126101625760206040517f97667070c54ef182b0f5858b034beac1b6f3089aa2d3188bb1e8929f4fa9b9298152f35b34610162576020366003190112610162576101b9611a1b565b6101c1611e51565b6001600160a01b038116156101f75760018054610100600160a81b03191660089290921b610100600160a81b0316919091179055005b60405162461bcd60e51b815260206004820152601860248201527f496e76616c6964207472656173757279206164647265737300000000000000006044820152606490fd5b346101625760403660031901126101625761027e60043561025b611a05565b90610279610274825f525f602052600160405f20015490565b611ec0565b611f80565b005b3461016257602036600319011261016257610299611a1b565b6102a1611e51565b6001600160a01b031680156102cc576bffffffffffffffffffffffff60a01b60025416176002555f80f35b60405162461bcd60e51b8152602060048201526014602482015273496e76616c69642055534443206164647265737360601b6044820152606490fd5b346101625760203660031901126101625760043560027f9b779b17422d0df92223018b32b4d1fa46e071723d6817e2486d003becc55f0054146108175760027f9b779b17422d0df92223018b32b4d1fa46e071723d6817e2486d003becc55f0055610371612000565b335f9081527fee57cd81e84075558e8fcc182a1f4393f91fc97f963a136e66b7f949a62f319f602052604090205460ff16156107e057805f5260056020526103bf60ff60405f205416611b3c565b6103c881611bfe565b90156107b85750805f52600460205260405f20906004602060018060a01b0360015460081c1660405192838092629032ff60e51b82525afa9081156107ad575f9161077b575b505f916007840180549261042184611bcc565b9360ff600a880154165f14610720575f90600988015b8183106106de575050505b600b860154801515806106d5575b610672575b50841161062d575f5b81548110156105a7578061047460019286611a64565b51610480575b0161045e565b5f80838060a01b03845460081c166104988487611e3c565b868060a01b0391549060031b1c16826104b1868b611a64565b516040519060208201936331909d1d60e21b85526024830152604482015260606064820152816084820152608481526104eb60a48261188b565b51925af13d156105a2573d6104ff8161198b565b9061050d604051928361188b565b81525f60203d92013e5b61047a576105258184611e3c565b838060a01b0391549060031b1c16847f869cc3ee4f54f439f20ba8b943bf9cd76db6ce485e4b14f92b5e645f79ff2c616080610561858a611a64565b5160405190815260406020820152601c60408201527f4661696c656420746f207375626d697420746f207472656173757279000000006060820152a361047a565b610517565b506060847fd298cf8f899216a1740f83d11ae9ffc0f638f9df730dfc2dd6a3623d6974ddce92600f8842600d820155600e81016105e48154611aad565b9055016105f2838254611a8c565b9055546040519182526020820152426040820152a260017f9b779b17422d0df92223018b32b4d1fa46e071723d6817e2486d003becc55f0055005b60405162461bcd60e51b815260206004820152601d60248201527f496e73756666696369656e742074726561737572792062616c616e63650000006044820152606490fd5b925f969295965b85518110156106c757610696856106908389611a64565b51611ad1565b9088156106b35788600192046106ac8289611a64565b5201610679565b634e487b7160e01b5f52601260045260245ffd5b509290949195509386610455565b50808611610450565b9091966107176001916127106107046106f78c87611e3c565b90549060031b1c88611ad1565b0490816107118c8c611a64565b52611a8c565b97019190610437565b5f90600888015b81831061073657505050610442565b9091966107726001916107498a85611e3c565b90549060031b1c61075a8b8b611a64565b526107658a85611e3c565b90549060031b1c90611a8c565b97019190610727565b90506020813d6020116107a5575b816107966020938361188b565b8101031261016257518361040e565b3d9150610789565b6040513d5f823e3d90fd5b60405162461bcd60e51b8152602060048201529081906107dc90602483019061194d565b0390fd5b63e2517d3f60e01b5f52336004527f97667070c54ef182b0f5858b034beac1b6f3089aa2d3188bb1e8929f4fa9b92960245260445ffd5b633ee5aeb560e01b5f5260045ffd5b346101625760403660031901126101625760043560243560038110156101625760407fe3aa38c930d9c33e7e4869f01ac47c67ce8cceb90cbf872fdb0ba01bec57d57791610872611e51565b835f52600560205261088960ff835f205416611b3c565b835f5260046020526108cd6003835f20019160ff835460081c1692805461ff008360081b169061ff0019161790556108c38451809461197e565b602083019061197e565ba2005b34610162576020366003190112610162576004355f526005602052602060ff60405f2054166040519015158152f35b34610162575f3660031901126101625760206040515f8152f35b3461016257604036600319011261016257610932611a05565b6004355f525f60205260405f209060018060a01b03165f52602052602060ff60405f2054166040519015158152f35b346101625760203660031901126101625761097d600435611bfe565b9061099c6040519283921515835260406020840152604083019061194d565b0390f35b34610162575f366003190112610162576109b8611e51565b6109c0612000565b600160ff19815416176001557f62e78cea01bee320cd4e420270b5ea74000d11b0c9f74754ebdbfc544b05a2586020604051338152a1005b3461016257602036600319011261016257600435805f526005602052610a2460ff60405f205416611b3c565b5f52600460205260405f20600781019060ff600a8201541690815f14610b4257600901905b60405191828360208654928381520180965f5260205f20925f5b818110610b20575050610a789250038461188b565b604051808260208294549384815201905f5260205f20925f5b818110610b07575050610aa69250038261188b565b60405192606084019060608552518091526080840194905f5b818110610ae85750505083610adc91848096036020860152611a31565b90151560408301520390f35b82516001600160a01b0316875260209687019690920191600101610abf565b8454835260019485019486945060209093019201610a91565b84546001600160a01b0316835260019485019488945060209093019201610a63565b60080190610a49565b34610162575f3660031901126101625760206040517fa49807205ce4d355092ef5a8a18f56e8913cf4a201fbe287825b095693c217758152f35b34610162575f3660031901126101625760015460405160089190911c6001600160a01b03168152602090f35b34610162575f36600319011261016257602060ff600154166040519015158152f35b3461016257602036600319011261016257600435805f526005602052610bff60ff60405f205416611b3c565b5f526004602052610c5c60405f2060038101546004820154600e830154600f84015490600d85015492610c8b610c6a610c466002610c3f60018b016118ad565b99016118ad565b604051998a996101008b526101008b019061194d565b9089820360208b015261194d565b95610c7b6040890160ff8316611971565b60ff606089019160081c1661197e565b608086015260a085015260c084015260e08301520390f35b34610162575f366003190112610162576003545f805b828110610d685750610cca90611bcc565b5f915f5b818110610ceb576040516020808252819061099c90820186611a31565b805f52600560205260ff60405f20541680610d2e575b610d0e575b600101610cce565b92610d268185610d2060019487611a64565b52611aad565b939050610d06565b50805f52600460205260ff600360405f20015460081c166003811015610d545715610d01565b634e487b7160e01b5f52602160045260245ffd5b805f52600560205260ff60405f20541680610d9f575b610d8b575b600101610cb9565b90610d97600191611aad565b919050610d83565b50805f52600460205260ff600360405f20015460081c166003811015610d545715610d7e565b34610162575f36600319011261016257610ddd611e51565b60015460ff811615610e1c5760ff19166001557f5db9ee0a495bf2e6ff9c91a7834c1ba4fdd244a5e8aa4e537bd38aeae4b073aa6020604051338152a1005b638dfc202b60e01b5f5260045ffd5b34610162575f366003190112610162576002546040516001600160a01b039091168152602090f35b3461016257604036600319011261016257610e6c611a05565b336001600160a01b03821603610e885761027e90600435611f80565b63334bd91960e11b5f5260045ffd5b3461016257602036600319011261016257600435610eb3611e51565b805f526005602052610ecb60ff60405f205416611b3c565b805f5260046020525f601060408220828155610ee960018201611b7e565b610ef560028201611b7e565b826003820155826004820155826005820155826006820155610f1960078201611ae4565b610f2560088201611ae4565b610f3160098201611ae4565b82600a82015582600b82015582600c82015582600d82015582600e82015582600f8201550155805f52600560205260405f2060ff1981541690557f5c4bd92909db22cc3978aa8b39244161c4944f7abfcd72cc33f87dae997870aa5f80a2005b346101625760403660031901126101625761027e600435610fb0611a05565b90610fc9610274825f525f602052600160405f20015490565b611ef8565b34610162576020366003190112610162576020610ff86004355f525f602052600160405f20015490565b604051908152f35b34610162576101403660031901126101625760043567ffffffffffffffff8111610162576110329036906004016119a7565b60243567ffffffffffffffff8111610162576110529036906004016119a7565b90600460443510156101625760c4359067ffffffffffffffff8211610162573660238301121561016257816004013561108a816119ed565b92611098604051948561188b565b81845260208401906024829360051b8201019036821161016257602401915b8183106116c55750505060e4359367ffffffffffffffff85116101625736602386011215610162578460040135916110ee836119ed565b956110fc604051978861188b565b838752602087016024819560051b8301019136831161016257602401905b8282106116b5575050506101043590811515908183036101625761113c611e51565b8551156116805786511561164b57865188510361161457608435156115dc5782611552575b6003549661116e88611aad565b600355875f52600460205260405f209488865560018601885167ffffffffffffffff811161138c576111a08254611853565b601f8111611522575b506020601f82116001146114c05790806111d7925f916114b5575b508160011b915f199060031b1c19161790565b90555b8051600287019167ffffffffffffffff821161138c576111fa8354611853565b601f811161147a575b50602090601f83116001146114175761123392915f918361140c575b50508160011b915f199060031b1c19161790565b90555b60038501805461ffff191660443560ff161790556064356004860155608435600586015560a43560068601555190600785019067ffffffffffffffff831161138c576112828383611b05565b905f5260205f205f5b8381106113ef5750505050600a83019060ff8019835416911617905561012435600b83015542600c83015560108201336bffffffffffffffffffffffff60a01b8254161790555f146113a05760090193519067ffffffffffffffff821161138c576112f68286611b05565b935f5260205f205f5b82811061137857505050602092505b815f526005835260405f20600160ff19825416179055817f6b607816f097e53e8bb27c5094f3d7575523484dde310734a2cf859afd869c1361135b6040519360408552604085019061194d565b9261136a868201604435611971565b8033940390a3604051908152f35b6001906020875197019681840155016112ff565b634e487b7160e01b5f52604160045260245ffd5b60080193519067ffffffffffffffff821161138c576113bf8286611b05565b935f5260205f205f5b8281106113db575050506020925061130e565b6001906020875197019681840155016113c8565b82516001600160a01b03168183015560209092019160010161128b565b015190508d8061121f565b90601f19831691845f52815f20925f5b818110611462575090846001959493921061144a575b505050811b019055611236565b01515f1960f88460031b161c191690558c808061143d565b92936020600181928786015181550195019301611427565b6114a590845f5260205f20601f850160051c810191602086106114ab575b601f0160051c0190611abb565b8c611203565b9091508190611498565b90508b01518e6111c4565b601f19821690835f52805f20915f5b8d82821061150a57505090836001949392106114f2575b5050811b0190556111da565b8c01515f1960f88460031b161c191690558d806114e6565b600184956020939584930151815501940192016114cf565b61154c90835f5260205f20601f840160051c810191602085106114ab57601f0160051c0190611abb565b8c6111a9565b9593915f9593915f965b89518810156115845761157c6001916115758a8d611a64565b5190611a8c565b97019661155c565b6127109193959750979193959711156111615760405162461bcd60e51b815260206004820152601760248201527f50657263656e74616765732065786365656420313030250000000000000000006044820152606490fd5b60405162461bcd60e51b815260206004820152601060248201526f125b9d985b1a59081a5b9d195c9d985b60821b6044820152606490fd5b60405162461bcd60e51b815260206004820152600f60248201526e098cadccee8d040dad2e6dac2e8c6d608b1b6044820152606490fd5b60405162461bcd60e51b815260206004820152600d60248201526c4e6f20726563697069656e747360981b6044820152606490fd5b60405162461bcd60e51b815260206004820152600d60248201526c13985b59481c995c5d5a5c9959609a1b6044820152606490fd5b813581526020918201910161111a565b82356001600160a01b0381168103610162578152602092830192016110b7565b34610162576020366003190112610162576004355f52600460205260405f20805460018201611713906118ad565b91611720600282016118ad565b600382015491600481015460058201546006830154600a84015460ff16600b85015490600c86015492600d87015494600e88015496600f89015498600160a01b60019003906010015416996040519d8e9d8e528d602081016101e090526101e00161178a9161194d565b8d810360408f015261179b9161194d565b9a6117ac60608e0160ff8316611971565b60808d019060081c60ff16906117c19161197e565b60a08c015260c08b015260e08a015215156101008901526101208801526101408701526101608601526101808501526101a08401526101c08301520390f35b34610162576020366003190112610162576004359063ffffffff60e01b821680920361016257602091637965db0b60e01b8114908115611842575b5015158152f35b6301ffc9a760e01b1490508361183b565b90600182811c92168015611881575b602083101461186d57565b634e487b7160e01b5f52602260045260245ffd5b91607f1691611862565b90601f8019910116810190811067ffffffffffffffff82111761138c57604052565b9060405191825f8254926118c084611853565b808452936001811690811561192b57506001146118e7575b506118e59250038361188b565b565b90505f9291925260205f20905f915b81831061190f5750509060206118e5928201015f6118d8565b60209193508060019154838589010152019101909184926118f6565b9050602092506118e594915060ff191682840152151560051b8201015f6118d8565b805180835260209291819084018484015e5f828201840152601f01601f1916010190565b906004821015610d545752565b906003821015610d545752565b67ffffffffffffffff811161138c57601f01601f191660200190565b81601f82011215610162578035906119be8261198b565b926119cc604051948561188b565b8284526020838301011161016257815f926020809301838601378301015290565b67ffffffffffffffff811161138c5760051b60200190565b602435906001600160a01b038216820361016257565b600435906001600160a01b038216820361016257565b90602080835192838152019201905f5b818110611a4e5750505090565b8251845260209384019390920191600101611a41565b8051821015611a785760209160051b010190565b634e487b7160e01b5f52603260045260245ffd5b91908201809211611a9957565b634e487b7160e01b5f52601160045260245ffd5b5f198114611a995760010190565b818110611ac6575050565b5f8155600101611abb565b81810292918115918404141715611a9957565b80545f825580611af2575050565b6118e5915f5260205f2090810190611abb565b9068010000000000000000811161138c57815490808355818110611b2857505050565b6118e5925f5260205f209182019101611abb565b15611b4357565b60405162461bcd60e51b8152602060048201526013602482015272149d5b1948191bd95cc81b9bdd08195e1a5cdd606a1b6044820152606490fd5b611b888154611853565b9081611b92575050565b81601f5f9311600114611ba3575055565b81835260208320611bbf91601f0160051c810190600101611abb565b8082528160208120915555565b90611bd6826119ed565b611be3604051918261188b565b8281528092611bf4601f19916119ed565b0190602036910137565b805f526005602052611c1660ff60405f205416611b3c565b5f52600460205260405f2060038101549060ff8260081c166003811015610d5457611e0857600d8101549081151592838094611df2575b611db957600154604051629032ff60e51b8152906020908290600490829060081c6001600160a01b03165afa9081156107ad575f91611d87575b50600483015411611d465760ff166004811015610d5457600214611cdd575b505050600190604051611cba60408261188b565b6013815272149d5b194818dbdb991a5d1a5bdb9cc81b595d606a1b602082015290565b82611d2e575b5050611cf1575f8080611ca6565b5f90604051611d0160408261188b565b601d81527f5363686564756c6520696e74657276616c206e6f742072656163686564000000602082015290565b611d3d92506005015490611a8c565b42105f80611ce3565b505050505f90604051611d5a60408261188b565b601c81527f42616c616e63652062656c6f77207472696767657220616d6f756e7400000000602082015290565b90506020813d602011611db1575b81611da26020938361188b565b8101031261016257515f611c87565b3d9150611d95565b505050505f90604051611dcd60408261188b565b6015815274115e1958dd5d1a5bdb8819d85c081b9bdd081b595d605a1b602082015290565b50611e01600683015484611a8c565b4210611c4d565b50505f90604051611e1a60408261188b565b601281527152756c65206973206e6f742061637469766560701b602082015290565b8054821015611a78575f5260205f2001905f90565b335f9081527f7d7ffb7a348e1c6a02869081a26547b49160dd3df72d1d75a570eb9b698292ec602052604090205460ff1615611e8957565b63e2517d3f60e01b5f52336004527fa49807205ce4d355092ef5a8a18f56e8913cf4a201fbe287825b095693c2177560245260445ffd5b5f8181526020818152604080832033845290915290205460ff1615611ee25750565b63e2517d3f60e01b5f523360045260245260445ffd5b5f818152602081815260408083206001600160a01b038616845290915290205460ff16611f7a575f818152602081815260408083206001600160a01b0395909516808452949091528120805460ff19166001179055339291907f2f8788117e7eff1d82e926ec794901d17c78024a50270940304540a733656f0d9080a4600190565b50505f90565b5f818152602081815260408083206001600160a01b038616845290915290205460ff1615611f7a575f818152602081815260408083206001600160a01b0395909516808452949091528120805460ff19169055339291907ff6391f5c32d9c69d2a47ea670b442974b53935d1edc7fd64eb21e047a839171b9080a4600190565b60ff6001541661200c57565b63d93c066560e01b5f5260045ffdfea26469706673582212200d15f827ddf5adc7c5d2fe81dff8f15b0799a226c9eada56be0276ae43145c9164736f6c634300081e00332f8788117e7eff1d82e926ec794901d17c78024a50270940304540a733656f0d7d7ffb7a348e1c6a02869081a26547b49160dd3df72d1d75a570eb9b698292ecee57cd81e84075558e8fcc182a1f4393f91fc97f963a136e66b7f949a62f319fad3228b676f7d3cd4284a5443f17f1962b36e491b30a40b2405849e597ba5fb5","linkReferences":{}},"methodIdentifiers":{"ADMIN_ROLE()":"75b238fc","DEFAULT_ADMIN_ROLE()":"a217fddf","OPERATOR_ROLE()":"f5b541a6","createRule(string,string,uint8,uint256,uint256,uint256,address[],uint256[],bool,uint256)":"1057ca29","deleteRule(uint256)":"30626b5c","evaluateRule(uint256)":"8dc7175a","executeRule(uint256)":"c8c4c034","getActiveRules()":"427d98ef","getRoleAdmin(bytes32)":"248a9ca3","getRule(uint256)":"48462037","getRuleDistribution(uint256)":"7ba4b01d","grantRole(bytes32,address)":"2f2ff15d","hasRole(bytes32,address)":"91d14854","pause()":"8456cb59","paused()":"5c975abb","renounceRole(bytes32,address)":"36568abe","revokeRole(bytes32,address)":"d547741f","ruleCount()":"f6bcf633","ruleExists(uint256)":"ade466c1","rules(uint256)":"04d6ded4","setTreasury(address)":"f0f44260","setUsdc(address)":"cb146879","supportsInterface(bytes4)":"01ffc9a7","treasury()":"61d027b3","unpause()":"3f4ba83a","updateRuleStatus(uint256,uint8)":"ba094663","usdc()":"3e413bee"},"id":3}