{"abi":[{"type":"constructor","inputs":[],"stateMutability":"nonpayable"},{"type":"receive","stateMutability":"payable"},{"type":"function","name":"addOwner","inputs":[{"name":"_owner","type":"address","internalType":"address"}],"outputs":[],"stateMutability":"nonpayable"},{"type":"function","name":"approveTransaction","inputs":[{"name":"_txId","type":"uint256","internalType":"uint256"}],"outputs":[],"stateMutability":"nonpayable"},{"type":"function","name":"authorizeContract","inputs":[{"name":"_contract","type":"address","internalType":"address"}],"outputs":[],"stateMutability":"nonpayable"},{"type":"function","name":"cancelTransaction","inputs":[{"name":"_txId","type":"uint256","internalType":"uint256"}],"outputs":[],"stateMutability":"nonpayable"},{"type":"function","name":"changeThreshold","inputs":[{"name":"_threshold","type":"uint256","internalType":"uint256"}],"outputs":[],"stateMutability":"nonpayable"},{"type":"function","name":"complianceTracker","inputs":[],"outputs":[{"name":"","type":"address","internalType":"address"}],"stateMutability":"view"},{"type":"function","name":"deauthorizeContract","inputs":[{"name":"_contract","type":"address","internalType":"address"}],"outputs":[],"stateMutability":"nonpayable"},{"type":"function","name":"executeTransaction","inputs":[{"name":"_txId","type":"uint256","internalType":"uint256"}],"outputs":[],"stateMutability":"nonpayable"},{"type":"function","name":"getBalance","inputs":[],"outputs":[{"name":"","type":"uint256","internalType":"uint256"}],"stateMutability":"view"},{"type":"function","name":"getOwners","inputs":[],"outputs":[{"name":"","type":"address[]","internalType":"address[]"}],"stateMutability":"view"},{"type":"function","name":"getTransaction","inputs":[{"name":"_txId","type":"uint256","internalType":"uint256"}],"outputs":[{"name":"to","type":"address","internalType":"address"},{"name":"amount","type":"uint256","internalType":"uint256"},{"name":"data","type":"bytes","internalType":"bytes"},{"name":"executed","type":"bool","internalType":"bool"},{"name":"cancelled","type":"bool","internalType":"bool"},{"name":"approvalCount","type":"uint256","internalType":"uint256"}],"stateMutability":"view"},{"type":"function","name":"getTransactionCount","inputs":[],"outputs":[{"name":"","type":"uint256","internalType":"uint256"}],"stateMutability":"view"},{"type":"function","name":"hasApproved","inputs":[{"name":"","type":"uint256","internalType":"uint256"},{"name":"","type":"address","internalType":"address"}],"outputs":[{"name":"","type":"bool","internalType":"bool"}],"stateMutability":"view"},{"type":"function","name":"isApproved","inputs":[{"name":"_txId","type":"uint256","internalType":"uint256"},{"name":"_owner","type":"address","internalType":"address"}],"outputs":[{"name":"","type":"bool","internalType":"bool"}],"stateMutability":"view"},{"type":"function","name":"isAuthorizedContract","inputs":[{"name":"","type":"address","internalType":"address"}],"outputs":[{"name":"","type":"bool","internalType":"bool"}],"stateMutability":"view"},{"type":"function","name":"isOwner","inputs":[{"name":"","type":"address","internalType":"address"}],"outputs":[{"name":"","type":"bool","internalType":"bool"}],"stateMutability":"view"},{"type":"function","name":"owners","inputs":[{"name":"","type":"uint256","internalType":"uint256"}],"outputs":[{"name":"","type":"address","internalType":"address"}],"stateMutability":"view"},{"type":"function","name":"pause","inputs":[],"outputs":[],"stateMutability":"nonpayable"},{"type":"function","name":"paused","inputs":[],"outputs":[{"name":"","type":"bool","internalType":"bool"}],"stateMutability":"view"},{"type":"function","name":"proposeTransaction","inputs":[{"name":"_to","type":"address","internalType":"address"},{"name":"_amount","type":"uint256","internalType":"uint256"},{"name":"_data","type":"bytes","internalType":"bytes"}],"outputs":[{"name":"","type":"uint256","internalType":"uint256"}],"stateMutability":"nonpayable"},{"type":"function","name":"removeOwner","inputs":[{"name":"_owner","type":"address","internalType":"address"}],"outputs":[],"stateMutability":"nonpayable"},{"type":"function","name":"setComplianceTracker","inputs":[{"name":"_complianceTracker","type":"address","internalType":"address"}],"outputs":[],"stateMutability":"nonpayable"},{"type":"function","name":"submitTransaction","inputs":[{"name":"_to","type":"address","internalType":"address"},{"name":"_amount","type":"uint256","internalType":"uint256"},{"name":"_data","type":"bytes","internalType":"bytes"}],"outputs":[{"name":"","type":"uint256","internalType":"uint256"}],"stateMutability":"nonpayable"},{"type":"function","name":"threshold","inputs":[],"outputs":[{"name":"","type":"uint256","internalType":"uint256"}],"stateMutability":"view"},{"type":"function","name":"transactionCount","inputs":[],"outputs":[{"name":"","type":"uint256","internalType":"uint256"}],"stateMutability":"view"},{"type":"function","name":"transactions","inputs":[{"name":"","type":"uint256","internalType":"uint256"}],"outputs":[{"name":"to","type":"address","internalType":"address"},{"name":"amount","type":"uint256","internalType":"uint256"},{"name":"data","type":"bytes","internalType":"bytes"},{"name":"executed","type":"bool","internalType":"bool"},{"name":"cancelled","type":"bool","internalType":"bool"},{"name":"approvalCount","type":"uint256","internalType":"uint256"},{"name":"proposedAt","type":"uint256","internalType":"uint256"},{"name":"proposer","type":"address","internalType":"address"}],"stateMutability":"view"},{"type":"function","name":"unpause","inputs":[],"outputs":[],"stateMutability":"nonpayable"},{"type":"event","name":"FundsDeposited","inputs":[{"name":"from","type":"address","indexed":true,"internalType":"address"},{"name":"amount","type":"uint256","indexed":false,"internalType":"uint256"},{"name":"timestamp","type":"uint256","indexed":false,"internalType":"uint256"}],"anonymous":false},{"type":"event","name":"OwnerAdded","inputs":[{"name":"owner","type":"address","indexed":true,"internalType":"address"}],"anonymous":false},{"type":"event","name":"OwnerRemoved","inputs":[{"name":"owner","type":"address","indexed":true,"internalType":"address"}],"anonymous":false},{"type":"event","name":"Paused","inputs":[{"name":"by","type":"address","indexed":true,"internalType":"address"}],"anonymous":false},{"type":"event","name":"ThresholdChanged","inputs":[{"name":"newThreshold","type":"uint256","indexed":false,"internalType":"uint256"}],"anonymous":false},{"type":"event","name":"TransactionApproved","inputs":[{"name":"txId","type":"uint256","indexed":true,"internalType":"uint256"},{"name":"approver","type":"address","indexed":true,"internalType":"address"}],"anonymous":false},{"type":"event","name":"TransactionCancelled","inputs":[{"name":"txId","type":"uint256","indexed":true,"internalType":"uint256"},{"name":"canceller","type":"address","indexed":true,"internalType":"address"}],"anonymous":false},{"type":"event","name":"TransactionExecuted","inputs":[{"name":"txId","type":"uint256","indexed":true,"internalType":"uint256"},{"name":"executor","type":"address","indexed":true,"internalType":"address"}],"anonymous":false},{"type":"event","name":"TransactionProposed","inputs":[{"name":"txId","type":"uint256","indexed":true,"internalType":"uint256"},{"name":"proposer","type":"address","indexed":true,"internalType":"address"},{"name":"to","type":"address","indexed":false,"internalType":"address"},{"name":"amount","type":"uint256","indexed":false,"internalType":"uint256"}],"anonymous":false},{"type":"event","name":"Unpaused","inputs":[{"name":"by","type":"address","indexed":true,"internalType":"address"}],"anonymous":false}],"bytecode":{"object":"0x6080806040523460b257335f525f60205260405f20600160ff1982541617905560015468010000000000000000811015609e576001810180600155811015608a5760015f8190527fb10e2d527612073b26eecdfd717e6a320cf44b4afac2b0732d9fcbe2b7fa0cf69190910180546001600160a01b031916331790556002556118c890816100b78239f35b634e487b7160e01b5f52603260045260245ffd5b634e487b7160e01b5f52604160045260245ffd5b5f80fdfe6080604052600436101561004c575b3615610018575f80fd5b6040513481524260208201527fbee4fe3675934fca827426c793623996a3079255089bda3a717019ffc5db276560403392a2005b5f3560e01c8063025e7c27146111ee57806312065fe0146111d3578063173825d9146110475780632358d5a814610c0f578063242232d114610f295780632e7700f01461067a5780632f54bf6e14610eed5780633380c0d814610e1b57806333ea3dc814610d315780633f4ba83a14610ca157806342cde4e814610c845780634c5e714414610c5857806356c3163714610c0f5780635c975abb14610bed5780635e90852d14610b8e57806366d0ead314610b5157806367561d9314610acf578063694e80c3146109de5780636e861c0e1461099d5780637065cb481461084c5780638456cb59146107f85780639ace38c214610747578063a0e67e2b1461067f578063b77bf6001461067a578063c642747414610557578063d1b4006a146104c95763ee22610b0361000e57346104c55760203660031901126104c557600435610195611732565b61019e81611749565b6101a781611799565b6101b0816117f5565b6101b861184c565b6101c1816113a4565b506004810154600254116104875747906001810191825480911061044b5760038201805460ff1916600117905581546040516002840180546001600160a01b03939093169391925f91610213826113c0565b91600181169081156104345750600114610402575b5050915f939181859403925af161023d611703565b50156103bd5760055460081c6001600160a01b031680610280575b33847fefc13bdcf58f184ea7cae26b499fb33b539e01d0197cea456f3ada289b8cf19b5f80a3005b5f928380935491549160405160208101903060601b82528860348201526bffffffffffffffffffffffff198360601b166054820152846068820152426088820152608881526102d060a8826112e6565b519020926040519160208301946324125ead60e11b8652602484015230604484015233606484015260018060a01b0316608483015260a4820152600460c482015261012060e48201526012610144820152712a3932b0b9bab93c9032bc32b1baba34b7b760711b610164820152610160610104820152601a6101848201527f4d756c746973696720617070726f766564207472616e736665720000000000006101a48201526101a061012482015260066101c48201526511db1bd8985b60d21b6101e48201526101e481526103a7610204826112e6565b51925af1506103b4611703565b505f8080610258565b60405162461bcd60e51b815260206004820152601c60248201527f5472616e73616374696f6e20657865637574696f6e206661696c6564000000006044820152606490fd5b9091505f5260205f205f905b82821061042057505082018183610228565b60018160209254848801520191019061040e565b60ff19168652505080151502830190508183610228565b60405162461bcd60e51b8152602060048201526014602482015273496e73756666696369656e742062616c616e636560601b6044820152606490fd5b60405162461bcd60e51b8152602060048201526016602482015275496e73756666696369656e7420617070726f76616c7360501b6044820152606490fd5b5f80fd5b346104c55760203660031901126104c5576104e261125c565b6104ea611732565b6001600160a01b038116156105205760058054610100600160a81b03191660089290921b610100600160a81b0316919091179055005b60405162461bcd60e51b815260206004820152600f60248201526e496e76616c6964206164647265737360881b6044820152606490fd5b346104c55761056536611324565b9161056e61184c565b335f52600660205260ff60405f20541615610635576020926001600160a01b038216927f08754d66a328b07857be590cc17e0bb798e0ec9cb30ac8e5af7afd3481d1c6bd9061062a906105c28615156114d3565b610607600354968795604051916105d8836112c9565b8252838a83015260408201525f60608201525f60808201525f60a08201524260c08201523360e0820152611513565b604080516001600160a01b03909616865260208601919091523394918291820190565b0390a3604051908152f35b60405162461bcd60e51b815260206004820152601760248201527f4e6f7420617574686f72697a656420636f6e74726163740000000000000000006044820152606490fd5b611288565b346104c5575f3660031901126104c5576040518060206001549283815201809260015f527fb10e2d527612073b26eecdfd717e6a320cf44b4afac2b0732d9fcbe2b7fa0cf6905f5b81811061072857505050816106dd9103826112e6565b604051918291602083019060208452518091526040830191905f5b818110610706575050500390f35b82516001600160a01b03168452859450602093840193909201916001016106f8565b82546001600160a01b03168452602090930192600192830192016106c7565b346104c55760203660031901126104c5576004356003548110156104c55761076e906113a4565b5060018060a01b0381541660018201549161078b600282016113f8565b600382015491600481015460ff6107cf600584015493600660018060a01b0391015416946040519889988952602089015261010060408901526101008801906112a5565b948181161515606088015260081c161515608086015260a085015260c084015260e08301520390f35b346104c5575f3660031901126104c557610810611732565b61081861184c565b600160ff196005541617600555337f62e78cea01bee320cd4e420270b5ea74000d11b0c9f74754ebdbfc544b05a2585f80a2005b346104c55760203660031901126104c55761086561125c565b61086d611732565b6001600160a01b03811690811561096057815f525f60205260ff60405f20541661092857815f525f60205260405f20600160ff1982541617905560015490600160401b821015610914576108ca8260016108ee9401600155611230565b81546001600160a01b0393841660039290921b91821b9390911b1916919091179055565b7f994a936646fe87ffe4f1e469d3d6aa417d6b855598397f323de5b449f765f0c35f80a2005b634e487b7160e01b5f52604160045260245ffd5b60405162461bcd60e51b815260206004820152601060248201526f20b63932b0b23c9030b71037bbb732b960811b6044820152606490fd5b60405162461bcd60e51b8152602060048201526015602482015274496e76616c6964206f776e6572206164647265737360581b6044820152606490fd5b346104c55760203660031901126104c5576109b661125c565b6109be611732565b6001600160a01b03165f908152600660205260409020805460ff19169055005b346104c55760203660031901126104c5576004356109fa611732565b8015610a8b576001548111610a3a576020817f6c4ce60fd690e1216286a10b875c5662555f10774484e58142cedd7a90781baa92600255604051908152a1005b60405162461bcd60e51b815260206004820152602360248201527f5468726573686f6c642063616e6e6f7420657863656564206f776e657220636f6044820152621d5b9d60ea1b6064820152608490fd5b606460405162461bcd60e51b815260206004820152602060248201527f5468726573686f6c64206d7573742062652067726561746572207468616e20306044820152fd5b346104c55760203660031901126104c557610ae861125c565b610af0611732565b6001600160a01b03168015610b19575f908152600660205260409020805460ff19166001179055005b60405162461bcd60e51b815260206004820152601060248201526f125b9d985b1a590818dbdb9d1c9858dd60821b6044820152606490fd5b346104c55760203660031901126104c5576001600160a01b03610b7261125c565b165f526006602052602060ff60405f2054166040519015158152f35b346104c5576020610b9e36611324565b610ba9929192611732565b610bb161184c565b6001600160a01b038216927f08754d66a328b07857be590cc17e0bb798e0ec9cb30ac8e5af7afd3481d1c6bd9061062a906105c28615156114d3565b346104c5575f3660031901126104c557602060ff600554166040519015158152f35b346104c55760403660031901126104c557610c28611272565b6004355f52600460205260405f209060018060a01b03165f52602052602060ff60405f2054166040519015158152f35b346104c5575f3660031901126104c55760055460405160089190911c6001600160a01b03168152602090f35b346104c5575f3660031901126104c5576020600254604051908152f35b346104c5575f3660031901126104c557610cb9611732565b60055460ff811615610cf35760ff1916600555337f5db9ee0a495bf2e6ff9c91a7834c1ba4fdd244a5e8aa4e537bd38aeae4b073aa5f80a2005b60405162461bcd60e51b815260206004820152601660248201527510dbdb9d1c9858dd081a5cc81b9bdd081c185d5cd95960521b6044820152606490fd5b346104c55760203660031901126104c557610d56600435610d5181611749565b6113a4565b50604051610d63816112c9565b81546001600160a01b0316815260018201546020820190815290610d89600284016113f8565b92836040830152600381015491610e0760ff80851615159485606085015260081c161515918260808201526004840154938460a0830152600581015460c0830152600660018060a01b039101541660e082015260018060a01b039051169451956040519687968752602087015260c0604087015260c08601906112a5565b926060850152608084015260a08301520390f35b346104c55760203660031901126104c557600435610e37611732565b610e4081611749565b610e4981611799565b610e52816117f5565b610e5b816113a4565b5060068101546001600160a01b03163303610ea857600301805461ff00191661010017905533907fbeed812a0535c283c6bc8eda32deb53df2603d7c1b518b07e2bec1df38da83935f80a3005b60405162461bcd60e51b815260206004820152601860248201527f4f6e6c792070726f706f7365722063616e2063616e63656c00000000000000006044820152606490fd5b346104c55760203660031901126104c5576001600160a01b03610f0e61125c565b165f525f602052602060ff60405f2054166040519015158152f35b346104c55760203660031901126104c557600435610f45611732565b610f4e81611749565b610f5781611799565b610f60816117f5565b5f81815260046020908152604080832033845290915290205460ff1661100257610f8861184c565b5f818152600460208181526040808420338552909152909120805460ff19166001179055610fb5826113a4565b500180549060018201809211610fee575533907f924813d717e221b5f46dcd8a56da1679e4612584ab3237d55e5faabf6f6a30795f80a3005b634e487b7160e01b5f52601160045260245ffd5b60405162461bcd60e51b815260206004820152601c60248201527f5472616e73616374696f6e20616c726561647920617070726f766564000000006044820152606490fd5b346104c55760203660031901126104c55761106061125c565b611068611732565b6001600160a01b03165f8181526020819052604090205461108b9060ff16611498565b600154600254101561118257805f525f60205260405f2060ff1981541690555f5b600154908181101561117b57826110c282611230565b905460039190911b1c6001600160a01b0316146110e35760019150016110ac565b5f198201918211610fee576108ca6110fd61111593611230565b905460039190911b1c6001600160a01b031691611230565b6001548015611167575f190161112a81611230565b81549060018060a01b039060031b1b191690556001555b7f58619076adf5bb0943d100ef88d52d7c3fd691b19d3a9071b555b651fbf418da5f80a2005b634e487b7160e01b5f52603160045260245ffd5b5050611141565b60405162461bcd60e51b8152602060048201526024808201527f43616e6e6f742072656d6f76653a20776f756c6420627265616b2074687265736044820152631a1bdb1960e21b6064820152608490fd5b346104c5575f3660031901126104c557602047604051908152f35b346104c55760203660031901126104c5576004356001548110156104c557611217602091611230565b905460405160039290921b1c6001600160a01b03168152f35b6001548110156112485760015f5260205f2001905f90565b634e487b7160e01b5f52603260045260245ffd5b600435906001600160a01b03821682036104c557565b602435906001600160a01b03821682036104c557565b346104c5575f3660031901126104c5576020600354604051908152f35b805180835260209291819084018484015e5f828201840152601f01601f1916010190565b610100810190811067ffffffffffffffff82111761091457604052565b90601f8019910116810190811067ffffffffffffffff82111761091457604052565b67ffffffffffffffff811161091457601f01601f191660200190565b60606003198201126104c5576004356001600160a01b03811681036104c557916024359160443567ffffffffffffffff81116104c557816023820112156104c55780600401359061137482611308565b9261138260405194856112e6565b828452602483830101116104c557815f92602460209301838601378301015290565b6003548110156112485760035f52600760205f20910201905f90565b90600182811c921680156113ee575b60208310146113da57565b634e487b7160e01b5f52602260045260245ffd5b91607f16916113cf565b9060405191825f82549261140b846113c0565b80845293600181169081156114765750600114611432575b50611430925003836112e6565b565b90505f9291925260205f20905f915b81831061145a575050906020611430928201015f611423565b6020919350806001915483858901015201910190918492611441565b90506020925061143094915060ff191682840152151560051b8201015f611423565b1561149f57565b60405162461bcd60e51b815260206004820152600c60248201526b2737ba1030b71037bbb732b960a11b6044820152606490fd5b156114da57565b60405162461bcd60e51b8152602060048201526011602482015270125b9d985b1a59081c9958da5c1a595b9d607a1b6044820152606490fd5b600354600160401b81101561091457600181016003556003548110156112485760035f526007027fc2575a0e9e593c00f959f8c92f12db2869c3395a3b0502d05e2516446f71f85b0190805182546001600160a01b0319166001600160a01b03919091161782556020810151600183015560408101518051600284019167ffffffffffffffff8211610914576115a983546113c0565b601f81116116be575b50602090601f8311600114611657576006949392915f918361164c575b50508160011b915f199060031b1c19161790555b6060810151600384018054608084015161ff0090151560081b1692151560ff1661ffff199091161791909117905560a0810151600484015560c0810151600584015560e00151910180546001600160a01b039092166001600160a01b0319909216919091179055565b015190505f806115cf565b90601f19831691845f52815f20925f5b8181106116a657509160019391856006989796941061168e575b505050811b0190556115e3565b01515f1960f88460031b161c191690555f8080611681565b92936020600181928786015181550195019301611667565b835f5260205f20601f840160051c810191602085106116f9575b601f0160051c01905b8181106116ee57506115b2565b5f81556001016116e1565b90915081906116d8565b3d1561172d573d9061171482611308565b9161172260405193846112e6565b82523d5f602084013e565b606090565b335f525f60205261143060ff60405f205416611498565b600354111561175457565b60405162461bcd60e51b815260206004820152601a60248201527f5472616e73616374696f6e20646f6573206e6f742065786973740000000000006044820152606490fd5b60036117a660ff926113a4565b500154166117b057565b60405162461bcd60e51b815260206004820152601c60248201527f5472616e73616374696f6e20616c7265616479206578656375746564000000006044820152606490fd5b600361180260ff926113a4565b50015460081c1661180f57565b60405162461bcd60e51b8152602060048201526015602482015274151c985b9cd858dd1a5bdb8818d85b98d95b1b1959605a1b6044820152606490fd5b60ff6005541661185857565b60405162461bcd60e51b815260206004820152601260248201527110dbdb9d1c9858dd081a5cc81c185d5cd95960721b6044820152606490fdfea2646970667358221220ca29c61d5c6c89d7e13778bdfa2c8b85060c74763fd57a703341f87c719a35c164736f6c634300081e0033","linkReferences":{}},"methodIdentifiers":{"addOwner(address)":"7065cb48","approveTransaction(uint256)":"242232d1","authorizeContract(address)":"67561d93","cancelTransaction(uint256)":"3380c0d8","changeThreshold(uint256)":"694e80c3","complianceTracker()":"4c5e7144","deauthorizeContract(address)":"6e861c0e","executeTransaction(uint256)":"ee22610b","getBalance()":"12065fe0","getOwners()":"a0e67e2b","getTransaction(uint256)":"33ea3dc8","getTransactionCount()":"2e7700f0","hasApproved(uint256,address)":"2358d5a8","isApproved(uint256,address)":"56c31637","isAuthorizedContract(address)":"66d0ead3","isOwner(address)":"2f54bf6e","owners(uint256)":"025e7c27","pause()":"8456cb59","paused()":"5c975abb","proposeTransaction(address,uint256,bytes)":"5e90852d","removeOwner(address)":"173825d9","setComplianceTracker(address)":"d1b4006a","submitTransaction(address,uint256,bytes)":"c6427474","threshold()":"42cde4e8","transactionCount()":"b77bf600","transactions(uint256)":"9ace38c2","unpause()":"3f4ba83a"},"id":4}