{
  "address": "0xc5C0aD3518B8ca6562b7f383b9c64E6D25a23C84",
  "abi": [
    {
      "inputs": [],
      "stateMutability": "nonpayable",
      "type": "constructor"
    },
    {
      "inputs": [],
      "name": "AccessControlBadConfirmation",
      "type": "error"
    },
    {
      "inputs": [
        {
          "internalType": "address",
          "name": "account",
          "type": "address"
        },
        {
          "internalType": "bytes32",
          "name": "neededRole",
          "type": "bytes32"
        }
      ],
      "name": "AccessControlUnauthorizedAccount",
      "type": "error"
    },
    {
      "inputs": [],
      "name": "EnforcedPause",
      "type": "error"
    },
    {
      "inputs": [],
      "name": "ExpectedPause",
      "type": "error"
    },
    {
      "anonymous": false,
      "inputs": [
        {
          "indexed": true,
          "internalType": "address",
          "name": "account",
          "type": "address"
        },
        {
          "indexed": false,
          "internalType": "string",
          "name": "reason",
          "type": "string"
        }
      ],
      "name": "AddressBlacklisted",
      "type": "event"
    },
    {
      "anonymous": false,
      "inputs": [
        {
          "indexed": true,
          "internalType": "address",
          "name": "account",
          "type": "address"
        }
      ],
      "name": "AddressWhitelisted",
      "type": "event"
    },
    {
      "anonymous": false,
      "inputs": [
        {
          "indexed": true,
          "internalType": "uint256",
          "name": "entryId",
          "type": "uint256"
        },
        {
          "indexed": false,
          "internalType": "string",
          "name": "reason",
          "type": "string"
        },
        {
          "indexed": false,
          "internalType": "address",
          "name": "flaggedBy",
          "type": "address"
        }
      ],
      "name": "EntryFlagged",
      "type": "event"
    },
    {
      "anonymous": false,
      "inputs": [
        {
          "indexed": true,
          "internalType": "uint256",
          "name": "entryId",
          "type": "uint256"
        },
        {
          "indexed": true,
          "internalType": "bytes32",
          "name": "transactionHash",
          "type": "bytes32"
        },
        {
          "indexed": true,
          "internalType": "address",
          "name": "contractAddress",
          "type": "address"
        },
        {
          "indexed": false,
          "internalType": "enum ComplianceTracker.TransactionCategory",
          "name": "category",
          "type": "uint8"
        },
        {
          "indexed": false,
          "internalType": "uint256",
          "name": "amount",
          "type": "uint256"
        }
      ],
      "name": "EntryRecorded",
      "type": "event"
    },
    {
      "anonymous": false,
      "inputs": [
        {
          "indexed": true,
          "internalType": "uint256",
          "name": "entryId",
          "type": "uint256"
        },
        {
          "indexed": true,
          "internalType": "address",
          "name": "reviewer",
          "type": "address"
        },
        {
          "indexed": false,
          "internalType": "bool",
          "name": "approved",
          "type": "bool"
        }
      ],
      "name": "EntryReviewed",
      "type": "event"
    },
    {
      "anonymous": false,
      "inputs": [
        {
          "indexed": true,
          "internalType": "uint256",
          "name": "entryId",
          "type": "uint256"
        }
      ],
      "name": "EntryUpdated",
      "type": "event"
    },
    {
      "anonymous": false,
      "inputs": [
        {
          "indexed": false,
          "internalType": "address",
          "name": "account",
          "type": "address"
        }
      ],
      "name": "Paused",
      "type": "event"
    },
    {
      "anonymous": false,
      "inputs": [
        {
          "indexed": false,
          "internalType": "string",
          "name": "policyType",
          "type": "string"
        },
        {
          "indexed": false,
          "internalType": "string",
          "name": "details",
          "type": "string"
        }
      ],
      "name": "PolicyUpdated",
      "type": "event"
    },
    {
      "anonymous": false,
      "inputs": [
        {
          "indexed": true,
          "internalType": "bytes32",
          "name": "role",
          "type": "bytes32"
        },
        {
          "indexed": true,
          "internalType": "bytes32",
          "name": "previousAdminRole",
          "type": "bytes32"
        },
        {
          "indexed": true,
          "internalType": "bytes32",
          "name": "newAdminRole",
          "type": "bytes32"
        }
      ],
      "name": "RoleAdminChanged",
      "type": "event"
    },
    {
      "anonymous": false,
      "inputs": [
        {
          "indexed": true,
          "internalType": "bytes32",
          "name": "role",
          "type": "bytes32"
        },
        {
          "indexed": true,
          "internalType": "address",
          "name": "account",
          "type": "address"
        },
        {
          "indexed": true,
          "internalType": "address",
          "name": "sender",
          "type": "address"
        }
      ],
      "name": "RoleGranted",
      "type": "event"
    },
    {
      "anonymous": false,
      "inputs": [
        {
          "indexed": true,
          "internalType": "bytes32",
          "name": "role",
          "type": "bytes32"
        },
        {
          "indexed": true,
          "internalType": "address",
          "name": "account",
          "type": "address"
        },
        {
          "indexed": true,
          "internalType": "address",
          "name": "sender",
          "type": "address"
        }
      ],
      "name": "RoleRevoked",
      "type": "event"
    },
    {
      "anonymous": false,
      "inputs": [
        {
          "indexed": false,
          "internalType": "address",
          "name": "account",
          "type": "address"
        }
      ],
      "name": "Unpaused",
      "type": "event"
    },
    {
      "inputs": [],
      "name": "ADMIN_ROLE",
      "outputs": [
        {
          "internalType": "bytes32",
          "name": "",
          "type": "bytes32"
        }
      ],
      "stateMutability": "view",
      "type": "function"
    },
    {
      "inputs": [],
      "name": "COMPLIANCE_OFFICER_ROLE",
      "outputs": [
        {
          "internalType": "bytes32",
          "name": "",
          "type": "bytes32"
        }
      ],
      "stateMutability": "view",
      "type": "function"
    },
    {
      "inputs": [],
      "name": "DEFAULT_ADMIN_ROLE",
      "outputs": [
        {
          "internalType": "bytes32",
          "name": "",
          "type": "bytes32"
        }
      ],
      "stateMutability": "view",
      "type": "function"
    },
    {
      "inputs": [
        {
          "internalType": "address",
          "name": "account",
          "type": "address"
        },
        {
          "internalType": "string",
          "name": "reason",
          "type": "string"
        }
      ],
      "name": "blacklistAddress",
      "outputs": [],
      "stateMutability": "nonpayable",
      "type": "function"
    },
    {
      "inputs": [
        {
          "internalType": "address",
          "name": "",
          "type": "address"
        }
      ],
      "name": "blacklistedAddresses",
      "outputs": [
        {
          "internalType": "bool",
          "name": "",
          "type": "bool"
        }
      ],
      "stateMutability": "view",
      "type": "function"
    },
    {
      "inputs": [
        {
          "internalType": "uint256",
          "name": "",
          "type": "uint256"
        }
      ],
      "name": "entries",
      "outputs": [
        {
          "internalType": "uint256",
          "name": "id",
          "type": "uint256"
        },
        {
          "internalType": "bytes32",
          "name": "transactionHash",
          "type": "bytes32"
        },
        {
          "internalType": "address",
          "name": "contractAddress",
          "type": "address"
        },
        {
          "internalType": "address",
          "name": "from",
          "type": "address"
        },
        {
          "internalType": "address",
          "name": "to",
          "type": "address"
        },
        {
          "internalType": "uint256",
          "name": "amount",
          "type": "uint256"
        },
        {
          "internalType": "enum ComplianceTracker.TransactionCategory",
          "name": "category",
          "type": "uint8"
        },
        {
          "internalType": "enum ComplianceTracker.RiskLevel",
          "name": "riskLevel",
          "type": "uint8"
        },
        {
          "internalType": "string",
          "name": "description",
          "type": "string"
        },
        {
          "internalType": "string",
          "name": "purpose",
          "type": "string"
        },
        {
          "internalType": "string",
          "name": "jurisdiction",
          "type": "string"
        },
        {
          "internalType": "uint256",
          "name": "timestamp",
          "type": "uint256"
        },
        {
          "internalType": "address",
          "name": "recordedBy",
          "type": "address"
        },
        {
          "internalType": "bool",
          "name": "flagged",
          "type": "bool"
        },
        {
          "internalType": "string",
          "name": "flagReason",
          "type": "string"
        },
        {
          "internalType": "bool",
          "name": "reviewed",
          "type": "bool"
        },
        {
          "internalType": "address",
          "name": "reviewedBy",
          "type": "address"
        },
        {
          "internalType": "uint256",
          "name": "reviewedAt",
          "type": "uint256"
        },
        {
          "internalType": "string",
          "name": "reviewNotes",
          "type": "string"
        }
      ],
      "stateMutability": "view",
      "type": "function"
    },
    {
      "inputs": [
        {
          "internalType": "enum ComplianceTracker.TransactionCategory",
          "name": "",
          "type": "uint8"
        },
        {
          "internalType": "uint256",
          "name": "",
          "type": "uint256"
        }
      ],
      "name": "entriesByCategory",
      "outputs": [
        {
          "internalType": "uint256",
          "name": "",
          "type": "uint256"
        }
      ],
      "stateMutability": "view",
      "type": "function"
    },
    {
      "inputs": [
        {
          "internalType": "address",
          "name": "",
          "type": "address"
        },
        {
          "internalType": "uint256",
          "name": "",
          "type": "uint256"
        }
      ],
      "name": "entriesByContract",
      "outputs": [
        {
          "internalType": "uint256",
          "name": "",
          "type": "uint256"
        }
      ],
      "stateMutability": "view",
      "type": "function"
    },
    {
      "inputs": [],
      "name": "entryCount",
      "outputs": [
        {
          "internalType": "uint256",
          "name": "",
          "type": "uint256"
        }
      ],
      "stateMutability": "view",
      "type": "function"
    },
    {
      "inputs": [
        {
          "internalType": "uint256",
          "name": "entryId",
          "type": "uint256"
        },
        {
          "internalType": "string",
          "name": "reason",
          "type": "string"
        }
      ],
      "name": "flagEntry",
      "outputs": [],
      "stateMutability": "nonpayable",
      "type": "function"
    },
    {
      "inputs": [
        {
          "internalType": "uint256",
          "name": "startTime",
          "type": "uint256"
        },
        {
          "internalType": "uint256",
          "name": "endTime",
          "type": "uint256"
        }
      ],
      "name": "getComplianceReport",
      "outputs": [
        {
          "internalType": "uint256",
          "name": "totalTransactions",
          "type": "uint256"
        },
        {
          "internalType": "uint256",
          "name": "totalAmount",
          "type": "uint256"
        },
        {
          "internalType": "uint256",
          "name": "flaggedCount",
          "type": "uint256"
        },
        {
          "internalType": "uint256",
          "name": "highRiskCount",
          "type": "uint256"
        },
        {
          "internalType": "uint256[10]",
          "name": "categoryBreakdown",
          "type": "uint256[10]"
        }
      ],
      "stateMutability": "view",
      "type": "function"
    },
    {
      "inputs": [
        {
          "internalType": "uint256",
          "name": "minAmount",
          "type": "uint256"
        },
        {
          "internalType": "uint256",
          "name": "maxAmount",
          "type": "uint256"
        }
      ],
      "name": "getEntriesByAmountRange",
      "outputs": [
        {
          "internalType": "uint256[]",
          "name": "",
          "type": "uint256[]"
        }
      ],
      "stateMutability": "view",
      "type": "function"
    },
    {
      "inputs": [
        {
          "internalType": "enum ComplianceTracker.TransactionCategory",
          "name": "category",
          "type": "uint8"
        }
      ],
      "name": "getEntriesByCategory",
      "outputs": [
        {
          "internalType": "uint256[]",
          "name": "",
          "type": "uint256[]"
        }
      ],
      "stateMutability": "view",
      "type": "function"
    },
    {
      "inputs": [
        {
          "internalType": "address",
          "name": "contractAddress",
          "type": "address"
        }
      ],
      "name": "getEntriesByContract",
      "outputs": [
        {
          "internalType": "uint256[]",
          "name": "",
          "type": "uint256[]"
        }
      ],
      "stateMutability": "view",
      "type": "function"
    },
    {
      "inputs": [
        {
          "internalType": "uint256",
          "name": "startTime",
          "type": "uint256"
        },
        {
          "internalType": "uint256",
          "name": "endTime",
          "type": "uint256"
        }
      ],
      "name": "getEntriesByDateRange",
      "outputs": [
        {
          "internalType": "uint256[]",
          "name": "",
          "type": "uint256[]"
        }
      ],
      "stateMutability": "view",
      "type": "function"
    },
    {
      "inputs": [
        {
          "internalType": "uint256",
          "name": "entryId",
          "type": "uint256"
        }
      ],
      "name": "getEntry",
      "outputs": [
        {
          "internalType": "bytes32",
          "name": "transactionHash",
          "type": "bytes32"
        },
        {
          "internalType": "address",
          "name": "contractAddress",
          "type": "address"
        },
        {
          "internalType": "address",
          "name": "from",
          "type": "address"
        },
        {
          "internalType": "address",
          "name": "to",
          "type": "address"
        },
        {
          "internalType": "uint256",
          "name": "amount",
          "type": "uint256"
        },
        {
          "internalType": "enum ComplianceTracker.TransactionCategory",
          "name": "category",
          "type": "uint8"
        },
        {
          "internalType": "enum ComplianceTracker.RiskLevel",
          "name": "riskLevel",
          "type": "uint8"
        },
        {
          "internalType": "string",
          "name": "description",
          "type": "string"
        },
        {
          "internalType": "bool",
          "name": "flagged",
          "type": "bool"
        },
        {
          "internalType": "bool",
          "name": "reviewed",
          "type": "bool"
        }
      ],
      "stateMutability": "view",
      "type": "function"
    },
    {
      "inputs": [],
      "name": "getFlaggedEntries",
      "outputs": [
        {
          "internalType": "uint256[]",
          "name": "",
          "type": "uint256[]"
        }
      ],
      "stateMutability": "view",
      "type": "function"
    },
    {
      "inputs": [
        {
          "internalType": "bytes32",
          "name": "role",
          "type": "bytes32"
        }
      ],
      "name": "getRoleAdmin",
      "outputs": [
        {
          "internalType": "bytes32",
          "name": "",
          "type": "bytes32"
        }
      ],
      "stateMutability": "view",
      "type": "function"
    },
    {
      "inputs": [
        {
          "internalType": "bytes32",
          "name": "role",
          "type": "bytes32"
        },
        {
          "internalType": "address",
          "name": "account",
          "type": "address"
        }
      ],
      "name": "grantRole",
      "outputs": [],
      "stateMutability": "nonpayable",
      "type": "function"
    },
    {
      "inputs": [
        {
          "internalType": "bytes32",
          "name": "role",
          "type": "bytes32"
        },
        {
          "internalType": "address",
          "name": "account",
          "type": "address"
        }
      ],
      "name": "hasRole",
      "outputs": [
        {
          "internalType": "bool",
          "name": "",
          "type": "bool"
        }
      ],
      "stateMutability": "view",
      "type": "function"
    },
    {
      "inputs": [],
      "name": "highRiskThreshold",
      "outputs": [
        {
          "internalType": "uint256",
          "name": "",
          "type": "uint256"
        }
      ],
      "stateMutability": "view",
      "type": "function"
    },
    {
      "inputs": [],
      "name": "pause",
      "outputs": [],
      "stateMutability": "nonpayable",
      "type": "function"
    },
    {
      "inputs": [],
      "name": "paused",
      "outputs": [
        {
          "internalType": "bool",
          "name": "",
          "type": "bool"
        }
      ],
      "stateMutability": "view",
      "type": "function"
    },
    {
      "inputs": [
        {
          "internalType": "bytes32",
          "name": "transactionHash",
          "type": "bytes32"
        },
        {
          "internalType": "address",
          "name": "contractAddress",
          "type": "address"
        },
        {
          "internalType": "address",
          "name": "from",
          "type": "address"
        },
        {
          "internalType": "address",
          "name": "to",
          "type": "address"
        },
        {
          "internalType": "uint256",
          "name": "amount",
          "type": "uint256"
        },
        {
          "internalType": "enum ComplianceTracker.TransactionCategory",
          "name": "category",
          "type": "uint8"
        },
        {
          "internalType": "string",
          "name": "description",
          "type": "string"
        },
        {
          "internalType": "string",
          "name": "purpose",
          "type": "string"
        },
        {
          "internalType": "string",
          "name": "jurisdiction",
          "type": "string"
        }
      ],
      "name": "recordEntry",
      "outputs": [
        {
          "internalType": "uint256",
          "name": "",
          "type": "uint256"
        }
      ],
      "stateMutability": "nonpayable",
      "type": "function"
    },
    {
      "inputs": [
        {
          "internalType": "bytes32",
          "name": "role",
          "type": "bytes32"
        },
        {
          "internalType": "address",
          "name": "callerConfirmation",
          "type": "address"
        }
      ],
      "name": "renounceRole",
      "outputs": [],
      "stateMutability": "nonpayable",
      "type": "function"
    },
    {
      "inputs": [
        {
          "internalType": "string",
          "name": "jurisdiction",
          "type": "string"
        }
      ],
      "name": "restrictJurisdiction",
      "outputs": [],
      "stateMutability": "nonpayable",
      "type": "function"
    },
    {
      "inputs": [
        {
          "internalType": "string",
          "name": "",
          "type": "string"
        }
      ],
      "name": "restrictedJurisdictions",
      "outputs": [
        {
          "internalType": "bool",
          "name": "",
          "type": "bool"
        }
      ],
      "stateMutability": "view",
      "type": "function"
    },
    {
      "inputs": [
        {
          "internalType": "uint256",
          "name": "entryId",
          "type": "uint256"
        },
        {
          "internalType": "bool",
          "name": "approved",
          "type": "bool"
        },
        {
          "internalType": "string",
          "name": "notes",
          "type": "string"
        }
      ],
      "name": "reviewEntry",
      "outputs": [],
      "stateMutability": "nonpayable",
      "type": "function"
    },
    {
      "inputs": [
        {
          "internalType": "bytes32",
          "name": "role",
          "type": "bytes32"
        },
        {
          "internalType": "address",
          "name": "account",
          "type": "address"
        }
      ],
      "name": "revokeRole",
      "outputs": [],
      "stateMutability": "nonpayable",
      "type": "function"
    },
    {
      "inputs": [
        {
          "internalType": "uint256",
          "name": "newThreshold",
          "type": "uint256"
        }
      ],
      "name": "setHighRiskThreshold",
      "outputs": [],
      "stateMutability": "nonpayable",
      "type": "function"
    },
    {
      "inputs": [
        {
          "internalType": "bytes4",
          "name": "interfaceId",
          "type": "bytes4"
        }
      ],
      "name": "supportsInterface",
      "outputs": [
        {
          "internalType": "bool",
          "name": "",
          "type": "bool"
        }
      ],
      "stateMutability": "view",
      "type": "function"
    },
    {
      "inputs": [
        {
          "internalType": "bytes32",
          "name": "",
          "type": "bytes32"
        }
      ],
      "name": "transactionHashToEntry",
      "outputs": [
        {
          "internalType": "uint256",
          "name": "",
          "type": "uint256"
        }
      ],
      "stateMutability": "view",
      "type": "function"
    },
    {
      "inputs": [],
      "name": "unpause",
      "outputs": [],
      "stateMutability": "nonpayable",
      "type": "function"
    },
    {
      "inputs": [
        {
          "internalType": "string",
          "name": "jurisdiction",
          "type": "string"
        }
      ],
      "name": "unrestrictJurisdiction",
      "outputs": [],
      "stateMutability": "nonpayable",
      "type": "function"
    },
    {
      "inputs": [
        {
          "internalType": "uint256",
          "name": "entryId",
          "type": "uint256"
        },
        {
          "internalType": "string",
          "name": "description",
          "type": "string"
        },
        {
          "internalType": "string",
          "name": "purpose",
          "type": "string"
        },
        {
          "internalType": "bytes32[]",
          "name": "tags",
          "type": "bytes32[]"
        },
        {
          "internalType": "string[]",
          "name": "attachments",
          "type": "string[]"
        }
      ],
      "name": "updateEntry",
      "outputs": [],
      "stateMutability": "nonpayable",
      "type": "function"
    },
    {
      "inputs": [
        {
          "internalType": "address",
          "name": "account",
          "type": "address"
        }
      ],
      "name": "whitelistAddress",
      "outputs": [],
      "stateMutability": "nonpayable",
      "type": "function"
    }
  ],
  "transactionHash": "0x1e4d84de235603876cc0fb3018db0ff9a9d534ac23539f81797ea85a5007f3bb",
  "args": [],
  "numDeployments": 1,
  "solcInputHash": "c8cc5f07fcb48433307ce8656020ab61",
  "bytecode": "0x6080604052346100495760ff1960015416600155640ba43b74006007556100253361004e565b5061002f336100ca565b5061003933610162565b50604051612a3490816101fb8239f35b600080fd5b6001600160a01b0381166000908152600080516020612c8f833981519152602052604090205460ff166100c4576001600160a01b03166000818152600080516020612c8f83398151915260205260408120805460ff19166001179055339190600080516020612c2f8339815191528180a4600190565b50600090565b6001600160a01b0381166000908152600080516020612c4f833981519152602052604090205460ff166100c4576001600160a01b03166000818152600080516020612c4f83398151915260205260408120805460ff191660011790553391907fa49807205ce4d355092ef5a8a18f56e8913cf4a201fbe287825b095693c2177590600080516020612c2f8339815191529080a4600190565b6001600160a01b0381166000908152600080516020612c6f833981519152602052604090205460ff166100c4576001600160a01b03166000818152600080516020612c6f83398151915260205260408120805460ff191660011790553391907fb6f0283bd1ed00c6aa7e988a7516070240f3610a34d167391359b648eb37cefc90600080516020612c2f8339815191529080a460019056fe60a0604052600436101561001257600080fd5b60003560e01c8063019be6fe146121be57806301ffc9a71461216857806303d39188146120655780630cbb0f8314612047578063198596b51461200c578063248a9ca314611fd75780632d6df74414611f095780632da3426714611e9b5780632f2ff15d14611e5b57806336568abe14611e155780633979186114611c735780633f4ba83a14611c0a57806340bd47a214611a675780634156658514611a015780634824bd5a1461124b57806351f4f9fa1461121f578063551bece6146111be5780635c975abb1461119b57806371f8fa04146110fb57806375b238fc146110c05780637a02c8fe1461102957806381e1b65814610eed5780638456cb5914610e8157806391d1485414610e345780639f6d4f5214610d64578063a1c5777814610d46578063a217fddf14610d2a578063a695442114610ce0578063ac0b866914610bdb578063b30906d41461099d578063b635457d14610409578063bae78d7b14610307578063d0972c7f146102ba578063d547741f14610273578063d5749d42146102345763fd922235146101a857600080fd5b3461022f57602036600319011261022f576001600160a01b036101c9612441565b166000526005602052604060002060405190816020825491828152019160005260206000209060005b8181106102195761021585610209818703826123b4565b6040519182918261237a565b0390f35b82548452602090930192600192830192016101f2565b600080fd5b3461022f57602036600319011261022f576001600160a01b03610255612441565b166000526008602052602060ff604060002054166040519015158152f35b3461022f57604036600319011261022f576102b860043561029261242b565b906102b36102ae82600052600060205260016040600020015490565b612835565b6128fb565b005b3461022f57604036600319011261022f57600435600a81101561022f576102e3602435916125bb565b805482101561022f576020916102f89161247a565b90549060031b1c604051908152f35b3461022f57602036600319011261022f57600435610328600254821061267b565b60005260036020526040600020600181015460018060a01b036002830154169160018060a01b03600382015416906103f460076103e160018060a01b03600485015416600585015460068601549160ff600d88015460a01c16976103a560ff600f8a0154169861039e60405180998193016124e2565b03876123b4565b6040519a8b9a8b5260208b015260408a0152606089015260808801526103d160a0880160ff8316612565565b60ff60c088019160081c16612572565b61014060e086015261014085019061257f565b91151561010084015215156101208301520390f35b3461022f5760a036600319011261022f576004356024356001600160401b03811161022f5761043c9036906004016123d5565b6044356001600160401b03811161022f5761045b9036906004016123d5565b906064356001600160401b03811161022f573660238201121561022f578060040135610486816125a4565b9161049460405193846123b4565b818352602083016024819360051b8301019136831161022f57602401905b82821061098d57505050608435916001600160401b03831161022f573660238401121561022f578260040135946104e8866125a4565b936104f660405195866123b4565b86855260208501906024829860051b8201019036821161022f5760248101925b82841061095e57505050506105296127c3565b610536600254881061267b565b86600052600360205260406000209480518061089c575b50508051806107c9575b5050519081610746575b5050519081610593575b837f15b7683d0af4101e250a26b1abd5efcbdd1b3ece5753a2b6827aad8866600333600080a2005b600b0191600160401b82116106b25782548284558083106106c8575b50916000526020600020916000905b8282106105cb575061056b565b80518051906001600160401b0382116106b2576105f2826105ec88546124a8565b886126d5565b602090601f8311600114610645579261062b8360019594602094879660009261063a575b50508160011b916000199060031b1c19161790565b87555b019401910190926105be565b015190508b80610616565b90601f1983169187600052816000209260005b81811061069a5750936020936001969387969383889510610681575b505050811b01875561062e565b015160001960f88460031b161c191690558a8080610674565b92936020600181928786015181550195019301610658565b634e487b7160e01b600052604160045260246000fd5b8360005282602060002091820191015b8181106106e557506105af565b806106f2600192546124a8565b806106ff575b50016106d8565b601f811183146107155750600081555b876106f8565b610733908260005283601f6020600020920160051c820191016126be565b806000526000602081208183555561070f565b600a8401906001600160401b0383116106b257600160401b83116106b25781548383558084106107a0575b5090600052602060002060005b83811061078c575050610561565b60019060208451940193818401550161077e565b8260005283602060002091820191015b8181106107bd5750610771565b600081556001016107b0565b60088601916001600160401b0382116106b2576107f0826107ea85546124a8565b856126d5565b602090601f83116001146108355761082092916000918361082a5750508160011b916000199060031b1c19161790565b90555b8680610557565b015190508a80610616565b90601f1983169184600052816000209260005b818110610884575090846001959493921061086b575b505050811b019055610823565b015160001960f88460031b161c1916905589808061085e565b92936020600181928786015181550195019301610848565b60078701916001600160401b0382116106b2576108bd826107ea85546124a8565b602090601f83116001146108f7576108ed92916000918361063a5750508160011b916000199060031b1c19161790565b90555b878061054d565b90601f1983169184600052816000209260005b818110610946575090846001959493921061092d575b505050811b0190556108f0565b015160001960f88460031b161c191690558a8080610920565b9293602060018192878601518155019501930161090a565b83356001600160401b03811161022f576020916109828392602436918701016123d5565b815201930192610516565b81358152602091820191016104b2565b3461022f57602036600319011261022f57600435600052600360205260406000208080546001820154600160a01b60019003600284015416600160a01b6001900360038501541690600160a01b600190036004860154166005860154600687015460405190818060078b0190610a12916124e2565b03610a1d90836123b4565b6040519283610a2f8160088d016124e2565b03610a3a90856123b4565b6040519485610a4c8160098e016124e2565b03610a5790876123b4565b600c8b015497600d8c0154976040519a8d8c8080600e840190610a79916124e2565b03610a83916123b4565b600f01549e601001549c6040519e8f80601181930190610aa2916124e2565b03610aac916123b4565b604051608052608051526080516020015260805160400152608051606001526080516080015260805160a0015260805160c00160ff821690610aed91612565565b60805160e0019060081c60ff1690610b0491612572565b60805161010001610260905260805161026001610b209161257f565b60805181036080516101200152610b369161257f565b60805181036080516101400152610b4c9161257f565b916080516101600152600160a01b600190038116608051610180015260a01c60ff1615156080516101a0015260805181036080516101c00152610b8e9161257f565b9260ff811615156080516101e00152600160a01b600190039060081c16608051610200015260805161022001526080518203608051610240015260805191610bd59161257f565b03608051f35b3461022f57600036600319011261022f576002546000805b828110610c855750610c0490612635565b906000805b828110610c1e5760405180610215868261237a565b80600052600360205260ff600d6040600020015460a01c1680610c69575b610c49575b600101610c09565b90610c618183610c5b60019488612667565b52612615565b919050610c41565b5080600052600360205260ff600f604060002001541615610c3c565b80600052600360205260ff600d6040600020015460a01c1680610cc4575b610cb0575b600101610bf3565b90610cbc600191612615565b919050610ca8565b5080600052600360205260ff600f604060002001541615610ca3565b3461022f57604036600319011261022f57610cf9612441565b6001600160a01b031660009081526005602052604090208054602435919082101561022f576020916102f89161247a565b3461022f57600036600319011261022f57602060405160008152f35b3461022f57600036600319011261022f576020600754604051908152f35b3461022f57602036600319011261022f576004356001600160401b03811161022f57610e2f610db87fa8c34721529318bd3455ddf106c90d19c41219628422a7b44a24e4e258606d379236906004016123d5565b610dc0612751565b6040516020818351610dd58183858801612457565b8101600981520301902060ff19815416905560405191829160408352601960408401527f4a5552495344494354494f4e5f554e5245535452494354454400000000000000606084015260806020840152608083019061257f565b0390a1005b3461022f57604036600319011261022f57610e4d61242b565b600435600052600060205260406000209060018060a01b0316600052602052602060ff604060002054166040519015158152f35b3461022f57600036600319011261022f57610e9a612751565b60015460ff8116610edc5760019060ff1916176001557f62e78cea01bee320cd4e420270b5ea74000d11b0c9f74754ebdbfc544b05a2586020604051338152a1005b63d93c066560e01b60005260046000fd5b3461022f57610efb36612364565b9081811015610fed57600254906000805b838110610f965750610f1d90612635565b9260009160005b848110610f395760405180610215888261237a565b80600052600360205281600560406000200154101580610f7b575b610f61575b600101610f24565b92610f738185610c5b6001948a612667565b939050610f59565b50806000526003602052826005604060002001541115610f54565b80600052600360205282600560406000200154101580610fd2575b610fbe575b600101610f0c565b90610fca600191612615565b919050610fb6565b50806000526003602052846005604060002001541115610fb1565b60405162461bcd60e51b8152602060048201526014602482015273496e76616c696420616d6f756e742072616e676560601b6044820152606490fd5b3461022f57602036600319011261022f57611042612751565b6004356007557fa8c34721529318bd3455ddf106c90d19c41219628422a7b44a24e4e258606d3760c0604051604081526013604082015272121251d217d49254d2d7d512149154d213d311606a1b6060820152608060208201526011608082015270151a1c995cda1bdb19081d5c19185d1959607a1b60a0820152a1005b3461022f57600036600319011261022f5760206040517fa49807205ce4d355092ef5a8a18f56e8913cf4a201fbe287825b095693c217758152f35b3461022f57604036600319011261022f57611114612441565b6024356001600160401b03811161022f576111966111577fddbfcbca8a6ec25cc3e99e3a7ddc04420eaa6749c91bffcd405e0c3ecc42d9f49236906004016123d5565b92611160612751565b60018060a01b0316928360005260086020526040600020600160ff1982541617905560405191829160208352602083019061257f565b0390a2005b3461022f57600036600319011261022f57602060ff600154166040519015158152f35b3461022f57602036600319011261022f576004356001600160401b03811161022f5760ff61120960206111f6819436906004016123d5565b8160405193828580945193849201612457565b8101600981520301902054166040519015158152f35b3461022f57602036600319011261022f5760043560005260046020526020604060002054604051908152f35b3461022f5761012036600319011261022f5760043561126861242b565b906044356001600160a01b038116810361022f576064356001600160a01b0381169283820361022f5760a435608435600a82101561022f5760c4356001600160401b03811161022f576112bf9036906004016123d5565b9660e4356001600160401b03811161022f576112df9036906004016123d5565b96610104356001600160401b03811161022f576113009036906004016123d5565b906113096127c3565b85156119bc57856000526004602052604060002054611980576002549861132f8a612615565b6002558960005260036020526040600020988a8a558760018b015560028a0160018060a01b0386166001600160601b0360a01b82541617905560038a019060018060a01b03166001600160601b0360a01b82541617905560048901826001600160601b0360a01b8254161790558460058a0155600689019060009b60ff1983541660ff891617835560078b019080516001600160401b03811161196c578e6113e1826113db86546124a8565b866126d5565b602090601f8311600114611909579061140e93836118fe5750508160011b916000199060031b1c19161790565b90555b60088a019080516001600160401b0381116118ea57611434816107ea85546124a8565b60208e6001601f8411146118875790611461938361187c5750508160011b916000199060031b1c19161790565b90555b6009890183516001600160401b0381116118685761148c8161148684546124a8565b846126d5565b60208d601f8311600114611808576114b99291826117fd575b508160011b916000199060031b1c19161790565b90555b42600c8a0155600d890180546001600160a01b03191633178155976114e39084908761297d565b60048110156117e957815461ff001916600891821b61ff001617918290551c60ff1660048110156117d55760ff92611552928c8a8c856002602097149081156117ca575b50611742575b505052600882528360408d2054166116d1578160405193828580945193849201612457565b810160098152030190205416611660575b6001870180881161164c577fe3ed80775f2c14ebd7e35d175603577fbeadc9e5a48000db93b7bb079eb63a4b6040899897958b956115ca8b8460209f9882988d60ff9e9b52602060049052828c205560018060a01b0316998a81526020600590522061271c565b6115dc856115d7846125bb565b61271c565b6115e883518093612565565b8c820152a45460a01c16611601575b5050604051908152f35b61163d7fcaab41a3fa9a3ee587407244b11ec9a3770f8ecb39faa336c76bfc04f33f3ac49160405191829160408352600e6040840191016124e2565b33878301520390a280836115f7565b634e487b7160e01b89526011600452602489fd5b845460ff60a01b1916600160a01b178555600e86018054611680906124a8565b601f81116116b2575b507f52657374726963746564206a7572697364696374696f6e00000000000000002e9055611563565b818a5260208a206116cb91601f0160051c8101906126be565b89611689565b600160a01b8460a01b198a5416178955600e8a018c6116f082546124a8565b601f8111611723575b50507f526563697069656e7420697320626c61636b6c6973746564000000000000003090556111f6565b601f85838561173b955220910160051c8101906126be565b8c8e6116f9565b6234b7b760e91b92600e87926001948560a01b8c60a01b198254161790550161176b81546124a8565b601f81116117a9575b50604781558152207f4175746f2d666c61676765643a2048696768207269736b207472616e73616374815501558c8a8c61152d565b8183528383206117c491601f0160051c8101906002016126be565b38611774565b600391501438611527565b634e487b7160e01b8b52602160045260248bfd5b634e487b7160e01b8c52602160045260248cfd5b90508601518f6114a5565b90601f198316848352818320925b81811061185057509083600194939210611837575b5050811b0190556114bc565b87015160001960f88460031b161c191690558e8061182b565b9192602060018192868c015181550194019201611816565b634e487b7160e01b8d52604160045260248dfd5b015190508f80610616565b9192601f198416858452828420935b8181106118d257509084600195949392106118b9575b505050811b019055611464565b015160001960f88460031b161c191690558e80806118ac565b92936020600181928786015181550195019301611896565b634e487b7160e01b8e52604160045260248efd5b015190503880610616565b9192601f198416858452828420935b818110611954575090846001959493921061193b575b505050811b019055611411565b015160001960f88460031b161c191690558f808061192e565b92936020600181928786015181550195019301611918565b634e487b7160e01b8f52604160045260248ffd5b60405162461bcd60e51b8152602060048201526014602482015273456e74727920616c72656164792065786973747360601b6044820152606490fd5b60405162461bcd60e51b815260206004820152601860248201527f496e76616c6964207472616e73616374696f6e206861736800000000000000006044820152606490fd5b3461022f57602036600319011261022f57611a1a612441565b611a22612751565b6001600160a01b03166000818152600860205260408120805460ff191690557f4f783c179409b4127238bc9c990bc99b9a651666a0d20b51d6c42849eb88466d9080a2005b3461022f57606036600319011261022f57600435602435908115159182810361022f576044356001600160401b03811161022f57611aa99036906004016123d5565b90611ab26127c3565b611abf600254841061267b565b6000838152600360205260409020600f810180546001600160a81b0319163360081b610100600160a81b0316176001179055426010820155825190926011840191906001600160401b0382116106b257611b1d826107ea85546124a8565b602090601f8311600114611ba357611b4d929160009183611b985750508160011b916000199060031b1c19161790565b90555b611b84575b506040519182527f1495b235d7bee3135787a66edf25badbb0b0a4c5656b061dad1c8dd397d94a5a60203393a3005b600d01805460ff60a01b1916905582611b55565b015190508880610616565b90601f1983169184600052816000209260005b818110611bf25750908460019594939210611bd9575b505050811b019055611b50565b015160001960f88460031b161c19169055878080611bcc565b92936020600181928786015181550195019301611bb6565b3461022f57600036600319011261022f57611c23612751565b60015460ff811615611c625760ff19166001557f5db9ee0a495bf2e6ff9c91a7834c1ba4fdd244a5e8aa4e537bd38aeae4b073aa6020604051338152a1005b638dfc202b60e01b60005260046000fd5b3461022f57604036600319011261022f576004356024356001600160401b03811161022f57611ca69036906004016123d5565b90611caf6127c3565b611cbc600254821061267b565b6000818152600360205260409020600d8101805460ff60a01b1916600160a01b17905582519290600e016001600160401b0384116106b257611d0884611d0283546124a8565b836126d5565b602093601f8111600114611d8b5790611d5e82611d7594937fcaab41a3fa9a3ee587407244b11ec9a3770f8ecb39faa336c76bfc04f33f3ac49697600091611d8057508160011b916000199060031b1c19161790565b90555b60405191829160408352604083019061257f565b3360208301520390a2005b9050840151886114a5565b601f19811682600052856000209060005b818110611dfd5750916001917fcaab41a3fa9a3ee587407244b11ec9a3770f8ecb39faa336c76bfc04f33f3ac4969782611d7597969510611de4575b5050811b019055611d61565b85015160001960f88460031b161c191690558780611dd8565b85880151835560209788019760019093019201611d9c565b3461022f57604036600319011261022f57611e2e61242b565b336001600160a01b03821603611e4a576102b8906004356128fb565b63334bd91960e11b60005260046000fd5b3461022f57604036600319011261022f576102b8600435611e7a61242b565b90611e966102ae82600052600060205260016040600020015490565b612870565b3461022f57602036600319011261022f57600435600a81101561022f57611ec1906125bb565b60405190816020825491828152019160005260206000209060005b818110611ef35761021585610209818703826123b4565b8254845260209093019260019283019201611edc565b3461022f57602036600319011261022f576004356001600160401b03811161022f57610e2f611f5d7fa8c34721529318bd3455ddf106c90d19c41219628422a7b44a24e4e258606d379236906004016123d5565b611f65612751565b6040516020818351611f7a8183858801612457565b81016009815203019020600160ff1982541617905560405191829160408352601760408401527f4a5552495344494354494f4e5f52455354524943544544000000000000000000606084015260806020840152608083019061257f565b3461022f57602036600319011261022f576020612004600435600052600060205260016040600020015490565b604051908152f35b3461022f57600036600319011261022f5760206040517fb6f0283bd1ed00c6aa7e988a7516070240f3610a34d167391359b648eb37cefc8152f35b3461022f57600036600319011261022f576020600254604051908152f35b3461022f5761207336612364565b9061207f8282106125d4565b600254906000805b838110612111575061209890612635565b9260009160005b8481106120b45760405180610215888261237a565b80600052600360205281600c604060002001541015806120f6575b6120dc575b60010161209f565b926120ee8185610c5b6001948a612667565b9390506120d4565b5080600052600360205282600c6040600020015411156120cf565b80600052600360205282600c6040600020015410158061214d575b612139575b600101612087565b90612145600191612615565b919050612131565b5080600052600360205284600c60406000200154111561212c565b3461022f57602036600319011261022f5760043563ffffffff60e01b811680910361022f57602090637965db0b60e01b81149081156121ad575b506040519015158152f35b6301ffc9a760e01b149050826121a2565b3461022f576121cc36612364565b600091600080809261014094604051956121e681886123b4565b3687376121f48183106125d4565b60025491835b8381106122465750505050604051948552602085015260408401526060830152608082016000905b600a8210612230576101c084f35b6020806001928551815201930191019091612222565b8060005260036020526040600020600c81015484848210159182612359575b5050612275575b506001016121fa565b949861228090612615565b9860058601548101809111612343579460ff600d82015460a01c1661232f575b6006015460ff8160081c1660048110156122fa5760028114908115612324575b50612310575b60ff1690600a8210156122fa57816122f36122ec6122e66001958d612624565b51612615565b918b612624565b529061226c565b634e487b7160e01b600052602160045260246000fd5b9661231c60ff91612615565b9790506122c6565b60039150148b6122c0565b9561233b600691612615565b9690506122a0565b634e487b7160e01b600052601160045260246000fd5b11159050848c612265565b604090600319011261022f576004359060243590565b602060408183019282815284518094520192019060005b81811061239e5750505090565b8251845260209384019390920191600101612391565b90601f801991011681019081106001600160401b038211176106b257604052565b81601f8201121561022f578035906001600160401b0382116106b25760405192612409601f8401601f1916602001856123b4565b8284526020838301011161022f57816000926020809301838601378301015290565b602435906001600160a01b038216820361022f57565b600435906001600160a01b038216820361022f57565b60005b83811061246a5750506000910152565b818101518382015260200161245a565b80548210156124925760005260206000200190600090565b634e487b7160e01b600052603260045260246000fd5b90600182811c921680156124d8575b60208310146124c257565b634e487b7160e01b600052602260045260246000fd5b91607f16916124b7565b600092918154916124f2836124a8565b8083529260018116908115612548575060011461250e57505050565b60009081526020812093945091925b83831061252e575060209250010190565b60018160209294939454838587010152019101919061251d565b915050602093945060ff929192191683830152151560051b010190565b90600a8210156122fa5752565b9060048210156122fa5752565b9060209161259881518092818552858086019101612457565b601f01601f1916010190565b6001600160401b0381116106b25760051b60200190565b600a8110156122fa576000526006602052604060002090565b156125db57565b60405162461bcd60e51b8152602060048201526012602482015271496e76616c696420646174652072616e676560701b6044820152606490fd5b60001981146123435760010190565b90600a8110156124925760051b0190565b9061263f826125a4565b61264c60405191826123b4565b828152809261265d601f19916125a4565b0190602036910137565b80518210156124925760209160051b010190565b1561268257565b60405162461bcd60e51b8152602060048201526014602482015273115b9d1c9e48191bd95cc81b9bdd08195e1a5cdd60621b6044820152606490fd5b8181106126c9575050565b600081556001016126be565b9190601f81116126e457505050565b612710926000526020600020906020601f840160051c83019310612712575b601f0160051c01906126be565b565b9091508190612703565b8054600160401b8110156106b2576127399160018201815561247a565b819291549060031b91821b91600019901b1916179055565b3360009081527f7d7ffb7a348e1c6a02869081a26547b49160dd3df72d1d75a570eb9b698292ec602052604090205460ff161561278a57565b63e2517d3f60e01b600052336004527fa49807205ce4d355092ef5a8a18f56e8913cf4a201fbe287825b095693c2177560245260446000fd5b3360009081527f3a23f3a59d99cc05771291f7d14db8dc89910c5edd6302658701a433d05c7fc0602052604090205460ff16156127fc57565b63e2517d3f60e01b600052336004527fb6f0283bd1ed00c6aa7e988a7516070240f3610a34d167391359b648eb37cefc60245260446000fd5b60008181526020818152604080832033845290915290205460ff16156128585750565b63e2517d3f60e01b6000523360045260245260446000fd5b6000818152602081815260408083206001600160a01b038616845290915290205460ff166128f4576000818152602081815260408083206001600160a01b0395909516808452949091528120805460ff19166001179055339291907f2f8788117e7eff1d82e926ec794901d17c78024a50270940304540a733656f0d9080a4600190565b5050600090565b6000818152602081815260408083206001600160a01b038616845290915290205460ff16156128f4576000818152602081815260408083206001600160a01b0395909516808452949091528120805460ff19169055339291907ff6391f5c32d9c69d2a47ea670b442974b53935d1edc7fd64eb21e047a839171b9080a4600190565b91906007548310156129f6576001600160a01b031660009081526008602052604090205460ff166129ef576129c3602060ff928160405193828580945193849201612457565b8101600981520301902054166129e9576402540be40011156129e457600090565b600190565b50600290565b5050600390565b50505060029056fea2646970667358221220a99a2acbdeaef5291e25e15c679abf656ae4e9e00a4dc2f3538f352fdc65308364736f6c634300081e00332f8788117e7eff1d82e926ec794901d17c78024a50270940304540a733656f0d7d7ffb7a348e1c6a02869081a26547b49160dd3df72d1d75a570eb9b698292ec3a23f3a59d99cc05771291f7d14db8dc89910c5edd6302658701a433d05c7fc0ad3228b676f7d3cd4284a5443f17f1962b36e491b30a40b2405849e597ba5fb5",
  "devdoc": {
    "details": "Provides categorization, tagging, and reporting for regulatory compliance",
    "errors": {
      "AccessControlBadConfirmation()": [
        {
          "details": "The caller of a function is not the expected one. NOTE: Don't confuse with {AccessControlUnauthorizedAccount}."
        }
      ],
      "AccessControlUnauthorizedAccount(address,bytes32)": [
        {
          "details": "The `account` is missing a role."
        }
      ],
      "EnforcedPause()": [
        {
          "details": "The operation failed because the contract is paused."
        }
      ],
      "ExpectedPause()": [
        {
          "details": "The operation failed because the contract is not paused."
        }
      ]
    },
    "events": {
      "Paused(address)": {
        "details": "Emitted when the pause is triggered by `account`."
      },
      "RoleAdminChanged(bytes32,bytes32,bytes32)": {
        "details": "Emitted when `newAdminRole` is set as ``role``'s admin role, replacing `previousAdminRole` `DEFAULT_ADMIN_ROLE` is the starting admin for all roles, despite {RoleAdminChanged} not being emitted signaling this."
      },
      "RoleGranted(bytes32,address,address)": {
        "details": "Emitted when `account` is granted `role`. `sender` is the account that originated the contract call, an admin role bearer except when using {AccessControl-_setupRole}."
      },
      "RoleRevoked(bytes32,address,address)": {
        "details": "Emitted when `account` is revoked `role`. `sender` is the account that originated the contract call:   - if using `revokeRole`, it is the admin role bearer   - if using `renounceRole`, it is the role bearer (i.e. `account`)"
      },
      "Unpaused(address)": {
        "details": "Emitted when the pause is lifted by `account`."
      }
    },
    "kind": "dev",
    "methods": {
      "getRoleAdmin(bytes32)": {
        "details": "Returns the admin role that controls `role`. See {grantRole} and {revokeRole}. To change a role's admin, use {_setRoleAdmin}."
      },
      "grantRole(bytes32,address)": {
        "details": "Grants `role` to `account`. If `account` had not been already granted `role`, emits a {RoleGranted} event. Requirements: - the caller must have ``role``'s admin role. May emit a {RoleGranted} event."
      },
      "hasRole(bytes32,address)": {
        "details": "Returns `true` if `account` has been granted `role`."
      },
      "paused()": {
        "details": "Returns true if the contract is paused, and false otherwise."
      },
      "renounceRole(bytes32,address)": {
        "details": "Revokes `role` from the calling account. Roles are often managed via {grantRole} and {revokeRole}: this function's purpose is to provide a mechanism for accounts to lose their privileges if they are compromised (such as when a trusted device is misplaced). If the calling account had been revoked `role`, emits a {RoleRevoked} event. Requirements: - the caller must be `callerConfirmation`. May emit a {RoleRevoked} event."
      },
      "revokeRole(bytes32,address)": {
        "details": "Revokes `role` from `account`. If `account` had been granted `role`, emits a {RoleRevoked} event. Requirements: - the caller must have ``role``'s admin role. May emit a {RoleRevoked} event."
      },
      "supportsInterface(bytes4)": {
        "details": "See {IERC165-supportsInterface}."
      }
    },
    "title": "ComplianceTracker",
    "version": 1
  },
  "userdoc": {
    "kind": "user",
    "methods": {
      "blacklistAddress(address,string)": {
        "notice": "Blacklist an address"
      },
      "flagEntry(uint256,string)": {
        "notice": "Flag an entry for review"
      },
      "getComplianceReport(uint256,uint256)": {
        "notice": "Generate compliance report summary"
      },
      "getEntriesByAmountRange(uint256,uint256)": {
        "notice": "Get entries by amount range"
      },
      "getEntriesByCategory(uint8)": {
        "notice": "Get entries by category"
      },
      "getEntriesByContract(address)": {
        "notice": "Get entries by contract"
      },
      "getEntriesByDateRange(uint256,uint256)": {
        "notice": "Get entries by date range"
      },
      "getEntry(uint256)": {
        "notice": "Get entry details"
      },
      "getFlaggedEntries()": {
        "notice": "Get all flagged entries"
      },
      "pause()": {
        "notice": "Pause contract (emergency)"
      },
      "recordEntry(bytes32,address,address,address,uint256,uint8,string,string,string)": {
        "notice": "Record a new compliance entry for a transaction"
      },
      "restrictJurisdiction(string)": {
        "notice": "Restrict a jurisdiction"
      },
      "reviewEntry(uint256,bool,string)": {
        "notice": "Review a flagged entry"
      },
      "setHighRiskThreshold(uint256)": {
        "notice": "Update high risk threshold"
      },
      "unpause()": {
        "notice": "Unpause contract"
      },
      "unrestrictJurisdiction(string)": {
        "notice": "Unrestrict a jurisdiction"
      },
      "updateEntry(uint256,string,string,bytes32[],string[])": {
        "notice": "Update compliance entry with additional information"
      },
      "whitelistAddress(address)": {
        "notice": "Whitelist an address (remove from blacklist)"
      }
    },
    "notice": "Tracks compliance metadata for all treasury transactions",
    "version": 1
  },
  "storageLayout": {
    "storage": [
      {
        "astId": 26,
        "contract": "contracts/ComplianceTracker.sol:ComplianceTracker",
        "label": "_roles",
        "offset": 0,
        "slot": "0",
        "type": "t_mapping(t_bytes32,t_struct(RoleData)21_storage)"
      },
      {
        "astId": 495,
        "contract": "contracts/ComplianceTracker.sol:ComplianceTracker",
        "label": "_paused",
        "offset": 0,
        "slot": "1",
        "type": "t_bool"
      },
      {
        "astId": 1865,
        "contract": "contracts/ComplianceTracker.sol:ComplianceTracker",
        "label": "entryCount",
        "offset": 0,
        "slot": "2",
        "type": "t_uint256"
      },
      {
        "astId": 1870,
        "contract": "contracts/ComplianceTracker.sol:ComplianceTracker",
        "label": "entries",
        "offset": 0,
        "slot": "3",
        "type": "t_mapping(t_uint256,t_struct(ComplianceEntry)1863_storage)"
      },
      {
        "astId": 1874,
        "contract": "contracts/ComplianceTracker.sol:ComplianceTracker",
        "label": "transactionHashToEntry",
        "offset": 0,
        "slot": "4",
        "type": "t_mapping(t_bytes32,t_uint256)"
      },
      {
        "astId": 1879,
        "contract": "contracts/ComplianceTracker.sol:ComplianceTracker",
        "label": "entriesByContract",
        "offset": 0,
        "slot": "5",
        "type": "t_mapping(t_address,t_array(t_uint256)dyn_storage)"
      },
      {
        "astId": 1885,
        "contract": "contracts/ComplianceTracker.sol:ComplianceTracker",
        "label": "entriesByCategory",
        "offset": 0,
        "slot": "6",
        "type": "t_mapping(t_enum(TransactionCategory)1811,t_array(t_uint256)dyn_storage)"
      },
      {
        "astId": 1892,
        "contract": "contracts/ComplianceTracker.sol:ComplianceTracker",
        "label": "highRiskThreshold",
        "offset": 0,
        "slot": "7",
        "type": "t_uint256"
      },
      {
        "astId": 1896,
        "contract": "contracts/ComplianceTracker.sol:ComplianceTracker",
        "label": "blacklistedAddresses",
        "offset": 0,
        "slot": "8",
        "type": "t_mapping(t_address,t_bool)"
      },
      {
        "astId": 1900,
        "contract": "contracts/ComplianceTracker.sol:ComplianceTracker",
        "label": "restrictedJurisdictions",
        "offset": 0,
        "slot": "9",
        "type": "t_mapping(t_string_memory_ptr,t_bool)"
      }
    ],
    "types": {
      "t_address": {
        "encoding": "inplace",
        "label": "address",
        "numberOfBytes": "20"
      },
      "t_array(t_bytes32)dyn_storage": {
        "base": "t_bytes32",
        "encoding": "dynamic_array",
        "label": "bytes32[]",
        "numberOfBytes": "32"
      },
      "t_array(t_string_storage)dyn_storage": {
        "base": "t_string_storage",
        "encoding": "dynamic_array",
        "label": "string[]",
        "numberOfBytes": "32"
      },
      "t_array(t_uint256)dyn_storage": {
        "base": "t_uint256",
        "encoding": "dynamic_array",
        "label": "uint256[]",
        "numberOfBytes": "32"
      },
      "t_bool": {
        "encoding": "inplace",
        "label": "bool",
        "numberOfBytes": "1"
      },
      "t_bytes32": {
        "encoding": "inplace",
        "label": "bytes32",
        "numberOfBytes": "32"
      },
      "t_enum(RiskLevel)1816": {
        "encoding": "inplace",
        "label": "enum ComplianceTracker.RiskLevel",
        "numberOfBytes": "1"
      },
      "t_enum(TransactionCategory)1811": {
        "encoding": "inplace",
        "label": "enum ComplianceTracker.TransactionCategory",
        "numberOfBytes": "1"
      },
      "t_mapping(t_address,t_array(t_uint256)dyn_storage)": {
        "encoding": "mapping",
        "key": "t_address",
        "label": "mapping(address => uint256[])",
        "numberOfBytes": "32",
        "value": "t_array(t_uint256)dyn_storage"
      },
      "t_mapping(t_address,t_bool)": {
        "encoding": "mapping",
        "key": "t_address",
        "label": "mapping(address => bool)",
        "numberOfBytes": "32",
        "value": "t_bool"
      },
      "t_mapping(t_bytes32,t_struct(RoleData)21_storage)": {
        "encoding": "mapping",
        "key": "t_bytes32",
        "label": "mapping(bytes32 => struct AccessControl.RoleData)",
        "numberOfBytes": "32",
        "value": "t_struct(RoleData)21_storage"
      },
      "t_mapping(t_bytes32,t_uint256)": {
        "encoding": "mapping",
        "key": "t_bytes32",
        "label": "mapping(bytes32 => uint256)",
        "numberOfBytes": "32",
        "value": "t_uint256"
      },
      "t_mapping(t_enum(TransactionCategory)1811,t_array(t_uint256)dyn_storage)": {
        "encoding": "mapping",
        "key": "t_enum(TransactionCategory)1811",
        "label": "mapping(enum ComplianceTracker.TransactionCategory => uint256[])",
        "numberOfBytes": "32",
        "value": "t_array(t_uint256)dyn_storage"
      },
      "t_mapping(t_string_memory_ptr,t_bool)": {
        "encoding": "mapping",
        "key": "t_string_memory_ptr",
        "label": "mapping(string => bool)",
        "numberOfBytes": "32",
        "value": "t_bool"
      },
      "t_mapping(t_uint256,t_struct(ComplianceEntry)1863_storage)": {
        "encoding": "mapping",
        "key": "t_uint256",
        "label": "mapping(uint256 => struct ComplianceTracker.ComplianceEntry)",
        "numberOfBytes": "32",
        "value": "t_struct(ComplianceEntry)1863_storage"
      },
      "t_string_memory_ptr": {
        "encoding": "bytes",
        "label": "string",
        "numberOfBytes": "32"
      },
      "t_string_storage": {
        "encoding": "bytes",
        "label": "string",
        "numberOfBytes": "32"
      },
      "t_struct(ComplianceEntry)1863_storage": {
        "encoding": "inplace",
        "label": "struct ComplianceTracker.ComplianceEntry",
        "members": [
          {
            "astId": 1818,
            "contract": "contracts/ComplianceTracker.sol:ComplianceTracker",
            "label": "id",
            "offset": 0,
            "slot": "0",
            "type": "t_uint256"
          },
          {
            "astId": 1820,
            "contract": "contracts/ComplianceTracker.sol:ComplianceTracker",
            "label": "transactionHash",
            "offset": 0,
            "slot": "1",
            "type": "t_bytes32"
          },
          {
            "astId": 1822,
            "contract": "contracts/ComplianceTracker.sol:ComplianceTracker",
            "label": "contractAddress",
            "offset": 0,
            "slot": "2",
            "type": "t_address"
          },
          {
            "astId": 1824,
            "contract": "contracts/ComplianceTracker.sol:ComplianceTracker",
            "label": "from",
            "offset": 0,
            "slot": "3",
            "type": "t_address"
          },
          {
            "astId": 1826,
            "contract": "contracts/ComplianceTracker.sol:ComplianceTracker",
            "label": "to",
            "offset": 0,
            "slot": "4",
            "type": "t_address"
          },
          {
            "astId": 1828,
            "contract": "contracts/ComplianceTracker.sol:ComplianceTracker",
            "label": "amount",
            "offset": 0,
            "slot": "5",
            "type": "t_uint256"
          },
          {
            "astId": 1831,
            "contract": "contracts/ComplianceTracker.sol:ComplianceTracker",
            "label": "category",
            "offset": 0,
            "slot": "6",
            "type": "t_enum(TransactionCategory)1811"
          },
          {
            "astId": 1834,
            "contract": "contracts/ComplianceTracker.sol:ComplianceTracker",
            "label": "riskLevel",
            "offset": 1,
            "slot": "6",
            "type": "t_enum(RiskLevel)1816"
          },
          {
            "astId": 1836,
            "contract": "contracts/ComplianceTracker.sol:ComplianceTracker",
            "label": "description",
            "offset": 0,
            "slot": "7",
            "type": "t_string_storage"
          },
          {
            "astId": 1838,
            "contract": "contracts/ComplianceTracker.sol:ComplianceTracker",
            "label": "purpose",
            "offset": 0,
            "slot": "8",
            "type": "t_string_storage"
          },
          {
            "astId": 1840,
            "contract": "contracts/ComplianceTracker.sol:ComplianceTracker",
            "label": "jurisdiction",
            "offset": 0,
            "slot": "9",
            "type": "t_string_storage"
          },
          {
            "astId": 1843,
            "contract": "contracts/ComplianceTracker.sol:ComplianceTracker",
            "label": "tags",
            "offset": 0,
            "slot": "10",
            "type": "t_array(t_bytes32)dyn_storage"
          },
          {
            "astId": 1846,
            "contract": "contracts/ComplianceTracker.sol:ComplianceTracker",
            "label": "attachments",
            "offset": 0,
            "slot": "11",
            "type": "t_array(t_string_storage)dyn_storage"
          },
          {
            "astId": 1848,
            "contract": "contracts/ComplianceTracker.sol:ComplianceTracker",
            "label": "timestamp",
            "offset": 0,
            "slot": "12",
            "type": "t_uint256"
          },
          {
            "astId": 1850,
            "contract": "contracts/ComplianceTracker.sol:ComplianceTracker",
            "label": "recordedBy",
            "offset": 0,
            "slot": "13",
            "type": "t_address"
          },
          {
            "astId": 1852,
            "contract": "contracts/ComplianceTracker.sol:ComplianceTracker",
            "label": "flagged",
            "offset": 20,
            "slot": "13",
            "type": "t_bool"
          },
          {
            "astId": 1854,
            "contract": "contracts/ComplianceTracker.sol:ComplianceTracker",
            "label": "flagReason",
            "offset": 0,
            "slot": "14",
            "type": "t_string_storage"
          },
          {
            "astId": 1856,
            "contract": "contracts/ComplianceTracker.sol:ComplianceTracker",
            "label": "reviewed",
            "offset": 0,
            "slot": "15",
            "type": "t_bool"
          },
          {
            "astId": 1858,
            "contract": "contracts/ComplianceTracker.sol:ComplianceTracker",
            "label": "reviewedBy",
            "offset": 1,
            "slot": "15",
            "type": "t_address"
          },
          {
            "astId": 1860,
            "contract": "contracts/ComplianceTracker.sol:ComplianceTracker",
            "label": "reviewedAt",
            "offset": 0,
            "slot": "16",
            "type": "t_uint256"
          },
          {
            "astId": 1862,
            "contract": "contracts/ComplianceTracker.sol:ComplianceTracker",
            "label": "reviewNotes",
            "offset": 0,
            "slot": "17",
            "type": "t_string_storage"
          }
        ],
        "numberOfBytes": "576"
      },
      "t_struct(RoleData)21_storage": {
        "encoding": "inplace",
        "label": "struct AccessControl.RoleData",
        "members": [
          {
            "astId": 18,
            "contract": "contracts/ComplianceTracker.sol:ComplianceTracker",
            "label": "hasRole",
            "offset": 0,
            "slot": "0",
            "type": "t_mapping(t_address,t_bool)"
          },
          {
            "astId": 20,
            "contract": "contracts/ComplianceTracker.sol:ComplianceTracker",
            "label": "adminRole",
            "offset": 0,
            "slot": "1",
            "type": "t_bytes32"
          }
        ],
        "numberOfBytes": "64"
      },
      "t_uint256": {
        "encoding": "inplace",
        "label": "uint256",
        "numberOfBytes": "32"
      }
    }
  }
}