{
  "address": "0xc4a1dFE961ea2b5C9cbfAEc4b43278Cc17ecED54",
  "abi": [
    {
      "inputs": [
        {
          "internalType": "address",
          "name": "_treasury",
          "type": "address"
        },
        {
          "internalType": "address",
          "name": "_usdc",
          "type": "address"
        }
      ],
      "stateMutability": "nonpayable",
      "type": "constructor"
    },
    {
      "anonymous": false,
      "inputs": [
        {
          "indexed": true,
          "internalType": "uint256",
          "name": "paymentId",
          "type": "uint256"
        },
        {
          "indexed": true,
          "internalType": "address",
          "name": "canceller",
          "type": "address"
        }
      ],
      "name": "PaymentCancelled",
      "type": "event"
    },
    {
      "anonymous": false,
      "inputs": [
        {
          "indexed": true,
          "internalType": "uint256",
          "name": "paymentId",
          "type": "uint256"
        },
        {
          "indexed": false,
          "internalType": "uint256",
          "name": "amount",
          "type": "uint256"
        },
        {
          "indexed": false,
          "internalType": "uint256",
          "name": "timestamp",
          "type": "uint256"
        }
      ],
      "name": "PaymentExecuted",
      "type": "event"
    },
    {
      "anonymous": false,
      "inputs": [
        {
          "indexed": true,
          "internalType": "uint256",
          "name": "paymentId",
          "type": "uint256"
        },
        {
          "indexed": false,
          "internalType": "string",
          "name": "reason",
          "type": "string"
        }
      ],
      "name": "PaymentFailed",
      "type": "event"
    },
    {
      "anonymous": false,
      "inputs": [
        {
          "indexed": true,
          "internalType": "uint256",
          "name": "paymentId",
          "type": "uint256"
        },
        {
          "indexed": true,
          "internalType": "address",
          "name": "recipient",
          "type": "address"
        },
        {
          "indexed": false,
          "internalType": "uint256",
          "name": "amount",
          "type": "uint256"
        },
        {
          "indexed": false,
          "internalType": "uint256",
          "name": "executeAt",
          "type": "uint256"
        },
        {
          "indexed": false,
          "internalType": "bool",
          "name": "recurring",
          "type": "bool"
        }
      ],
      "name": "PaymentScheduled",
      "type": "event"
    },
    {
      "anonymous": false,
      "inputs": [
        {
          "indexed": true,
          "internalType": "uint256",
          "name": "paymentId",
          "type": "uint256"
        },
        {
          "indexed": false,
          "internalType": "uint256",
          "name": "totalExecutions",
          "type": "uint256"
        }
      ],
      "name": "RecurringPaymentCompleted",
      "type": "event"
    },
    {
      "inputs": [],
      "name": "admin",
      "outputs": [
        {
          "internalType": "address",
          "name": "",
          "type": "address"
        }
      ],
      "stateMutability": "view",
      "type": "function"
    },
    {
      "inputs": [
        {
          "internalType": "uint256",
          "name": "_paymentId",
          "type": "uint256"
        }
      ],
      "name": "cancelScheduledPayment",
      "outputs": [],
      "stateMutability": "nonpayable",
      "type": "function"
    },
    {
      "inputs": [],
      "name": "executeAllDuePayments",
      "outputs": [
        {
          "internalType": "uint256",
          "name": "executed",
          "type": "uint256"
        }
      ],
      "stateMutability": "nonpayable",
      "type": "function"
    },
    {
      "inputs": [
        {
          "internalType": "uint256",
          "name": "_paymentId",
          "type": "uint256"
        }
      ],
      "name": "executeScheduledPayment",
      "outputs": [
        {
          "internalType": "bool",
          "name": "",
          "type": "bool"
        }
      ],
      "stateMutability": "nonpayable",
      "type": "function"
    },
    {
      "inputs": [],
      "name": "getBalance",
      "outputs": [
        {
          "internalType": "uint256",
          "name": "",
          "type": "uint256"
        }
      ],
      "stateMutability": "view",
      "type": "function"
    },
    {
      "inputs": [],
      "name": "getDuePayments",
      "outputs": [
        {
          "internalType": "uint256[]",
          "name": "",
          "type": "uint256[]"
        }
      ],
      "stateMutability": "view",
      "type": "function"
    },
    {
      "inputs": [
        {
          "internalType": "uint256",
          "name": "_paymentId",
          "type": "uint256"
        }
      ],
      "name": "getPaymentDetails",
      "outputs": [
        {
          "internalType": "address",
          "name": "recipient",
          "type": "address"
        },
        {
          "internalType": "uint256",
          "name": "amount",
          "type": "uint256"
        },
        {
          "internalType": "uint256",
          "name": "executeAt",
          "type": "uint256"
        },
        {
          "internalType": "bool",
          "name": "recurring",
          "type": "bool"
        },
        {
          "internalType": "uint256",
          "name": "executionCount",
          "type": "uint256"
        },
        {
          "internalType": "enum ScheduledPayments.PaymentStatus",
          "name": "status",
          "type": "uint8"
        },
        {
          "internalType": "string",
          "name": "description",
          "type": "string"
        }
      ],
      "stateMutability": "view",
      "type": "function"
    },
    {
      "inputs": [],
      "name": "getPendingPaymentIds",
      "outputs": [
        {
          "internalType": "uint256[]",
          "name": "",
          "type": "uint256[]"
        }
      ],
      "stateMutability": "view",
      "type": "function"
    },
    {
      "inputs": [],
      "name": "getTotalPendingAmount",
      "outputs": [
        {
          "internalType": "uint256",
          "name": "",
          "type": "uint256"
        }
      ],
      "stateMutability": "view",
      "type": "function"
    },
    {
      "inputs": [],
      "name": "getUpcomingPayments",
      "outputs": [
        {
          "internalType": "uint256[]",
          "name": "",
          "type": "uint256[]"
        }
      ],
      "stateMutability": "view",
      "type": "function"
    },
    {
      "inputs": [
        {
          "internalType": "uint256",
          "name": "_paymentId",
          "type": "uint256"
        }
      ],
      "name": "isPaymentDue",
      "outputs": [
        {
          "internalType": "bool",
          "name": "",
          "type": "bool"
        }
      ],
      "stateMutability": "view",
      "type": "function"
    },
    {
      "inputs": [
        {
          "internalType": "uint256",
          "name": "",
          "type": "uint256"
        }
      ],
      "name": "isPending",
      "outputs": [
        {
          "internalType": "bool",
          "name": "",
          "type": "bool"
        }
      ],
      "stateMutability": "view",
      "type": "function"
    },
    {
      "inputs": [],
      "name": "paymentCount",
      "outputs": [
        {
          "internalType": "uint256",
          "name": "",
          "type": "uint256"
        }
      ],
      "stateMutability": "view",
      "type": "function"
    },
    {
      "inputs": [
        {
          "internalType": "uint256",
          "name": "",
          "type": "uint256"
        }
      ],
      "name": "payments",
      "outputs": [
        {
          "internalType": "uint256",
          "name": "id",
          "type": "uint256"
        },
        {
          "internalType": "address",
          "name": "recipient",
          "type": "address"
        },
        {
          "internalType": "uint256",
          "name": "amount",
          "type": "uint256"
        },
        {
          "internalType": "uint256",
          "name": "executeAt",
          "type": "uint256"
        },
        {
          "internalType": "bool",
          "name": "recurring",
          "type": "bool"
        },
        {
          "internalType": "uint256",
          "name": "interval",
          "type": "uint256"
        },
        {
          "internalType": "uint256",
          "name": "executionCount",
          "type": "uint256"
        },
        {
          "internalType": "uint256",
          "name": "maxExecutions",
          "type": "uint256"
        },
        {
          "internalType": "enum ScheduledPayments.PaymentStatus",
          "name": "status",
          "type": "uint8"
        },
        {
          "internalType": "address",
          "name": "creator",
          "type": "address"
        },
        {
          "internalType": "uint256",
          "name": "createdAt",
          "type": "uint256"
        },
        {
          "internalType": "uint256",
          "name": "lastExecutedAt",
          "type": "uint256"
        },
        {
          "internalType": "string",
          "name": "description",
          "type": "string"
        }
      ],
      "stateMutability": "view",
      "type": "function"
    },
    {
      "inputs": [
        {
          "internalType": "uint256",
          "name": "",
          "type": "uint256"
        }
      ],
      "name": "pendingPayments",
      "outputs": [
        {
          "internalType": "uint256",
          "name": "",
          "type": "uint256"
        }
      ],
      "stateMutability": "view",
      "type": "function"
    },
    {
      "inputs": [
        {
          "internalType": "address",
          "name": "_recipient",
          "type": "address"
        },
        {
          "internalType": "uint256",
          "name": "_amount",
          "type": "uint256"
        },
        {
          "internalType": "uint256",
          "name": "_executeAt",
          "type": "uint256"
        },
        {
          "internalType": "bool",
          "name": "_recurring",
          "type": "bool"
        },
        {
          "internalType": "uint256",
          "name": "_interval",
          "type": "uint256"
        },
        {
          "internalType": "uint256",
          "name": "_maxExecutions",
          "type": "uint256"
        },
        {
          "internalType": "string",
          "name": "_description",
          "type": "string"
        }
      ],
      "name": "schedulePayment",
      "outputs": [
        {
          "internalType": "uint256",
          "name": "",
          "type": "uint256"
        }
      ],
      "stateMutability": "nonpayable",
      "type": "function"
    },
    {
      "inputs": [],
      "name": "treasury",
      "outputs": [
        {
          "internalType": "address",
          "name": "",
          "type": "address"
        }
      ],
      "stateMutability": "view",
      "type": "function"
    },
    {
      "inputs": [],
      "name": "usdc",
      "outputs": [
        {
          "internalType": "contract IERC20",
          "name": "",
          "type": "address"
        }
      ],
      "stateMutability": "view",
      "type": "function"
    },
    {
      "stateMutability": "payable",
      "type": "receive"
    }
  ],
  "transactionHash": "0x23d201c2e99d28fee8ca3580e2286421fddb44cf852960c2c9c8a25fc460314c",
  "args": [
    "0xcee3Bb02aE95E1Dbc2e5C51a502Ac6eC5deEFa81",
    "0x1c7D4B196Cb0C7B01d743Fbc6116a902379C7238"
  ],
  "numDeployments": 1,
  "solcInputHash": "c8cc5f07fcb48433307ce8656020ab61",
  "bytecode": "0x60803461012d57601f61186038819003918201601f19168301916001600160401b0383118484101761013257808492604094855283398101031261012d57610052602061004b83610148565b9201610148565b6001600160a01b039091169081156100f5576001600160a01b03169081156100b057600080546001600160a01b03199081169290921790556001805482163317905560028054909116919091179055604051611703908161015d8239f35b60405162461bcd60e51b815260206004820152601460248201527f496e76616c6964205553444320616464726573730000000000000000000000006044820152606490fd5b60405162461bcd60e51b815260206004820152601060248201526f496e76616c696420747265617375727960801b6044820152606490fd5b600080fd5b634e487b7160e01b600052604160045260246000fd5b51906001600160a01b038216820361012d5756fe6080604052600436101561001b575b361561001957600080fd5b005b60003560e01c8063061a128914610aef5780630937e68a14610ad15780630e3fdfd214610a7057806312065fe0146109e75780633e413bee146109be578063614422881461088f57806361d027b31461086657806387d817891461078257806395a6a300146106ff57806398c1737c146105d05780639e70df211461047b578063a27bc4d2146103df578063afcc5027146103a7578063ca8836d214610376578063d2e6599214610273578063e816e87f14610149578063f851a440146101205763fb8cf5d60361000e573461011b57602036600319011261011b57602061011160043561010c60045482106112bf565b611346565b6040519015158152f35b600080fd5b3461011b57600036600319011261011b576001546040516001600160a01b039091168152602090f35b3461011b57602036600319011261011b5760043561016a60045482106112bf565b600052600360205260406000206040519061018482610fef565b8054825260018060a01b036001820154166020830152600281015460408301526003810154916060810192835260ff60048301541615156080820152600582015460a0820152600682015460c0820152600782015460e082015261018061022d600b6008850154946101008501956101ff60ff821688611239565b60081c6001600160a01b03166101208601526009810154610140860152600a810154610160860152016110d4565b9101525190600482101561025d57602091159081610251575b506040519015158152f35b90505142101582610246565b634e487b7160e01b600052602160045260246000fd5b3461011b57600036600319011261011b5762093a804201804211610360576005546000805b82811061031b57506102a990611279565b9160009060005b8381106102c957604051806102c58782611060565b0390f35b6102d2816111c6565b90549060031b1c8060005260036020528260036040600020015411156102fc575b506001016102b0565b836103149161030e60019496896112ab565b52611245565b92906102f3565b610324816111c6565b90549060031b1c600052600360205283600360406000200154111561034c575b600101610298565b90610358600191611245565b919050610344565b634e487b7160e01b600052601160045260246000fd5b3461011b57602036600319011261011b576004356000526006602052602060ff604060002054166040519015158152f35b3461011b57602036600319011261011b5760043560055481101561011b576103d06020916111c6565b90549060031b1c604051908152f35b3461011b57602036600319011261011b5760043561040860018060a01b036001541633146111f7565b61041560045482106112bf565b806000526003602052600860406000200160ff815416600481101561025d5761043e9015611304565b805460ff1916600217905561045281611604565b33907f30a08ef9eaeaf2d34d7553f94912a1bc85c07dd3194cc2d4628cf269331079ef600080a3005b3461011b57602036600319011261011b5760043561049c60045482106112bf565b60005260036020526040600020604051906104b682610fef565b8054825260018060a01b0360018201541660208301908152600282015491604084019283526003810154936060810194855260ff60048301541691608082019215158352600581015460a083015260068101549360c08301948552600782015460e084015261018061056a600b60088501549461010087019561053c60ff821688611239565b60081c6001600160a01b03166101208801526009810154610140880152600a810154610160880152016110d4565b930192835260018060a01b0390511694519551925115159351905190600482101561025d576102c5946105bf9351946040519889988952602089015260408801526060870152608086015260a0850190611178565b60e060c084015260e0830190611185565b3461011b57600036600319011261011b576000805b6005548110156106f4576105f8816111c6565b90549060031b1c806000526003602052604060002060ff600882015416600481101561025d571590816106e5575b816106d5575b5061063b575b506001016105e5565b60405190637dc67aeb60e11b825260048201526020816024816000305af19081156106c957600091610688575b50610674575b82610632565b90610680600191611245565b91905061066e565b6020813d82116106c1575b816106a060209383611022565b810103126106bd57519081151582036106ba575083610668565b80fd5b5080fd5b3d9150610693565b6040513d6000823e3d90fd5b905060024791015411158461062c565b60038101544210159150610626565b602082604051908152f35b3461011b57600036600319011261011b5760405180602060055491828152019060056000527f036b6384b5eca791c62761152d0c79bb0604c104a5fb6f4eb0703f3154bb3db09060005b81811061076c576102c58561076081870382611022565b60405191829182611060565b8254845260209093019260019283019201610749565b3461011b57602036600319011261011b576004356000526003602052604060002080546102c560018060a01b0360018401541692600281015490600381015460ff600483015416600583015460068401546007850154916008860154936009870154956107f6600b600a8a015499016110d4565b986040519c8d9c8d5260208d015260408c015260608b0152151560808a015260a089015260c088015260e0870152610835610100870160ff8316611178565b60081c6001600160a01b03166101208601526101408501526101608401526101a06101808401819052830190611185565b3461011b57600036600319011261011b576000546040516001600160a01b039091168152602090f35b3461011b57600036600319011261011b576005546000805b82811061094a57506108b890611279565b60009160005b8181106108d357604051806102c58582611060565b6108dc816111c6565b90549060031b1c80600052600360205260ff60086040600020015416600481101561025d57158061092f575b610916575b506001016108be565b846109289161030e60019497876112ab565b939061090d565b50806000526003602052600360406000200154421015610908565b610953816111c6565b90549060031b1c80600052600360205260ff60086040600020015416600481101561025d571590816109a2575b5061098e575b6001016108a7565b9061099a600191611245565b919050610986565b9050600052600360205260036040600020015442101584610980565b3461011b57600036600319011261011b576002546040516001600160a01b039091168152602090f35b3461011b57600036600319011261011b576002546040516370a0823160e01b815230600482015290602090829060249082906001600160a01b03165afa80156106c957600090610a3d575b602090604051908152f35b506020813d602011610a68575b81610a5760209383611022565b8101031261011b5760209051610a32565b3d9150610a4a565b3461011b57600036600319011261011b576000806005545b808310610a9a57602082604051908152f35b90610ac8600191610aaa856111c6565b90549060031b1c600052600360205260026040600020015490611254565b92019190610a88565b3461011b57600036600319011261011b576020600454604051908152f35b3461011b5760e036600319011261011b576004356001600160a01b0381169081900361011b57602435604435916064359182151580840361011b576084359460c4359467ffffffffffffffff861161011b573660238701121561011b578560040135610b5a81611044565b96610b686040519889611022565b818852366024838301011161011b5781600092602460209301838b013788010152610b9e60018060a01b036001541633146111f7565b8415610fb6578315610f715742821115610f2d57610ed2575b60045494604051610bc781610fef565b8681526020810190868252876040820192878452606083019a868c52608084019088825260a0850190815260c08501906000825260e086019260a435845261010087019e8f60009052610120880198338a526101408901964288526101608a019860008a526101808b019c8d526000526003602052604060002099518a5560018a0190600160a01b600190039051166bffffffffffffffffffffffff60a01b825416179055516002890155516003880155600487019051151560ff198254169060ff16179055516005860155516006850155516007840155600883019a519a60048c101561025d57805494516001600160a81b031990951660ff909c169b909b1760089490941b610100600160a81b031693909317909955905160098201559651600a880155518051600097600b019167ffffffffffffffff8211610ebe578190610d12845461109a565b601f8111610e6e575b50602090601f8311600114610e0b578a92610e00575b50508160011b916000199060031b1c19161790555b60055468010000000000000000811015610dec57927fa7647c6f4596a2492810ef8372779c45a0f3e7c5a82739787caa69128227de09926060926040602099610db38a610d9a8a6001839c016005556111c6565b90919082549060031b91821b91600019901b1916179055565b87815260068b5220600160ff19825416179055610dd1600454611245565b600455604051928352888301526040820152a3604051908152f35b634e487b7160e01b87526041600452602487fd5b015190508980610d31565b848b52818b209250601f1984168b5b818110610e565750908460019594939210610e3d575b505050811b019055610d46565b015160001960f88460031b161c19169055898080610e30565b92936020600181928786015181550195019301610e1a565b909150838a5260208a20601f840160051c81019160208510610eb4575b90601f859493920160051c01905b818110610ea65750610d1b565b8b8155849350600101610e99565b9091508190610e8b565b634e487b7160e01b89526041600452602489fd5b85610bb75760405162461bcd60e51b815260206004820152602860248201527f496e74657276616c20726571756972656420666f7220726563757272696e67206044820152677061796d656e747360c01b6064820152608490fd5b606460405162461bcd60e51b815260206004820152602060248201527f457865637574696f6e2074696d65206d75737420626520696e206675747572656044820152fd5b60405162461bcd60e51b815260206004820152601d60248201527f416d6f756e74206d7573742062652067726561746572207468616e20300000006044820152606490fd5b60405162461bcd60e51b8152602060048201526011602482015270125b9d985b1a59081c9958da5c1a595b9d607a1b6044820152606490fd5b6101a0810190811067ffffffffffffffff82111761100c57604052565b634e487b7160e01b600052604160045260246000fd5b90601f8019910116810190811067ffffffffffffffff82111761100c57604052565b67ffffffffffffffff811161100c57601f01601f191660200190565b602060408183019282815284518094520192019060005b8181106110845750505090565b8251845260209384019390920191600101611077565b90600182811c921680156110ca575b60208310146110b457565b634e487b7160e01b600052602260045260246000fd5b91607f16916110a9565b90604051918260008254926110e88461109a565b8084529360018116908115611156575060011461110f575b5061110d92500383611022565b565b90506000929192526020600020906000915b81831061113a57505090602061110d9282010138611100565b6020919350806001915483858901015201910190918492611121565b90506020925061110d94915060ff191682840152151560051b82010138611100565b90600482101561025d5752565b919082519283825260005b8481106111b1575050826000602080949584010152601f8019910116010190565b80602080928401015182828601015201611190565b6005548110156111e157600560005260206000200190600090565b634e487b7160e01b600052603260045260246000fd5b156111fe57565b60405162461bcd60e51b815260206004820152601360248201527213db9b1e4818591b5a5b8818d85b8818d85b1b606a1b6044820152606490fd5b600482101561025d5752565b60001981146103605760010190565b9190820180921161036057565b67ffffffffffffffff811161100c5760051b60200190565b9061128382611261565b6112906040519182611022565b82815280926112a1601f1991611261565b0190602036910137565b80518210156111e15760209160051b010190565b156112c657565b60405162461bcd60e51b815260206004820152601660248201527514185e5b595b9d08191bd95cc81b9bdd08195e1a5cdd60521b6044820152606490fd5b1561130b57565b60405162461bcd60e51b81526020600482015260136024820152725061796d656e74206e6f742070656e64696e6760681b6044820152606490fd5b80600052600360205260406000206008810160ff815416600481101561025d576113709015611304565b6003820191825442106115c9574792600282019384541161158d5760078201918254801515908161157e575b5061153057600080808060018060a01b036001860154168954905af13d1561152b573d6113c881611044565b906113d66040519283611022565b8152600060203d92013e5b156114d757857fb5287fd929180595909b1e43982aa47d5b64f7920ccf127ea155b7736cc42595604060068401976114198954611245565b895542600a860155548151908152426020820152a2600481015460ff16156114b957600561144991015442611254565b90555480151590816114ad575b50611464575b505050600190565b805460ff191660011790557f1c166ec7c8742e9996d4c1d0ae9a1f7c68634e1f9f185de690b34d72616862819060209061149d84611604565b54604051908152a238808061145c565b90508254101538611456565b5050506114d2929150600160ff19825416179055611604565b600190565b50505050507f6b1332fdcceb2466007cd58e6d40cd189c03eaad7aa25c20c2015d25f1a4ad43606060405160208152600f60208201526e151c985b9cd9995c8819985a5b1959608a1b6040820152a2600090565b6113e1565b835460ff1916600117909355507f1c166ec7c8742e9996d4c1d0ae9a1f7c68634e1f9f185de690b34d726168628192506020916006915061157085611604565b0154604051908152a2600090565b9050600682015410153861139c565b60405162461bcd60e51b8152602060048201526014602482015273496e73756666696369656e742062616c616e636560601b6044820152606490fd5b60405162461bcd60e51b815260206004820152601360248201527214185e5b595b9d081b9bdd08191d59481e595d606a1b6044820152606490fd5b80600052600660205260ff60406000205416156116ca576000818152600660205260408120805460ff191690555b600554808210156116c55782611647836111c6565b90549060031b1c1461165c5750600101611632565b60001981019250821161036057610d9a611678611685936111c6565b90549060031b1c916111c6565b60055480156116af576000190161169b816111c6565b8154906000199060031b1b19169055600555565b634e487b7160e01b600052603160045260246000fd5b505050565b5056fea2646970667358221220cadff25d08dbb16eca86a574c068124a6f79e56486e21993df3c0cd14f93692f64736f6c634300081e0033",
  "devdoc": {
    "details": "Handles one-time and recurring payments with time-based execution",
    "kind": "dev",
    "methods": {
      "cancelScheduledPayment(uint256)": {
        "params": {
          "_paymentId": "Payment ID"
        }
      },
      "constructor": {
        "params": {
          "_treasury": "Treasury contract address",
          "_usdc": "USDC token address"
        }
      },
      "executeAllDuePayments()": {
        "returns": {
          "executed": "Number of payments executed"
        }
      },
      "executeScheduledPayment(uint256)": {
        "params": {
          "_paymentId": "Payment ID"
        }
      },
      "getBalance()": {
        "returns": {
          "_0": "balance Current USDC balance"
        }
      },
      "getDuePayments()": {
        "returns": {
          "_0": "dueIds Array of due payment IDs"
        }
      },
      "getPaymentDetails(uint256)": {
        "params": {
          "_paymentId": "Payment ID"
        },
        "returns": {
          "amount": "Payment amount",
          "description": "Payment description",
          "executeAt": "Execution timestamp",
          "executionCount": "Number of executions",
          "recipient": "Payment recipient",
          "recurring": "Recurring status",
          "status": "Payment status"
        }
      },
      "getPendingPaymentIds()": {
        "returns": {
          "_0": "Array of pending payment IDs"
        }
      },
      "getTotalPendingAmount()": {
        "returns": {
          "_0": "total Total pending amount"
        }
      },
      "getUpcomingPayments()": {
        "returns": {
          "_0": "upcomingIds Array of upcoming payment IDs"
        }
      },
      "isPaymentDue(uint256)": {
        "params": {
          "_paymentId": "Payment ID"
        },
        "returns": {
          "_0": "bool Payment due status"
        }
      },
      "schedulePayment(address,uint256,uint256,bool,uint256,uint256,string)": {
        "params": {
          "_amount": "Payment amount",
          "_description": "Payment description",
          "_executeAt": "Execution timestamp",
          "_interval": "Interval for recurring payments (seconds)",
          "_maxExecutions": "Maximum executions (0 = unlimited)",
          "_recipient": "Payment recipient",
          "_recurring": "Whether payment is recurring"
        },
        "returns": {
          "_0": "paymentId Payment ID"
        }
      }
    },
    "title": "ScheduledPayments",
    "version": 1
  },
  "userdoc": {
    "kind": "user",
    "methods": {
      "cancelScheduledPayment(uint256)": {
        "notice": "Cancel a scheduled payment"
      },
      "constructor": {
        "notice": "Initialize scheduled payments"
      },
      "executeAllDuePayments()": {
        "notice": "Execute all due payments"
      },
      "executeScheduledPayment(uint256)": {
        "notice": "Execute a scheduled payment"
      },
      "getBalance()": {
        "notice": "Get USDC balance of this contract"
      },
      "getDuePayments()": {
        "notice": "Get due payments"
      },
      "getPaymentDetails(uint256)": {
        "notice": "Get payment details"
      },
      "getPendingPaymentIds()": {
        "notice": "Get all pending payment IDs"
      },
      "getTotalPendingAmount()": {
        "notice": "Get total pending payment amount"
      },
      "getUpcomingPayments()": {
        "notice": "Get upcoming payments (next 7 days)"
      },
      "isPaymentDue(uint256)": {
        "notice": "Check if payment is due"
      },
      "schedulePayment(address,uint256,uint256,bool,uint256,uint256,string)": {
        "notice": "Schedule a new payment"
      }
    },
    "notice": "Automated scheduled payment system for treasury operations",
    "version": 1
  },
  "storageLayout": {
    "storage": [
      {
        "astId": 5234,
        "contract": "contracts/ScheduledPayments.sol:ScheduledPayments",
        "label": "treasury",
        "offset": 0,
        "slot": "0",
        "type": "t_address"
      },
      {
        "astId": 5236,
        "contract": "contracts/ScheduledPayments.sol:ScheduledPayments",
        "label": "admin",
        "offset": 0,
        "slot": "1",
        "type": "t_address"
      },
      {
        "astId": 5239,
        "contract": "contracts/ScheduledPayments.sol:ScheduledPayments",
        "label": "usdc",
        "offset": 0,
        "slot": "2",
        "type": "t_contract(IERC20)456"
      },
      {
        "astId": 5244,
        "contract": "contracts/ScheduledPayments.sol:ScheduledPayments",
        "label": "payments",
        "offset": 0,
        "slot": "3",
        "type": "t_mapping(t_uint256,t_struct(ScheduledPayment)5232_storage)"
      },
      {
        "astId": 5246,
        "contract": "contracts/ScheduledPayments.sol:ScheduledPayments",
        "label": "paymentCount",
        "offset": 0,
        "slot": "4",
        "type": "t_uint256"
      },
      {
        "astId": 5249,
        "contract": "contracts/ScheduledPayments.sol:ScheduledPayments",
        "label": "pendingPayments",
        "offset": 0,
        "slot": "5",
        "type": "t_array(t_uint256)dyn_storage"
      },
      {
        "astId": 5253,
        "contract": "contracts/ScheduledPayments.sol:ScheduledPayments",
        "label": "isPending",
        "offset": 0,
        "slot": "6",
        "type": "t_mapping(t_uint256,t_bool)"
      }
    ],
    "types": {
      "t_address": {
        "encoding": "inplace",
        "label": "address",
        "numberOfBytes": "20"
      },
      "t_array(t_uint256)dyn_storage": {
        "base": "t_uint256",
        "encoding": "dynamic_array",
        "label": "uint256[]",
        "numberOfBytes": "32"
      },
      "t_bool": {
        "encoding": "inplace",
        "label": "bool",
        "numberOfBytes": "1"
      },
      "t_contract(IERC20)456": {
        "encoding": "inplace",
        "label": "contract IERC20",
        "numberOfBytes": "20"
      },
      "t_enum(PaymentStatus)5204": {
        "encoding": "inplace",
        "label": "enum ScheduledPayments.PaymentStatus",
        "numberOfBytes": "1"
      },
      "t_mapping(t_uint256,t_bool)": {
        "encoding": "mapping",
        "key": "t_uint256",
        "label": "mapping(uint256 => bool)",
        "numberOfBytes": "32",
        "value": "t_bool"
      },
      "t_mapping(t_uint256,t_struct(ScheduledPayment)5232_storage)": {
        "encoding": "mapping",
        "key": "t_uint256",
        "label": "mapping(uint256 => struct ScheduledPayments.ScheduledPayment)",
        "numberOfBytes": "32",
        "value": "t_struct(ScheduledPayment)5232_storage"
      },
      "t_string_storage": {
        "encoding": "bytes",
        "label": "string",
        "numberOfBytes": "32"
      },
      "t_struct(ScheduledPayment)5232_storage": {
        "encoding": "inplace",
        "label": "struct ScheduledPayments.ScheduledPayment",
        "members": [
          {
            "astId": 5206,
            "contract": "contracts/ScheduledPayments.sol:ScheduledPayments",
            "label": "id",
            "offset": 0,
            "slot": "0",
            "type": "t_uint256"
          },
          {
            "astId": 5208,
            "contract": "contracts/ScheduledPayments.sol:ScheduledPayments",
            "label": "recipient",
            "offset": 0,
            "slot": "1",
            "type": "t_address"
          },
          {
            "astId": 5210,
            "contract": "contracts/ScheduledPayments.sol:ScheduledPayments",
            "label": "amount",
            "offset": 0,
            "slot": "2",
            "type": "t_uint256"
          },
          {
            "astId": 5212,
            "contract": "contracts/ScheduledPayments.sol:ScheduledPayments",
            "label": "executeAt",
            "offset": 0,
            "slot": "3",
            "type": "t_uint256"
          },
          {
            "astId": 5214,
            "contract": "contracts/ScheduledPayments.sol:ScheduledPayments",
            "label": "recurring",
            "offset": 0,
            "slot": "4",
            "type": "t_bool"
          },
          {
            "astId": 5216,
            "contract": "contracts/ScheduledPayments.sol:ScheduledPayments",
            "label": "interval",
            "offset": 0,
            "slot": "5",
            "type": "t_uint256"
          },
          {
            "astId": 5218,
            "contract": "contracts/ScheduledPayments.sol:ScheduledPayments",
            "label": "executionCount",
            "offset": 0,
            "slot": "6",
            "type": "t_uint256"
          },
          {
            "astId": 5220,
            "contract": "contracts/ScheduledPayments.sol:ScheduledPayments",
            "label": "maxExecutions",
            "offset": 0,
            "slot": "7",
            "type": "t_uint256"
          },
          {
            "astId": 5223,
            "contract": "contracts/ScheduledPayments.sol:ScheduledPayments",
            "label": "status",
            "offset": 0,
            "slot": "8",
            "type": "t_enum(PaymentStatus)5204"
          },
          {
            "astId": 5225,
            "contract": "contracts/ScheduledPayments.sol:ScheduledPayments",
            "label": "creator",
            "offset": 1,
            "slot": "8",
            "type": "t_address"
          },
          {
            "astId": 5227,
            "contract": "contracts/ScheduledPayments.sol:ScheduledPayments",
            "label": "createdAt",
            "offset": 0,
            "slot": "9",
            "type": "t_uint256"
          },
          {
            "astId": 5229,
            "contract": "contracts/ScheduledPayments.sol:ScheduledPayments",
            "label": "lastExecutedAt",
            "offset": 0,
            "slot": "10",
            "type": "t_uint256"
          },
          {
            "astId": 5231,
            "contract": "contracts/ScheduledPayments.sol:ScheduledPayments",
            "label": "description",
            "offset": 0,
            "slot": "11",
            "type": "t_string_storage"
          }
        ],
        "numberOfBytes": "384"
      },
      "t_uint256": {
        "encoding": "inplace",
        "label": "uint256",
        "numberOfBytes": "32"
      }
    }
  }
}