{
  "address": "0x5ac2081a1C50361458421840053063F6957b2fA5",
  "abi": [
    {
      "inputs": [
        {
          "internalType": "address",
          "name": "_treasuryCore",
          "type": "address"
        },
        {
          "internalType": "address",
          "name": "_payrollManager",
          "type": "address"
        },
        {
          "internalType": "address",
          "name": "_budgetAllocator",
          "type": "address"
        },
        {
          "internalType": "address",
          "name": "_scheduledPayments",
          "type": "address"
        }
      ],
      "stateMutability": "nonpayable",
      "type": "constructor"
    },
    {
      "inputs": [],
      "name": "budgetAllocator",
      "outputs": [
        {
          "internalType": "contract BudgetAllocator",
          "name": "",
          "type": "address"
        }
      ],
      "stateMutability": "view",
      "type": "function"
    },
    {
      "inputs": [],
      "name": "getBasicStats",
      "outputs": [
        {
          "internalType": "uint256",
          "name": "totalEmployees",
          "type": "uint256"
        },
        {
          "internalType": "uint256",
          "name": "totalDepartments",
          "type": "uint256"
        },
        {
          "internalType": "uint256",
          "name": "totalScheduledPayments",
          "type": "uint256"
        },
        {
          "internalType": "uint256",
          "name": "totalTransactions",
          "type": "uint256"
        }
      ],
      "stateMutability": "view",
      "type": "function"
    },
    {
      "inputs": [],
      "name": "getTreasurySnapshot",
      "outputs": [
        {
          "components": [
            {
              "internalType": "uint256",
              "name": "totalBalance",
              "type": "uint256"
            },
            {
              "internalType": "uint256",
              "name": "treasuryBalance",
              "type": "uint256"
            },
            {
              "internalType": "uint256",
              "name": "payrollBalance",
              "type": "uint256"
            },
            {
              "internalType": "uint256",
              "name": "budgetBalance",
              "type": "uint256"
            },
            {
              "internalType": "uint256",
              "name": "scheduledBalance",
              "type": "uint256"
            },
            {
              "internalType": "uint256",
              "name": "timestamp",
              "type": "uint256"
            }
          ],
          "internalType": "struct TreasuryAggregatorSimple.TreasurySnapshot",
          "name": "",
          "type": "tuple"
        }
      ],
      "stateMutability": "view",
      "type": "function"
    },
    {
      "inputs": [],
      "name": "payrollManager",
      "outputs": [
        {
          "internalType": "contract PayrollManager",
          "name": "",
          "type": "address"
        }
      ],
      "stateMutability": "view",
      "type": "function"
    },
    {
      "inputs": [],
      "name": "scheduledPayments",
      "outputs": [
        {
          "internalType": "contract ScheduledPayments",
          "name": "",
          "type": "address"
        }
      ],
      "stateMutability": "view",
      "type": "function"
    },
    {
      "inputs": [],
      "name": "treasuryCore",
      "outputs": [
        {
          "internalType": "contract TreasuryCore",
          "name": "",
          "type": "address"
        }
      ],
      "stateMutability": "view",
      "type": "function"
    }
  ],
  "transactionHash": "0x825a8235ecfd7ef3559c75019c1868d4cbbac52748c2db69d8b105d9dd201ae3",
  "args": [
    "0xcee3Bb02aE95E1Dbc2e5C51a502Ac6eC5deEFa81",
    "0x4D2a7873Ab6CE048532d22f6D9D572E217c5e128",
    "0x1438D8a1866ABe4267187369888562CEC19bCA92",
    "0xc4a1dFE961ea2b5C9cbfAEc4b43278Cc17ecED54"
  ],
  "numDeployments": 1,
  "solcInputHash": "c8cc5f07fcb48433307ce8656020ab61",
  "bytecode": "0x60803460bd57601f6106d938819003918201601f19168301916001600160401b0383118484101760c25780849260809460405283398101031260bd5760428160d8565b90604d6020820160d8565b60616060605b6040850160d8565b930160d8565b600080546001600160a01b03199081166001600160a01b0396871617909155600180548216938616939093179092556002805483169385169390931790925560038054909116919092161790556040516105ed90816100ec8239f35b600080fd5b634e487b7160e01b600052604160045260246000fd5b51906001600160a01b038216820360bd5756fe608080604052600436101561001357600080fd5b60003560e01c908163443c88441461051c575080636ace1488146104f35780638b695a0414610326578063965501c7146102fd578063c08e7c711461008f5763d0b678341461006157600080fd5b3461008a57600036600319011261008a576000546040516001600160a01b039091168152602090f35b600080fd5b3461008a57600036600319011261008a57600060a06040516100b081610540565b82815282602082015282604082015282606082015282608082015201526004602060018060a01b036000541660405192838092629032ff60e51b82525afa90811561024c576000916102c6575b50600154604051629032ff60e51b81529190602090839060049082906001600160a01b03165afa91821561024c5760009261028f575b50600254604051629032ff60e51b8152929190602090849060049082906001600160a01b03165afa92831561024c57600093610258575b50600354604051629032ff60e51b81529390602090859060049082906001600160a01b03165afa93841561024c57600094610215575b5092836101bc826101b760c0976101b78888610594565b610594565b9360a06040516101cb81610540565b8681526020810195865260408101928352606081019384526080810194855201934285526040519586525160208601525160408501525160608401525160808301525160a0820152f35b6020813d602011610244575b8161022e60209383610572565b810103126102405751935060c06101a0565b8480fd5b3d9150610221565b6040513d6000823e3d90fd5b6020813d602011610287575b8161027160209383610572565b8101031261028357519250600461016a565b8380fd5b3d9150610264565b6020813d6020116102be575b816102a860209383610572565b810103126102ba575191506004610133565b8280fd5b3d915061029b565b6020813d6020116102f5575b816102df60209383610572565b810103126102f15751905060046100fd565b5080fd5b3d91506102d2565b3461008a57600036600319011261008a576001546040516001600160a01b039091168152602090f35b3461008a57600036600319011261008a576001546040516352b9b97360e01b815290602090829060049082906001600160a01b03165afa801561024c576000906104c0575b60025460405163aaa3cd4760e01b81529250602090839060049082906001600160a01b03165afa801561024c5760009061048d575b60035460405163049bf34560e11b81529350602090849060049082906001600160a01b03165afa801561024c5760009061045a575b600054604051625bbdfb60e91b81529450602090859060049082906001600160a01b03165afa91821561024c57600092610425575b60809450604051938452602084015260408301526060820152f35b91506020843d602011610452575b8161044060209383610572565b8101031261008a57608093519161040a565b3d9150610433565b506020833d602011610485575b8161047460209383610572565b8101031261008a57600492516103d5565b3d9150610467565b506020823d6020116104b8575b816104a760209383610572565b8101031261008a57600491516103a0565b3d915061049a565b506020813d6020116104eb575b816104da60209383610572565b8101031261008a576004905161036b565b3d91506104cd565b3461008a57600036600319011261008a576002546040516001600160a01b039091168152602090f35b3461008a57600036600319011261008a576003546001600160a01b03168152602090f35b60c0810190811067ffffffffffffffff82111761055c57604052565b634e487b7160e01b600052604160045260246000fd5b90601f8019910116810190811067ffffffffffffffff82111761055c57604052565b919082018092116105a157565b634e487b7160e01b600052601160045260246000fdfea2646970667358221220fb33c0272e009b53bb167df874410acfc23a9fd302a34b747cb20cd90d8b0a5064736f6c634300081e0033",
  "devdoc": {
    "kind": "dev",
    "methods": {},
    "title": "TreasuryAggregatorSimple",
    "version": 1
  },
  "userdoc": {
    "kind": "user",
    "methods": {},
    "notice": "Simplified unified view for MVP",
    "version": 1
  },
  "storageLayout": {
    "storage": [
      {
        "astId": 6203,
        "contract": "contracts/TreasuryAggregator.sol:TreasuryAggregatorSimple",
        "label": "treasuryCore",
        "offset": 0,
        "slot": "0",
        "type": "t_contract(TreasuryCore)6999"
      },
      {
        "astId": 6206,
        "contract": "contracts/TreasuryAggregator.sol:TreasuryAggregatorSimple",
        "label": "payrollManager",
        "offset": 0,
        "slot": "1",
        "type": "t_contract(PayrollManager)4097"
      },
      {
        "astId": 6209,
        "contract": "contracts/TreasuryAggregator.sol:TreasuryAggregatorSimple",
        "label": "budgetAllocator",
        "offset": 0,
        "slot": "2",
        "type": "t_contract(BudgetAllocator)1781"
      },
      {
        "astId": 6212,
        "contract": "contracts/TreasuryAggregator.sol:TreasuryAggregatorSimple",
        "label": "scheduledPayments",
        "offset": 0,
        "slot": "3",
        "type": "t_contract(ScheduledPayments)6193"
      }
    ],
    "types": {
      "t_contract(BudgetAllocator)1781": {
        "encoding": "inplace",
        "label": "contract BudgetAllocator",
        "numberOfBytes": "20"
      },
      "t_contract(PayrollManager)4097": {
        "encoding": "inplace",
        "label": "contract PayrollManager",
        "numberOfBytes": "20"
      },
      "t_contract(ScheduledPayments)6193": {
        "encoding": "inplace",
        "label": "contract ScheduledPayments",
        "numberOfBytes": "20"
      },
      "t_contract(TreasuryCore)6999": {
        "encoding": "inplace",
        "label": "contract TreasuryCore",
        "numberOfBytes": "20"
      }
    }
  }
}